:020000021000EC
:109000000060002015920100599201005B9201005E
:109010005D9201005F92010061920100000000007A
:10902000000000000000000000000000639201004A
:109030006592010000000000679201006992010042
:10904000C1BC01006F92010011BF010073920100C9
:1090500075920100000000005DBD010079920100E1
:109060007B9201007D9201007F92010081920100BC
:10907000839201008592010087920100899201008C
:109080008B920100199E01008F92010091920100C4
:10909000B59E010095920100A5F101009992010091
:1090A0009B9201009D920100000000000000000062
:0890B0009F920100A192010052
:1090B800354936480A1A02D0072291438D46344969
:1090C80034480A1A06D00722914381F309880222FC
:1090D80082F3148830483149314A00F044F8314865
:1090E8003149324A00F03FF831483249324A00F0FB
:1090F8003AF832483249334A00F035F832483349B1
:10910800334A00F030F833483349344A00F02BF83A
:1091180033483449344A00F026F8344834490022A8
:1091280000F02CF833483449002200F027F833487F
:109138003349091A082902DB002202604160314ADA
:1091480090471F481F49884205D00268043003B47D
:10915800904703BCF7E700208646EC460020002134
:10916800294A9047FEE7884207D0521A05D003786B
:1091780001300B700131013AF9D17047884202D0B1
:1091880002700130FAE770470060002000580020A4
:10919800006000200060002074050200D016002046
:1091A80058170020A4920100A4920100BAF6010009
:1091B80074050200D0160020D0160020FCF701002C
:1091C800FCF70100FCF70100FCF70100FCF70100C7
:1091D800FCF70100FCF70100FCF701007205020032
:1091E800FC050200581700205817002058170020C7
:1091F8005425002054250020542500205425002003
:10920800542D002027920100FDC201000B484FF0A9
:109218000701884385460A488047FFF749BF094840
:1092280009490A4A884207D0521A05D00378013002
:109238000B700131013AF9D170470000006000203D
:109248005DB90100ACF7010080160020D01600209F
:10925800FEE7FEE7FEE7FEE7FEE7FEE7FEE7FEE7DE
:10926800FEE7FEE7FEE7FEE7FEE7FEE7FEE7FEE7CE
:10927800FEE7FEE7FEE7FEE7FEE7FEE7FEE7FEE7BE
:10928800FEE7FEE7FEE7FEE7FEE7FEE7FEE7FEE7AE
:0C929800FEE7FEE7FEE7FEE7FEE700BF92
:1092A4007047000007B5044B0093044A402300F0C4
:1092B40032F803B05DF804FBC59201005917002091
:1092C4002DE9F84388461446B2B10F4B0F4E0325DF
:1092D400002743F00109224608EB0701002003F0B0
:1092E400F7F80744241A48B933782BB14FF47A407D
:1092F400C847013D02D13570BDE8F88301233370BE
:10930400002CE8D1F8E700BFFCF701005817002053
:10931400704703F00DB9F0B595B01D4616460846E2
:109324000C4602F076FA1A9B0D93CDE908650025E8
:109334002B46082205A920460A958DF82C500C9539
:1093440002F0A2FA079B0293069B03939DF8143044
:109354008DF8115003F00302012A1DD1BDF8142029
:10936400059DC3F3C203C2F383168DF81030B20017
:1093740008230EA9204602F087FAC5F3952508AB09
:109384000093324602AB0EA9284600F0DBFB2046D0
:1093940002F043FA15B0F0BD022AF8D1BDF8165018
:1093A400C3F3C203C5F389158DF810300827082DBF
:1093B4002E4628BF08263B4632460EA9204602F018
:1093C40063FAAD1B08AB02AA31460EA8374400F07D
:1093D4001DFC002DEBD1DAE7014B01221A70704716
:1093E400DA1700207047000070B50E4D06460FCD09
:1093F40088B06C460FC495E80F00002E84E80F0077
:10940400094A0A484FF0060308BF00226946009340
:1094140002F0F8FB08B100F053FC054B1E7008B0D5
:1094240070BD00BF10F80100DD930100D0160020CC
:109434009917002008B5044802F0A2FEBDE80840D0
:109444000020FFF7D1BF00BFD416002007B5044B9E
:109454000093044A4023FFF75EFF03B05DF804FB6A
:109464006D9401009A17002010B5084C0848002399
:10947400D2B2237002F0F2FE08B100F021FC054BD9
:109484001A7812B12378002BFBD010BDDA17002014
:10949400D4160020991700200120FFF7A5BF000073
:1094A40038B5094CFFF735FF01250421204600F0AB
:1094B400BDFA6572054CFFF7EFFF0421204600F06A
:1094C400B5FA657238BD00BFDC160020E81600202E
:1094D400037813F0030F024603F0040001D008B927
:1094E4007047B0B103F00300012803D0022809D06B
:1094F400012070470B6812880233C2F383121344AD
:109504000B6070470B685288023303EB92130B60B5
:10951400EEE70B6850881288013303EB9013F4E7ED
:109524002DE9F04FDFF830A187B00F460023044641
:10953400861C0DF1070015468DF8073000F06CFE0F
:10954400DAF800103960DAE90132134401335B1AA6
:109554000AF21C470AF583690AF21448B3421CD381
:109564000020002D73D004F00F039B0143F005038A
:1095740063F30F00DAF80020DAF8083013400333FD
:1095840032444AF823009DF80700CAF8002000F08E
:1095940067FE012007B0BDE8F08F0121384601F0D5
:1095A400BCFC484601F0D1FC404601F0CEFCDAF8A0
:1095B4000400DAF808B0029000EA0B0003300AEB6A
:1095C400800002A9FFF784FF029B50BB0BEA030251
:1095D4000AEB820203F1020CD2680392013303EA1C
:1095E4000B0B0AEB8B0B02F00302012ADBF80C10C5
:1095F400CDF808C023D0022A16D08346404601F095
:10960400A7FC10B1029BCAF804305946384601F051
:1096140084FCDAE901231344DAF8002001339B1AAD
:109624009CE70BEA0300C9E7BDF80E30C3F38913C6
:1096340003334FEA114B0CEB93030293DEE7BDF8BF
:109644000C30C3F383134FEA114B6344F5E7A405CD
:1096540044F006008EE700BFAC18002008B50E4B9E
:109664000E48FF229A600022C3F81824C3E900229E
:10967400C3F8142483F8202402F084F838B9084A83
:10968400084B09499B1ADB0802469A4200D108BDDF
:1096940021F822200132F8E7AC1800206CF7010011
:1096A400F4F601006CF701008016002030B50A4C76
:1096B40071B10A4A0A49121BD20800239A4201D105
:1096C400002030BD31F82350854202D00133F5E744
:1096D400034654F83300F4E7F4F601006CF7010094
:1096E40082160020094B013903EBC000032909D875
:1096F400DFE801F00A02040604207047007970478D
:10970400407970470020704702207047F4F601004A
:10971400034BD3E90030C31A58425841704700BF85
:10972400AC1800202DE9F04387B0FFF7F1FF06469F
:10973400002840F0FE80804CC4F81804BFF34F8F1B
:109744006368A56802932B40033304EB830002A9EA
:10975400FFF7BEFE029A0746002865D105EA020318
:1097640004EB8303911C0132DB6803932A4004EB6E
:10977400820203F00303D2680291022B04926BD19C
:10978400BDF80E306D48C3F38918B8F1500FC146C7
:1097940028BF4FF0500909F1080169F38F13C1F391
:1097A4000901ADF80E3002F005F80646002800F075
:1097B400AE8002F02EF83B46082203A9304602F0A0
:1097C4003AF8029925EA01020132B9EB820F4FEA15
:1097D40082033AD95FFA89F99BB32940DDB2A9EB38
:1097E400050903315FFA89F7A946554D04EB810158
:1097F40008234A46304602F01EF845B109F108092B
:109804005FFA89F33A462946304602F014F8029B7F
:1098140008F1030803EB98030293D4F81834002BDF
:109824004FD1D4F810545DE02368934204D86360A8
:10983400304607B0BDE8F0832A40033204EB8200CF
:1098440085E73F491D461F46D2E7294003310823D7
:109854004A4604EB8101D7E7012B58D1BDF80C30FF
:109864003648C3F38311062928BF062161F38913FF
:10987400023101F00F018900ADF80C3001F09AFFBC
:109884000646002843D001F0C4FF3B46082203A942
:10989400304601F0D0FFBDF80C20C2F38312BB00A8
:1098A400974203F10803B8D202994A1C29400331B4
:1098B400029204EB81010422304601F0BCFF01371F
:1098C400E9E7304601F0A9FFFFF722FF80F0010627
:1098D400F6B2ADE76B7A23B12B6831461B68284694
:1098E40098476D68002DF5D1304601F096FF0DF1D3
:1098F40007008DF8075000F08FFCD4F818340BB92A
:10990400029B63609DF8070000F0AAFCDCE7D4F832
:10991400104444B90B4B0C491888000440F0020071
:1099240000F060F8D0E7236820469B689847646895
:10993400EFE700267CE700BFAC1800206CF70100BD
:10994400B8180020901600203CF801002DE9F74FCC
:10995400224E04460F46924601A901221846D6F823
:1099640008909B46FFF7DCFD20B3019D4FF00008F3
:10997400AA1CD84508EB020126D11948002101F0A0
:1099840091FA80F31000000440EA1440E4006B1CD8
:1099940004F0380403EA090305EA090544F0010464
:1099A40006EB8303033544EA881444EA8724D86029
:1099B40046F8254096F820341BB1FFF7B3FE002883
:1099C400FBD103B0BDE8F08F09EA010106EB810188
:1099D4005AF82830CB6008F10108CAE7AC18002017
:1099E400C81C002000231A46FFF7B0BF07B50123A7
:1099F400019201AAFFF7AAFF03B05DF804FB07B5C3
:109A0400CDE9002302236A46FFF7A0FF03B05DF807
:109A140004FB1FB5CDE90123069B039301AA03238D
:109A2400FFF794FF05B05DF804FB000030B50E4C61
:109A3400D4F8102403460020114629B9187242B9FB
:109A4400C4F810345A6030BD0D7A854205D0496897
:109A5400F3E7516859605360F5E701300A28EBD108
:109A64004FF0FF30EFE700BFAC18002038B5074BCC
:109A74000125D3F8104483F8205404B938BD236871
:109A8400657220465B6898476468F6E7AC18002066
:109A9400C38873B504460D4633B1144A0092144981
:109AA400144A284601F0B7FA217A05291CD0637AB2
:109AB4004BB1A088FFF716FE0F4B104953F8202036
:109AC400284601F0A8FA227A0D4BA08853F82260A8
:109AD4000021FFF7EBFD0B4903463246284602B04E
:109AE400BDE8704001F097BA02B070BD84F801007F
:109AF4006CF8010064F80100F0F8010089F8010035
:109B040014F901008CF8010010B5037A052B0C46FA
:109B14000FD0437A23B1084A0849204601F07BFA62
:109B24000749204601F077FA2046BDE8104001F0CD
:109B340067BA002AF8D0F3E784F8010089F8010035
:109B440081F801002DE9F04385B01F460C9D0023E8
:109B540095F80C902B7306460C46904629463846D9
:109B6400FFF796FFB8F1060F09D8DFE808F00412F2
:109B7400181F283340003146284601F04CFA0022D1
:109B840029463846FFF7C0FF85F80C9005B0BDE8BC
:109B9400F08322683146284601F03DFAEFE7D4E924
:109BA40000233146284601F036FAE8E7A36800931B
:109BB4003146D4E90023284601F02DFADFE7E368B3
:109BC4000193A36800933146D4E90023284601F0A9
:109BD40022FAD4E723690293E3680193A36800930C
:109BE4003146D4E90023284601F015FAC7E7636932
:109BF400039323690293E3680193A36800933146B6
:109C0400D4E90023284601F006FAB8E708292DE92B
:109C1400F74F80460E4617461C4639D8002593F860
:109C24000C901D7319461046FFF732FFDFF87CA035
:109C3400DFF87CB0AE422ED918F8052059462046EC
:109C440001F0E9F90135082DF4D11A49DFF868A0CB
:109C5400DFF868B0204601F0DEF90025AE421FD9D6
:109C640018F805200192104605F03AFC0028019AE4
:109C7400594608BF2E22204601F0CDF90135082DA2
:109C8400ECD1012221463846FFF73EFF84F80C90C0
:109C940003B0BDE8F08F5146204601F0BCF9D1E78E
:109CA4005146204601F0B7F9E8E700BF9CF80100EF
:109CB40096F80100A0F801009EF80100A2F8010046
:109CC4001FB50021039001AA44F20100CDE901115E
:109CD40000F004F805B05DF804FB000010B572B69E
:109CE400FFF7C4FEFFF71EFD0028FBD1104C1149FD
:109CF4002088000440F00100FFF774FE0E4BD3F8F7
:109D0400F030DB0700D500BE20880C49000440F089
:109D14000200FFF767FEBFF34F8F0749084BCA687D
:109D240002F4E0621343CB60BFF34F8F00BFFDE743
:109D34009016002028F9010000ED00E034F901003C
:109D44000400FA05094B5A7899780132D2B291424B
:109D540008BF0022197891421FBF02705878182258
:109D640002FB003014BF043000207047D01C0020D8
:109D740073B5054600240DF107000E468DF8074023
:109D840000F04AFA0DF10600FFF7DCFF90B106700F
:109D9400094B9DF8062045605A709DF8070000F0B5
:109DA4005FFA24B9054B4FF48012C3F80021204612
:109DB40002B070BD0424F0E7D01C002000E100E0F4
:109DC400024B4FF43C6043F00103184742F9010091
:109DD40038B50C4B0C4C4FF40032C3F880200125ED
:109DE4004FF48033C4F84833C4F808336560FFF790
:109DF400E7FF064BA56000241C60FFF7E1FF044B5E
:109E04001C7038BD00E100E000100140EC1D002092
:109E1400DD1D0020F8B51F4B1F491B680025C1F844
:109E24004051C1F84451C1F84851C1F84C51C1F8EE
:109E34000051C1F804514BB3D1F8044517490968DE
:109E4400641A24F07F442F461A68A24209D8A41A3F
:109E540015441A7CDE691AB1D3E905201F749047B2
:109E6400AEB90F4A0F4B11781B788B4205D10133E1
:109E7400DBB2022B08BF0023137012780A4B43F89D
:109E840022500A4B4FF48012C3F80021F8BD334628
:109E9400DAE700BFF01D002000100140EC1D002097
:109EA400E91D0020E81D0020E01D002000E100E085
:109EB4002DE9F04FA14AA24913780978A14D99429E
:109EC40085B03CD00133DBB2022B08BF00231370F2
:109ED4009D4912789D4B0F6853F822003B1823F0DC
:109EE4007F4300220B602B6816461446944613B930
:109EF40042B12B6006E0196881420ED902B12B6091
:109F0400091A196001272B68DFF844A201934FF066
:109F14000008BEB9DFF83CB260E0401A0C44D968CE
:109F2400D3F81CE0C3F800C031B13A1922F07F42E3
:109F3400C3E90121DE611E4673460122D7E70026EC
:109F44003746E0E73446F6697F4B60681B68DFF804
:109F540008C2A168C21A22F07F42624500F2A680BC
:109F64000A442260012222742A680023C4E90133CE
:109F7400E361002A40F0A3802C60CAE79BF802103A
:109F84005A1CD2B291428BF8002004BF00228BF8F5
:109F94000020182202FB03B32A6819799C6802295D
:109FA40075D003297FD0012918D1207CB0B9D3E919
:109FB4000312A2605A69E2609A69684BA2611A7836
:109FC400002A18BF01466160BEE78C4200F094800D
:109FD4008946C9690029F8D1002323749BF800300D
:109FE4009BF801209A42C9D12B68B8F1000F04D123
:109FF400019A9A4201D1002F43D0002B79D0D3F893
:10A0040000A0534D504BD5F804751C68DFF85081FF
:10A014003E1B98F8003026F07F4603369BB94FF478
:10A024008033C5F84433C5F804334E4B4FF4003243
:10A034004FF00109C3F880211A60C5F80090FFF7BA
:10A04400BFFE88F80090B2452CBF5444A41924F0F4
:10A054007F44C5F84045D5F80435DB1B23F07F4326
:10A06400E41B033324F07F44A3420AD9D5F8043512
:10A07400C5F84035FFF7A4FE3A4B4FF40032C3F85D
:10A084000021364B00221A7005B0BDE8F08F11464E
:10A0940091469FE71174D2690123002AFAD1002B5B
:10A0A4009CD02A609AE700231946F6E71B1A23F08E
:10A0B4007F438B4234BFCB1A0023236052E72168CD
:10A0C4001368994213D85B1A1360E26154E7091AC2
:10A0D400D8691A4638B1034618688842F7D3401A3B
:10A0E4001860184613462160E061DC6111E71346ED
:10A0F400F2E7FFF76DFEC4E74C4511D1D3692B603D
:10A1040073B9DFF844E00120CDE90212CAF808006F
:10A11400CEF80030114B1870FFF752FEDDE9021241
:10A124000B68C969C9F81C1011B1086803440B60B5
:10A134002B68934218BF4FF001084DE7E81D00203B
:10A14400E91D0020F01D0020EC1D0020E01D002072
:10A1540000100140D01C0020FEFF7F00DC1D002009
:10A16400DD1D002000E100E02DE9F743DFF87C80ED
:10A1740098F8023005460E461746ABB3A0B304293F
:10A1840030D9436983B3437C0024012B0DF10700CC
:10A194000CBF8946A1468DF8074000F03DF80DF14B
:10A1A4000600FFF7CFFDD8B101230370104B4560C3
:10A1B400D3F80435C0E90497C0E902369DF80630A7
:10A1C40088F801309DF8070000F04AF824B9094BDB
:10A1D4004FF48012C3F80021204603B0BDE8F08399
:10A1E4000424EFE70724F7E70824F5E7D01C002050
:10A1F4000010014000E100E0064A92783AB130B123
:10A20400426922B1002202740221FFF7B1BD082085
:10A21400704700BFD01C002070B5EFF3108672B6F3
:10A224000C4A946801239CB993600B4B0B4DD3F8F3
:10A23400801029401160C3F88050D3F88410516015
:10A244004FF0FF32C3F88420047006B962B670BDC3
:10A254000370FAE7F41D002000E100E0FC06FFBDF6
:10A26400084B9A6810B55AB150B9EFF3108172B621
:10A27400054A1C6814605C685460986001B962B651
:10A2840010BD00BFF41D002000E100E070B5064ED3
:10A294000546002456F8043B0BB128469847013480
:10A2A400042CF7D170BD00BF0C1E0020438803337B
:10A2B40000EB8303994209D382884FF6FF739A42D5
:10A2C40006D00088B0FA80F0400970470220704739
:10A2D40001207047033080B240F2FD33984230B51C
:10A2E4001FD8124B1A783AB91C895D892C4404444E
:10A2F400A4B2B4F5806F0AD31A7DA2B99A8BDC8B11
:10A304002244024492B2B2F5806F0CD201220A8038
:10A314001446142202FB04335A8910445881002045
:10A3240030BD0920FCE70720FAE700BF401E0020EB
:10A334000B4A0C495388142000FB0311CB6833B932
:10A344000420496810700122074801F0ADB807499C
:10A354000523137002238B80012209680023F3E78D
:10A36400241E0020401E0020BC1600206C1E00206D
:10A3740007B5002305490093054A096805480823E1
:10A3840001F00AF803B05DF804FB00BF6C1E002066
:10A3940064F90100BC16002007B5002301460093B0
:10A3A400034A0448082300F0F7FF03B05DF804FBF8
:10A3B4005CF90100BC16002013B500230C46009381
:10A3C4000146084A0848042300F0E6FF38B9074B61
:10A3D400142101FB043101230B7402B010BD0E20C3
:10A3E400FBE700BF58F90100BC160020401E002006
:10A3F40037B50A480A4B42689C8819685388032574
:10A40400033305709BB2002000909B0001EB840194
:10A41400044800F0C1FF03B030BD00BF241E00207B
:10A424006C1E0020BC16002010B50146044800F044
:10A43400A8FC1C220446002105F0B8F8204610BDF3
:10A44400F416002038B5144B14220D4602FB0033D9
:10A454005C682B6804F58051A3B15C88033403EB7A
:10A4640084048C4215D22368013312D02046FFF7AE
:10A474001DFF012808D002280BD00028F1D12C6040
:10A48400012038BD0834ECE76388033304EB83040C
:10A49400E7E70020F5E700BF401E0020426873B5DF
:10A4A40004460D4662B3234BD9688A4228D31B69FC
:10A4B4009A4225D812F0030322D11F490089098941
:10A4C40088421DD120689168884219D11B4841688F
:10A4D4008A4203D901F580518A420DD381698A42A7
:10A4E4000CD901F580518A4208D201222A80B3FA9C
:10A4F40083F0400902B070BD1A46F7E70A23F6E775
:10A5040000262E800196288801A9FFF79BFF30B909
:10A514002B8801339BB2012B2B80F3D9EAE7019BF3
:10A52400226899689142EED16360034B1B892381B1
:10A53400E0E700BFBC160020241E0020401E0020BF
:10A544002DE9F8431C461C4B1B7806460F4615465E
:10A554006BB372B36CB3DFF864804FF01409A38853
:10A56400012B01D90A2020E009FB03F318F803307A
:10A574002BB9A0882146FFF765FF20B92060A38886
:10A584000133A380EBE723681EB199883288914296
:10A59400EFD11FB119883A889142EAD19A68C5E986
:10A5A4000023074B1B892B810020BDE8F883022080
:10A5B400FBE70520F9E700BF1C1E0020401E002019
:10A5C400241E002008B5074B5888191DFFF73AFFD1
:10A5D40018B1BDE80840FFF70BBFBDE80840FFF71E
:10A5E400A7BE00BF241E00202DE9F0479E4FDFF8D0
:10A5F4007C8288B006463B6823B99D48414600F0FA
:10A60400FAFB38603D6829784B1E052B07D8DFE834
:10A6140013F01F0076007600060106015C010F248A
:10A624001422002103A804F0C1FF41F61D539C42EB
:10A6340008BF00243B6804941A78023A042A00F202
:10A64400F981DFE812F0DA01E601080210021702CC
:10A6540026B1884B00225A600124E1E72B79032BB1
:10A664001CD8DFE803F014022934834A1378022B40
:10A6740019D0137D022B4FF0010316D114214B4343
:10A68400D1180020D0544868FFF786FE03E0012368
:10A694002B71FFF76DFE002800F0BC80754B002283
:10A6A4005A600E24BCE70023E8E7724A13700023C3
:10A6B400536041F61D54B3E77049714800230222E8
:10A6C4002B718A800968012200F0EEFEE3E76B4CEF
:10A6D40000262E712068FFF75FFE6A4B66495B888F
:10A6E400256814225343CA18CE54D2F804C05560C6
:10A6F400A58815810222C4F800C0A280CBE7B5F872
:10A7040014A0AA7DDFF87091AEB1022AEB8806D9B5
:10A71400142101FB0A91DA1C088902440A811422DB
:10A7240002FB0A99C3F57F43B9F80A20FD331344A9
:10A73400A9F80A3090E7142303FB0A9318895C688C
:10A7440004EB8004062A68D8DFE802F0274D35437D
:10A754001D59040041F61D54AA7DEB88022A06D92E
:10A76400142101FB0A91DA1C088902440A8114228B
:10A7740002FB0A99C3F57F43B9F80A20FD33134459
:10A78400A9F80A304CE74048404900234360AB69CC
:10A794000360FFF783FE002859D00223AB75002322
:10A7A40000930423EA182146354800F0F5FD0028FB
:10A7B40030D00E24D0E72B69002B14BF03230123D0
:10A7C400AB750023009305F10C02042304F1080186
:10A7D400EAE70123AB750022EB8800922A699B000B
:10A7E40004F10C01E0E703290CBF05230623AB7534
:10A7F40000230093042305F10802E118D4E706239B
:10A80400AB75224B1988204B5868FFF7D5FD0446D9
:10A814000028A1D108B0BDE8F0870F249CE7002EE2
:10A824007FF41AAF2B79012B32D0022B3FF441AFC6
:10A83400002B7FF4F4AE02232B710DF10A01EB68B7
:10A84400039303A8CDE90466FFF728FE08B90A2498
:10A85400E6E60498BDF80A108388EB8003882B8110
:10A86400FFF7AAFD044626E03C1E0020341E00200B
:10A87400F41600201C1E0020401E00206C1E002028
:10A88400BC160020241E0020001E0020741E002080
:10A89400DFF8E89103AA4B463146A81DFFF750FEA6
:10A8A400044660B9B9F804100498FFF785FD04461E
:10A8B4000A2C3FF4FEAE002C7FF4B2AEAAE70822C5
:10A8C4003146484604F072FEF2E7002E7FF4C4AE2F
:10A8D4006B4B1A7BB2B11E731A78013A062A3FF603
:10A8E4009EAE01A151F822F093A90100B9A901007B
:10A8F400D7A90100DDA9010023A60100E3A90100F5
:10A90400F5A901001A78072AE6D801A151F822F026
:10A9140035A90100DDA80100DDA801005BA9010043
:10A924006FA901008FA901008FA9010057A9010097
:10A934001A89544901321A8100225A801A730A78FA
:10A94400B2FA82F252099A720A7DB2FA82F252097A
:10A95400DA72012207E04C4958688A884088033239
:10A9640002448A8002221A70B6E75C88454A464946
:10A97400142505FB042208685468506088881081F7
:10A9840002228A800C600622EDE70722EBE79A7A1E
:10A9940032B9DA7A8AB900221A705A805A6088E683
:10A9A400384900229A72CA68002AF2D1097C002927
:10A9B400EFD05A80FFF706FE54E70022DA72314ADC
:10A9C400116A0029E7D192F82420002AE3D0012259
:10A9D400EFE7FFF70DFD45E7FFF7AAFC42E75A88CA
:10A9E400284B142101FB02335868FFF7D5FC39E7E3
:10A9F40000225A60FFF7BCFC34E701228DF80C20DA
:10AA04001A89ADF818209A88DB68ADF81A200593E6
:10AA140010E002228DF80C201A89ADF818209A88CB
:10AA2400ADF81A20DA689B7D05929A1F5342534170
:10AA34008DF81C3003A8FFF729FC00264146134873
:10AA44003E6000F003FA1248012100F072FA002877
:10AA54007FF4D1ADDEE603228DF80C20DA88ADF860
:10AA640018201A89D0E704228DF80C20DB88ADF871
:10AA74001830DFE705238DF80C30DBE7781E002063
:10AA8400241E0020401E00206C1E0020F41600200E
:10AA9400681E00204068FFF7A7BD000008B5054800
:10AAA400012100F02EFA18B9BDE80840FFF79CBD5B
:10AAB40008BD00BF681E00202DE9F3419846354BC0
:10AAC4001B7806460D46002B5BD000295BD0098815
:10AAD4004FF6FF73994258D06B88002B55D06B68A2
:10AAE4009B0754D14AB92F890DF102013846FFF76B
:10AAF400F1FB30B102B0BDE8F08113885788ADF89E
:10AB0400023001A8FFF790FC044658B9BDF80220B2
:10AB1400214B142101FB023358890338C01B58818F
:10AB24000820E7E780F8008000238375BDF8023031
:10AB340083826B6803610121184800F0EEF92B88C9
:10AB44002381B8F1030F6B88A38004BF0423A3758A
:10AB54004FF0000508BF3368E06008BFA3611048E8
:10AB6400E780658101A900F036F936B1E368336006
:10AB74000C4B75601B89B5723381FFF78FFF002082
:10AB8400B8E70220B6E70520B4E70420B2E70320C3
:10AB9400B0E700BF1C1E0020401E0020381E00200D
:10ABA400F4160020241E002073B50D460446C8B1D7
:10ABB400C1B10DF10601FFF771FCA8B1BDF8063073
:10ABC4000A486668142202FB030001210C3000F0DD
:10ABD400A4F963682E600C336B600123A372002018
:10ABE40002B070BD0520FBE70A20F9E7401E0020F3
:10ABF40013B50446A8B10DF10601FFF74FFC90B15F
:10AC0400BDF806200A4B142101FB0233DA6862B155
:10AC1400A27A52B1DA680020013ADA60A07202B076
:10AC240010BD0520FBE70A20F9E70620F7E700BF7F
:10AC3400401E00200B4B1B7837B504460D4663B10C
:10AC440068B10DF106012846FFF744FB18B9BDF8B9
:10AC540006302380658003B030BD0220FBE7052069
:10AC6400F9E700BF1C1E0020104A127810B50346F5
:10AC7400AAB1B0B10088022815D80D495A88142405
:10AC840004FB0011941C488984420CDAC2F57F420B
:10AC9400FD32024400204A811880588010BD0220F1
:10ACA400FCE70520FAE70420F8E700BF1C1E00209B
:10ACB400401E002002230022FFF7FEBE12B1022331
:10ACC400FFF7FABE0520704718B103230022FFF7EF
:10ACD400F3BE052070470000104B1B7813B50446E3
:10ACE400ABB14FF6FF73984213D001A8FFF79CFB5A
:10ACF40088B10523037001230371C48001A90848A6
:10AD040000F069F8FFF7CAFE002002B010BD02206F
:10AD1400FBE70420F9E70820F7E700BF1C1E00202A
:10AD2400F416002007B5ADF80600ADF804100DF1D7
:10AD3400060001A9FFF704FC03B05DF804FB07B5A6
:10AD44001346ADF806000A4600200DF10601FFF790
:10AD5400F7FB03B05DF804FB07B51346ADF8060036
:10AD64000A460DF106000021FFF7EAFB03B05DF887
:10AD740004FB20B119B103680B6000207047052063
:10AD8400704737B550E8013F9DB2C4892544848992
:10AD9400A54228BF2D1B0489A54202BFBFF32F8FF4
:10ADA400002207E0C5EA030540E80154002CE9D17C
:10ADB4004FF001028DF803200193019A0A609DF877
:10ADC400031001F0FF0321B1006810FA82F003B010
:10ADD40030BD1846FBE70A884B889A4209D150E8EF
:10ADE400012FC2EA024240E80123002BF7D10120DF
:10ADF40070470020704737B550E8023F1FFAA3F5AB
:10AE0400C488A54202BFBFF32F8F00220DE0C4897E
:10AE140025448489A54228BF2D1BC3EA054540E883
:10AE24000254002CE8D14FF001028DF80320019365
:10AE3400019A0A609DF8031001F0FF0321B1006834
:10AE440000EB124003B030BD1846FBE70A884B887C
:10AE54009A4209D150E8022FC2EA224240E8022372
:10AE6400002BF7D1012070470020704701F01F022A
:10AE74004B090121914000EB830000F01EB801F062
:10AE84001F0301229A404B0900EB8300D14300F0D9
:10AE94002CB84B0901F01F0150F82300C84000F002
:10AEA4000100704710B5034653E8000F0A4643E813
:10AEB400002494F0000FF7D110BD10B5034653E8F9
:10AEC400002F42EA010043E8000494F0000FF6D199
:10AED40010BD10B5034653E8000F00EA010243E831
:10AEE400002494F0000FF6D110BD10B5034653E8CA
:10AEF400002F02EA010043E8000494F0000FF6D1A9
:10AF040010BD10B5034653E8000F00EB010243E8FF
:10AF1400002494F0000FF6D110BD10B5034653E899
:10AF2400002F02EB010043E8000494F0000FF6D177
:10AF340010BD10B5034653E8002FA2EB010043E80F
:10AF4400000494F0000FF6D110BD0121FFF7B5BF46
:10AF54000021FFF7BEBF10B590B1D0E9012301680D
:10AF64009B1ADBB20A60013BDBB2FF2B026802D101
:10AF74000020107110BD11684C1C14600B70F2E7B6
:10AF84000E20F7E737B5054600240DF107008DF8CC
:10AF94000740FFF741F92A686B68116899420ED996
:10AFA400481E106011F8013CEC68A98A01FB0344B7
:10AFB400AB6811791B1ADBB2994238BF13719DF843
:10AFC4000700FFF74DF9204603B030BD37B50546FD
:10AFD40000230DF107000C468DF80730FFF71CF92C
:10AFE4002A681368591C1160E968641AA98AB4FBB9
:10AFF400F1F41C709DF80700FFF732F903B030BD7F
:10B00400826810B504462AB143690168006998470B
:10B014000023A36010BD0EB403B5039921B104ABA2
:10B0240001AA019300F06EF802B05DF804EB03B0DE
:10B034007047826830B40468551C8560A154D0E917
:10B0440001329A4202D330BCFFF7DABF30BC7047FA
:10B054002DE9F84F9846DDE90A43154682460F4626
:10B064000A464FF00109AA420FD2C14538BFC14672
:10B0740013F0010B01D16CB900240126B8F1010FC2
:10B084001BD908F1FF386E43F8E709F10109B2FB57
:10B09400F5F2E8E79B070ED5B8F1000F0CBF302698
:10B0A4002026A145E9D2013C31465046FFF7C1FFB5
:10B0B400002CF6D1E0E72026F3E7B7FBF6F39D4238
:10B0C400E1D9DFF83C80B7FBF6F3504618F80310DB
:10B0D40006FB1377FFF7ADFF3346AB42B6FBF5F63D
:10B0E400F1D2BBF1000F02D00CB1A14501D3BDE8F0
:10B0F400F88F20215046013CFFF79BFFF4E700BF87
:10B104006CF901002DE9F74F0546174688460029DA
:10B1140000F03E8118F8011B49B92B7B002B00F08D
:10B124003781284603B0BDE8F04FFFF769BF2529F2
:10B1340040F0B780002698F800302D2B424608F1E5
:10B14400010823D0302B24D02B2B25D000242A2BEC
:10B1540002F1010123D13B681A1D1B683A601C44AB
:10B164000A4613782E2B26D101324FF0000A1046DE
:10B1740010F8011BA1F1300CBCF1090F1DD80A23F2
:10B1840003FB0A13A3F1300A0246F0E746F0010676
:10B19400D1E746F00206CEE746F00406CBE711F805
:10B1A400013CA3F130000928DBD80A2202FB043455
:10B1B400303C0A46CBE74FF0000A12F8011B01F0BD
:10B1C400FB0068289046F8D0782909D86F290CD854
:10B1D400632962D022D8252963D0582900F08880B9
:10B1E40098F80030002B95D197E770390829F7D8E3
:10B1F40001A353F821F000BF6FB30100E5B10100D2
:10B20400E5B1010005B30100E5B10100E3B20100BD
:10B21400E5B10100E5B10100F5B20100642901D0F6
:10B224006929DDD13A68D2F80090111D89EAE972E2
:10B234003960A2EBE9724FF0010B092A35DCD345E2
:10B2440038BFD3462CB1B9F1000F01DB720700D52A
:10B25400013CB30702D5BAF1000F03D0F00701D4C3
:10B264004CBB0024B9F1000F2DDAC9F100092D21DE
:10B274002846FFF7DEFE06F00302022A04D1BAF1E3
:10B28400000F01D11CBB0024CDE9004653460A221D
:10B2940049462846FFF7DCFEA2E73B681A1D1978E9
:10B2A4003A602846FFF7C5FE9AE70A230BF1010B23
:10B2B400B2FBF3F2C1E7A345D4D220212846013CD6
:10B2C400FFF7B7FECCE77107D5D52B21D0E7A3450F
:10B2D400DAD230212846013CFFF7ABFED2E73968C9
:10B2E400CDE900460A1D3A6053460A220968D0E7B0
:10B2F40039680A1D3A60CDE9004653461022F5E745
:10B304003B681A1D3A6016F00106D3F8009024D168
:10B31400B9F1000F03D0484604F09DF90646B44243
:10B324001DD809F1FF3919F8011F00293FF458AF5E
:10B334002846FFF77EFEF6E728460136FFF779FE3A
:10B3440019F806100029F7D1A642BFF449AF20210D
:10B354002846013CFFF76DFEF6E70026F0E72021C2
:10B364002846013CFFF765FED9E73B681A1D3A60A1
:10B37400302128461C68FFF75CFE78212846FFF739
:10B3840058FE00220823CDE900322146102280E72E
:10B3940003B0BDE8F08F00BF2DE9F743DDF8288046
:10B3A40078B9364B364A1888364B0E24000400947C
:10B3B400354940F00100FEF72CFB204603B0BDE800
:10B3C400F0833AB92D4B314A18882E4B0E240004D1
:10B3D4000094EDE7D0F800E0BEF1000F07D1274B51
:10B3E4002B4A1888274B082400040094E0E73BB953
:10B3F400224B284A1888234B092400040094D7E7D9
:10B404004768D7F80490B3FBF9F709FB17373FB146
:10B414001A4B214A18881B4B092400040094C7E7DF
:10B424008F0707D0154B1D4A1888164B10240004AB
:10B434000094BDE712F0030F07D0104B184A188888
:10B44400104B102400040094B2E7C768B9420DD32E
:10B4540005694C1E1C44AC4208D8CDF82880DEF89F
:10B464000C40A44603B0BDE8F0436047034B0D4ACB
:10B474001888044B10240004009499E7A8160020AF
:10B484007CF9010025FB010081F90100FEF90100AE
:10B49400AAF90100BDF9010004FA01002EFA010025
:10B4A40046FA010069FA0100F7B570B9254B264A3E
:10B4B4001888264B0E2400040094254940F001000E
:10B4C400FEF7A7FA204603B0F0BDD0F800C0BCF1E7
:10B4D400000F07D11B4B1F4A18881C4B082400047B
:10B4E4000094EAE73AB9174B1B4A1888174B09240A
:10B4F40000040094E1E74768D7F800E00EF1FF3755
:10B504000F4207D00F4B154A1888104B1024000423
:10B514000094D2E7C768B9420CD305694C1E0EFBF0
:10B524000244AC4206D8DCF81040A44603B0BDE89F
:10B53400F0406047034B0A4A1888044B1024000467
:10B544000094BAE7A81600207CF9010012FB010060
:10B5540081F90100AAF90100BDF9010090FA010086
:10B56400B6FA010070B550B90E4D0F4C0026641B9D
:10B574001423B4FBF3F4B44208D1002010E00368B0
:10B58400002BF1D0BDE87040DB6918472B6813B974
:10B5940001361435EFE7DB69284698470028F7D0D1
:10B5A40070BD00BFBC160020D016002029DF7047F4
:10B5B40028DF704770B503689E6886B004460D4660
:10B5C4006EB114220021684603F0F0FFA3680593CE
:10B5D400237901952BB1012B0DD06846B04706B0F5
:10B5E40070BD01238DF8003023690293E36803934F
:10B5F40063690493F1E702238DF80030E3681B03C9
:10B604000293F5E7034B187A0122B0FA80F05A74DA
:10B6140040097047801E002038B5234D234C2B7AF7
:10B624003BB923492348FFF7E6FB206008B968606B
:10B6340038BD022324682B72237973B1012B24D0E3
:10B6440020460321FFF7B6FF00232B726B601849D5
:10B654001848BDE83840FFF7F9BBD4E90523D21AEE
:10B66400B2F5805FD4E9031028BF4FF480529208EA
:10B67400012A38BF012219441844FFF797FF50B13B
:10B684001128DDD101232B72D2E7D4E90303184436
:10B69400FFF78EFFF3E72B7C002BC9D1BDE83840C0
:10B6A400022000F009B800BF801E0020981E002070
:10B6B400941E00200817002038B5234C237A002B51
:10B6C40041D0022B09D1032830D0204B00221B6823
:10B6D400E2601A793AB1012A22D0637C7BBBBDE8CF
:10B6E4003840FFF799BFD3E905128D1AB5F5805F8D
:10B6F40094BF521902F580529A619142EDD1022809
:10B704004FF0000308BF19462372104B18BF0D21D8
:10B714001868FFF74FFF0E490E48FFF797FBDCE769
:10B724001A6901321A615B699A42E7E7E3680133F7
:10B73400082B01D8E360D0E70023E360DFE7BDE82E
:10B74400384003F003BD38BD801E0020981E002041
:10B75400941E002008170020831E012B01D8FFF738
:10B76400ABBF704700F0FD03012B08D1044B00224E
:10B774005A74421E504250411874FFF74DBF70472F
:10B78400801E0020FFF7E7BBF8B546790146721E1C
:10B794000546002393422D6803D30024A64202D811
:10B7A400F8BD0133F6E70F682846FFF70FFC0134B4
:10B7B4003946F3E72DE9F843868ACD1C0746FFF79F
:10B7C400E1FB043E35440446B5FBF6F5F0B14FF415
:10B7D4008073EDB28380C680013D076081464FF0DF
:10B7E4000008A84512D23846FFF7CCFB064648B1FC
:10B7F40063790133637108F10108C9F80000076037
:10B804008146EEE72046FFF7BFFF34462046BDE8F9
:10B81400F88301210430FFF780BB10B501210446F1
:10B824000430FFF786FBC0B220B92046BDE81040C3
:10B83400FFF7AABF10BD2DE9F843B0F80680043322
:10B844000546B3FBF8F40F46164608FB14333CB91F
:10B85400A8EB0309B14528BFB14626B9BDE8F88372
:10B864002D68013CF3E70433E818A6EB09064A46C1
:10B87400391903F072FEB0454C442D68C1464FF0AF
:10B88400000328BFB146E8E72DE9F843B0F8068085
:10B8940004330546B3FBF8F40F46164608FB14338D
:10B8A4003CB9A8EB0309B14528BFB14626B9BDE8A8
:10B8B400F8832D68013CF3E70433E918A6EB090685
:10B8C4004A46381903F049FEB0454C442D68C14638
:10B8D4004FF0000328BFB146E8E70B684A684360AD
:10B8E400934208BF0023016008BF43607047436868
:10B8F40043B10268916852680B449342436004BFA9
:10B90400002343607047000010B50D49A1F59472FF
:10B91400914201D800200FE08C1AE30F03EBE403FB
:10B924005B1002EBC30452F83330834205D802D2D1
:10B9340004F10802ECE7606810BD2146E8E700BFA7
:10B944004400020008B5FFF7DFFF024B002808BFE0
:10B95400184608BD09FF01004FF080534FF08041A5
:10B96400D3F84422C2F34232C1F83C250022C1F884
:10B974000C21C1F81021C1F83825474AD3F8040432
:10B98400C2F82005D3F80804C2F82405D3F80C043F
:10B99400C2F82805D3F81004C2F82C05D3F814040F
:10B9A400C2F83005D3F81804C2F83405D3F81C04DF
:10B9B400C2F84005D3F82004C2F84405D3F824049F
:10B9C400C2F84805D3F82804C2F84C05D3F82C046F
:10B9D400C2F85005D3F83004C2F85405D3F834043F
:10B9E400C2F86005D3F83804C2F86405D3F83C04FF
:10B9F400C2F86805D3F84004C2F86C05D3F844349F
:10BA0400C2F87035254BFB22C3F81825D1F8003451
:10BA1400DB0744BF6FF00103C1F800344FF010237B
:10BA2400D3F80022002A03DBD3F80432002B2EDAE9
:10BA34001B4B0122C3F80425D3F80024002AFBD0B1
:10BA44004FF010221521C2F80012D3F80024002A66
:10BA5400FBD04FF010231522C3F80422104BD3F867
:10BA64000024002AFBD00022C3F80425D3F80024C4
:10BA7400002AFBD0BFF34F8F0A490B4BCA6802F46C
:10BA8400E0621343CB60BFF34F8F00BFFDE7074B6A
:10BA9400074A1A60704700BF00C0004000F0004031
:10BAA40000E0014000ED00E00400FA051C1700204E
:10BAB4000090D00338B5074C051E04F1080318BFE5
:10BAC4001C4623682BB11A6822605B682846984795
:10BAD400F7E738BDA41E002020B9054B01225A7097
:10BAE400FFF7E8BF012802D1014A9070F8E77047D8
:10BAF4009C1E002020B9034B01225A70FFF7DABFC5
:10BB0400704700BF9C1E002038B50B4C237883B9C6
:10BB14000A486360A3602361E36000F0A5F805466A
:10BB240003F024FB08B900F0ABF801232370284686
:10BB340038BD8525FBE700BF9C1E0020DDBA01004F
:10BB440037B50B4C00230DF107008DF80730FEF7D5
:10BB540063FBE368013BE360E56815B900F0A4F812
:10BB6400A5709DF80700FEF77BFB03B030BD00BF56
:10BB74009C1E0020012813B508D003281CD018B936
:10BB8400114B0122C3F8802002B010BD0F4C0023DA
:10BB94000DF107008DF80730FEF73EFB23780BB953
:10BBA400FFF7B2FFE3689DF807000133E360012368
:10BBB400A370FEF755FBE7E700F062F802B0BDE8BA
:10BBC4001040FFF7BDBF00BF00E100E09C1E002055
:10BBD4001FB503788DF8003043680193037A8DF81C
:10BBE4000830C368054A0393054B684653F821306F
:10BBF40052F82110984705B05DF804FBB01E0020F0
:10BC0400B41E0020F0B506460F4B16F804CB43F8DB
:10BC14002C200E4B17460C460A6943F82C200FCCF7
:10BC240089B06D460FC594E80F00002F85E80F001A
:10BC3400074ACDF810C008BF3A466946304600F0BE
:10BC4400D9F909B0F0BD00BFB41E0020B01E002019
:10BC5400D5BB010000F18040002382B0036003687B
:10BC64000193019B02B07047044B0246187918B93E
:10BC74001A6001229A80704785207047B81E002000
:10BC8400084B1A68D20706D4E02283F80023012265
:10BC9400C3F880211A604FF080430122C3F81825AD
:10BCA400704700BF00E100E04FF080430122DA60FA
:10BCB400D3F81824D203FBD4704700004FF080411E
:10BCC40010B5D1F8003163B14FF48070FFF7C2FFB3
:10BCD4000D4B58790122C1F8082310B95A711B6819
:10BCE40098474FF08042D2F8043163B14FF4827028
:10BCF400FFF7B0FF0223C2F80833034BBDE810403E
:10BD04001B680120184710BDB81E002000F18040B8
:10BD140000F5C040002382B0036003680193019BD7
:10BD240002B07047800000F1A040D0F8002722F450
:10BD34004032C0F80027D0F8003743EA0143C0F886
:10BD440000377047C208012300F0070003FA00F02F
:10BD54008B5C1843885470472DE9F04F87B000245A
:10BD6400584D03944FF48072012102F1804303F58E
:10BD7400C04390B21B68012B06D1D5F804330B42A3
:10BD840002D0FFF7C3FF0C430432B2F5907F4FEAB1
:10BD94004101EAD14B4BD3F87C31012B0AD14FF44A
:10BDA400BE70FFF7B3FF4FF0A04344F00044D3F854
:10BDB40010350393E3B2D3B1434F00250126344237
:10BDC40010D0AB0003F1804303F5C043D3F8100552
:10BDD400D3F8101557F8253023B1C1F30141C0F34E
:10BDE400042098470135082D4FEA4606E7D1002C78
:10BDF40060DA00224FF0FF33CDE90423DFF8C88076
:10BE0400DFF8C89000273E4619F9014B631C46D061
:10BE1400C4F3C2030122E5B204F03F0A04F00704AC
:10BE240002FA04F406AA134413F8042C224236D06E
:10BE340008EB0A02AD0992F9302058F822B0BBF1A0
:10BE4400000F08D1032D2AD104A950460193FFF70E
:10BE540079FF019B01E0032DF6D00AF5E0714FF064
:10BE6400A04213F80C3C52F821102342C1F30141C3
:10BE740005D0022913D1032D0BD1294604E003294F
:10BE84000DD1032D05D102215046FFF74BFF01369A
:10BE9400F6B2BBF1000F02D029465046D84701370D
:10BEA400042FB1D136B14FF0A043039AD3F8103523
:10BEB400934202D107B0BDE8F08F0393049B05932E
:10BEC4009EE700BF00600040C01E0020101F00203D
:10BED4000020704770470023435082B043580193B9
:10BEE400019B02B0704700001FB501238DF800309C
:10BEF400054B8DF8080001916846D3E9001290477C
:10BF040005B05DF804FB00BF1C1F00207FB5374A55
:10BF1400D2F82461002E47D010464FF49271FFF7F7
:10BF2400DAFF02238DF80030D2F88034C2F880346E
:10BF34000393D2F83C358DF808302D4BDA68019222
:10BF44000022C3E906226846D3E900129047274835
:10BF5400D0F844316BB14FF4A271FFF7BCFF244B0E
:10BF64009A6932B100229A61D0F83C05D968FFF78A
:10BF7400BBFF1E48D0F82031A3B14FF49071FFF7F6
:10BF8400AAFF1B4B5A696AB1D0F84C158DF80810FA
:10BF9400002299688DF8002001915A616846D3E91E
:10BFA4000012904704B070BDD2F81031002BCED0EF
:10BFB4004FF488711046FFF78EFF0D4BD2F83C0505
:10BFC40099698842C3D1DC69D96864B1D2F8005256
:10BFD40025F02005C2F800521A699C61DA60DE611E
:10BFE400FFF782FFB3E79C61FAE700BF002000403F
:10BFF4001C1F00202DE9F8435D4E90F80480242393
:10C0040003FB0863054693F820300C469146002B49
:10C0140040F0AA8057490068FFF75AFF07460028F6
:10C0240040F0A48022682868511C0BD04FF0A04136
:10C0340001239340C1F8083502F5E0734FF0030C77
:10C0440041F823C061684B1C1FBF01F5E0734FF03A
:10C05400A04C4FF0000E4CF823E0A369C0F824353F
:10C0640094F814C0637DBCF1010F4CEA0303C0F8DB
:10C074006C35C0F80C25C0F814151DD1A268531CEA
:10C084001FBF02F5E0734FF0A0414FF0000C41F8E0
:10C0940023C0E368591C0BD04FF0A04C01219940F8
:10C0A400CCF8081503F5E0714FF0030E4CF821E0CD
:10C0B400C0F80835C0F81025242202FB08F2B31892
:10C0C400C3F804902369B350B9F1000F3BD04FF487
:10C0D4008871227FFFF7FFFE28684FF49071FFF705
:10C0E400FAFE28684FF49271FFF7F5FE28684FF4C2
:10C0F400A271FFF7F0FE2B681F49C3F80413190B54
:10C1040043F30733002BA8BF03F160404FEA5313F6
:10C11400BCBF01F00F0419484FEA4212A8BF00F552
:10C1240061404FEA8303D2B203F16043B4BF0255C6
:10C1340080F8002303F5614301F01F0101228A40C6
:10C14400C3F880211A602B680822C3F80025242331
:10C1540003FB08660023C6E906337361012386F8EE
:10C1640020303846BDE8F8830827FAE71127F8E7B6
:10C174001C1F002011BF01001003020014ED00E099
:10C18400F8B5057900682C4C0023C0F80035242349
:10C1940003FB05435B686BB1284BC0F8083340F3DD
:10C1A4000733C0F304315B0901228A402033244958
:10C1B40041F82320D0F80C65D0F81415D0F80835D0
:10C1C400D0F810254FF0FF37BE42C0F80C7518BFE9
:10C1D40006F5E076C0F81475C0F80875C0F8107557
:10C1E4001EBF4FF0A0474FF0020C47F826C04E1C6C
:10C1F4001FBF4FF0A04601F5E071022746F82170F9
:10C20400511C1FBF4FF0A04102F5E072022641F815
:10C2140022605A1C1FBF03F5E0734FF0A0420221B5
:10C2240042F82310FFF756FE242303FB05440023A2
:10C2340084F820306360F8BD1C1F00201003020046
:10C2440000E100E00279044B242101FB0233586928
:10C25400003818BF012070471C1F00202DE9F84347
:10C2640001F06043B3F1005F06468846914634D13D
:10C27400FFF7E8FF044690BB32791B4F3068242552
:10C2840005FB02754FF49071C5F81490C5F8088049
:10C29400FFF721FE30684FF4AC71FFF71CFE3368E2
:10C2A4006969A868C3F84405C3F848150121996071
:10C2B4006968B1B9D3F82011D3F8580149B90028F5
:10C2C400F8D00F20242303FB027700237B61BDE811
:10C2D400F883002818BF0F20F4E71020F7E7112097
:10C2E400F5E72046F3E700BF1C1F002072DF70470C
:10C2F40073DF704741DF704730B54FF4004193B0AE
:10C304000020FDF7ABF908B1FDF7DAFCFDF7C8F83A
:10C314004FF080430122C3F8782502F0A1FE08B152
:10C32400FDF7CEFC002303A90120039302F06CFF68
:10C3340008B1FDF7C5FC03A803F00EF808B1FDF73A
:10C34400BFFC4C231F4CADF800301F4B029300255B
:10C3540006233C22002103A8ADF8043003F026F99B
:10C3640004231822294620468DF80F308DF80C50EE
:10C37400CDF830D003F01AF9144A65600523237010
:10C3840052F8041B25754FF4486303A8A360A581E4
:10C3940000F04AF908B1FDF793FC0A4A0B490C482E
:10C3A400FFF7A4FF08B1FDF78BFC094B01211878B6
:10C3B400FFF79EFF08B1FDF783FCFFF79BFF20BF4B
:10C3C400FBE700BF401F002031170020201700208A
:10C3D400301700200369C26893429CBF80681B1811
:10C3E400013B981A70472DE9F843D0E902940546B9
:10C3F400A9EB04084068904520440F46144404D92E
:10C4040003F0ABF8EC60BDE8F8834246A4EB090402
:10C4140003F0A3F86868224607EB0801F0E72DE96A
:10C42400F843C5680646894617464FF00008346944
:10C43400B3687068A54228BFE418013C621B5C1B0A
:10C44400BC4228BF3C46944228BF1446494628446F
:10C45400224603F082F8B3682544AB4208BF0025A6
:10C464003F1BA044A144F560E1D14046BDE8F883F8
:10C4740010B5114C114AA2610223C4E90433104BD4
:10C48400E361A2644FF400730E4A0F492362E2642D
:10C4940000231022E01DA3626362E362A365636567
:10C4A400E365226503F0B5F80849204603F0B1F8C6
:10C4B4002023A37110BD00BF3020002061000200C2
:10C4C400B8200020A82000206A0002006E000200AC
:10C4D40070B5164B182400FB04451D4404FB0033BF
:10C4E4001646DC6A012C0ED0022C18D0E4B928467A
:10C4F400FFF770FF864204D832462846FFF773FFE1
:10C504003446204670BD2846FFF764FF8642344611
:10C5140028BF044622462846FFF765FFF1E7284670
:10C52400BDE87040FFF77BBF0024EAE7302000201D
:10C53400FFF79EBF6DDF704779DF70477DDF70477F
:10C5440064DF70472DE9F04F85B000250E9CBDF8DF
:10C554003CB0B4F800A00191074690461E46A94697
:10C564003A884A450DDC45B12388013BA3EB0A0315
:10C574009BB2FF2B3AD806F80A30002005B0BDE87C
:10C58400F08F7A6852F82900039000220DF10B0114
:10C5940003A8FFF7D5FF0028F0D19DF80B204245F2
:10C5A40021D12288002D14BF0020022002EB0801B3
:10C5B400014459451ADC3DB9013292B2019B2280F3
:10C5C400B35422880132228022880DF10B013244B7
:10C5D40003A8FFF7B5FF0028D0D121889DF80B20D0
:10C5E4000A442280012509F10109B9E70C20C5E7B5
:10C5F4002DE9F341089FBDF824801546CDE9007864
:10C60400022204461E46FFF79DFF50B9334610220E
:10C6140029462046CDE9087802B0BDE8F041FFF78D
:10C6240091BF02B0BDE8F0812DE9F04F00231788D7
:10C63400138090F82D3085B006460D46144653B34A
:10C64400082F01D80C204DE102A8FFF773FF002842
:10C6540040F0488123880822EA54238801339BB29E
:10C664001B222380EA542088013080B220800622D5
:10C674000DF10901284402F070FF23889DF8082079
:10C6840006339BB212F0FE0218BF01222380EA5443
:10C69400238801332380B378FBB123880433BB425E
:10C6A400D0D802A8FFF748FF002840F01B81238858
:10C6B4000322EA54238801339BB219222380EA54CB
:10C6C4002388BDF8082001339BB2E9182380EA547B
:10C6D400120A4A70238802332380F2789AB123889D
:10C6E400D91CB942AED80221E954238801339BB244
:10C6F40001212380E95423880B449BB22380EA540C
:10C7040023880B4423807268AAB12388D91CB942B8
:10C7140098D8022192F90020E954238801339BB26E
:10C724000A212380E954238801339BB22380EA54ED
:10C734002388013323803389002B40F0C780338A58
:10C744005BB1CDE900472B460722032106F1100017
:10C75400FFF74EFF002840F0C580338B5BB1CDE975
:10C7640000472B461522142106F11800FFF740FF5D
:10C77400002840F0B780326A002A40F0B680D6F82C
:10C784002480B8F1000F31D0B8F804302188981C07
:10C794008A1C0244BA423FF655AFFE283FF652AF18
:10C7A40003336B54238801339BB2FF222380EA5462
:10C7B400238801339BB22380B8F80020EA54E91897
:10C7C400120A4A702088023080B22080B8F804200F
:10C7D40062B1D8F80810002900F09180284402F0D2
:10C7E400BCFE2388B8F804201344238096F82C3028
:10C7F400002B43D0B36A002B00F081804FF0000877
:10C804004FF00C0A4FF0160BB16A5FFA88F20AFB7C
:10C8140002F201EB0209B9F80430981CFE283FF635
:10C8240011AF208803332B54238801339BB2238018
:10C8340005F803B0238801339BB223808A5AEA5453
:10C84400E918120A4A702088023080B22080B9F8B0
:10C8540004205AB1D9F80810002950D0284402F015
:10C864007CFE2388B9F804201344238096F82C20F6
:10C8740008F101085FFA88F39A42C5D8307888B382
:10C884003388012B3BD0228802F1020CBC453FF6D1
:10C89400D9AE012805D17378023313449F42FFF4C3
:10C8A400D1AE023FBF1ABFB202A905EB0C00ADF82E
:10C8B4000870FFF743FEA8B93378022B58D1BDF8AE
:10C8C4000830BB426DD9ADF8087058E0CDE9004797
:10C8D4002B460622022106F10800FFF789FE0028F4
:10C8E4003FF42DAF05B0BDE8F08FB4F800C00CF1F3
:10C8F4000603BB423FF6A6AE1188052901D80720DE
:10C90400F0E76FF4486E01EB0E039BB24FF27D3EED
:10C914007345F4D95388052BF1D96FF4486018187E
:10C9240080B27045EBD94FF6FF70814201D0994235
:10C93400E5D8052305F80C30238801339BB2122176
:10C944002380E954238801339BB223801188E9545E
:10C95400E818090A4170238802339BB22380528865
:10C96400EA54E918120A4A7023880233238006E73E
:10C97400012BA8D173789F42A5D3ADF808300821C4
:10C98400BDF80830FE2B3FF65DAE22880133AB5470
:10C994002288013292B22280A9542288134423802F
:10C9A400A0E70921ECE770B5C0B14AB116880024AC
:10C9B400B44203D305196D789D4208D0A14201D831
:10C9C40000200BE0055D01352C44A4B2F0E7A14240
:10C9D400F6D9A31C1380005D013880B270BD13B575
:10C9E40013460022ADF806200DF106020446FFF7B7
:10C9F400DAFF10B1BDF80600204402B010BD72DFAA
:10CA0400704773DF704738B5012204460D46B0F80D
:10CA14009810D0F89400FFF7E2FF00B1057004F11C
:10CA24003C0204F1940104F15400BDE83840FFF7DE
:10CA3400E6BF2DE9F04190F8008004460D46B8F1B8
:10CA4400000F00F0068181700020FEF78BFD064682
:10CA540020B1012363700020BDE8F08104F1AA072E
:10CA640001460722384602F0A1FDE38813B1A378FA
:10CA7400012B04D0E3794BB1A378022B06D1636B6D
:10CA8400A3B1012284F8B1200820984704F1AB0235
:10CA940004F1B10112F8013B5BB99142FAD16A1E6B
:10CAA400032A52D8DFE802F0070D111484F8B130DC
:10CAB400ECE74346F3E7A2791AB194F8242002B9CB
:10CAC4005BB9E2790AB1002B41D1237A002B40D122
:10CAD400637A002B0CBF00250425636BA570002B23
:10CAE40039D0033D012D36D86279A2B394F8B2202F
:10CAF4008ABB84F8B420012284F8B3200720984725
:10CB040004F13C0518220021284602F04FFDE26A98
:10CB14000123511E994284F83C3098BFD3B284F863
:10CB2400513094F8243098BF46461BB1BEB1A36A75
:10CB340084F85230A278002384F85030042A1DD897
:10CB4400DFE802F0710F273757000025C5E70225FB
:10CB5400C3E70325C1E7002384F8B330D0E70123FA
:10CB6400E6E7C4E91073C4F8A4300223012284F870
:10CB74003C30802384F83120A4F84830A378002B7B
:10CB840054D1636B002B3FF466AF94F8310098479F
:10CB940061E7022384F83130032384F83C302369AD
:10CBA400A4F848300023C4F8A430E368276463641D
:10CBB400E4E763696364A369A4F848306379B3B1B3
:10CBC40094F8B2309BB994F8B43083B1022384F85A
:10CBD400503004212046FFF716FF0028CED105234C
:10CBE40084F8313004F19403C4F8A430C6E7032375
:10CBF400F6E7E3696364236AA4F84830637983B190
:10CC040094F8B2306BB994F8B43053B1022384F879
:10CC1400503004212046FFF7F6FE0028AED106234B
:10CC2400DEE70423DCE784F83130A7E7D4F8A41066
:10CC34002A4604F15400FFF7E2FE00287FF40CAF0B
:10CC440094F8301094F85400FFF7DBFE002898D0D5
:10CC540002E7082000E70388112B10B50C460AD020
:10CC6400262B1FD0102B05D1C37B012B02D1838827
:10CC7400A1F8A83010BD0022838881F8B220B1F851
:10CC8400A8209A42F6D10B79002BF3D1012120463A
:10CC9400FFF7CFFE0028EDD0A36B002BEAD0BDE850
:10CCA40010401847037A013B012BE3D88978052308
:10CCB4000131B1FBF3F303EB8303C91AC9B2E6E70D
:10CCC4000238012810B50C460DD84B785BB100230F
:10CCD4004B7020468978FFF7ACFE20B1A36B13B1EB
:10CCE400BDE81040184710BD034B1A8882420CBFA0
:10CCF40018460020704700BFD4220020024B9B69D5
:10CD040003B11847704700BFB822002013B50B4683
:10CD1400497A02460E4871B9D0E901101C7A002CF8
:10CD240018BF01465868FDF71FFA78B102B0BDE894
:10CD34001040FFF7E3BF00211972436933B10121A9
:10CD44008DF80410ADF8062001A8984702B010BD74
:10CD5400B82200204B8802889A4212D842889A420C
:10CD64000FD380888B8840F2F311884294BF021A53
:10CD7400421A9A4205D80844984234BF0020012040
:10CD840070470020704700000388122B70B50146DD
:10CD940059D004D8102B1ED0112B44D070BD502B69
:10CDA400FCD12F4BC288DB899A42F7D1038A022B2C
:10CDB400F4D186883046FFF797FF05460028EDD06A
:10CDC40001F1120000F05AF938BB6868FDF714FA53
:10CDD4000028E3D009E0C37B012BDFD14FF6FF70BD
:10CDE400FFF782FF054620B90420BDE87040FFF735
:10CDF40085BF1C4A8E880680002303721368C0F81E
:10CE04000A305368C0F80E3010310A30FFF7A2FF21
:10CE1400134B6872DB89002BC0D129463046BDE82C
:10CE24007040FFF773BF8088FFF75EFF0446002859
:10CE3400B4D04068FDF7E0F908B1FFF75FFF4FF6A3
:10CE4400FF732380AAE786883046FFF74DFF054627
:10CE54000028A3D008310A30FFF77CFF6872DCE7B2
:10CE6400B8220020E8220020F7B5174601900E46AC
:10CE740091B1019C6CB100252C46294601A8FEF70E
:10CE840008F818B13946A8B2B04701340135142D59
:10CE9400F3D1204603B0F0BD0C46FAE773B5019117
:10CEA400019C06466CB100252C46294601A8FDF7D5
:10CEB400F0FF18B106EB440301349D800135142DB5
:10CEC400F3D13046346002B070BD00002DE9F04764
:10CED40003888488112B8CB005463DD01A2B42D090
:10CEE400102B19D1DFF8AC80D8F80830DB4300935D
:10CEF400D8F804106846FDF7F8FF009901A8FFF779
:10CF0400CDFF0DF108090027019B9F4207D3132C85
:10CF140012D90420FCF7D4FE0CB0BDE8F08739F830
:10CF240002AB00260136514608EB8600FDF7A7FF49
:10CF34001D2EF7D10137E7E717482146FDF796FF85
:10CF440016482146FDF792FFEB7B012BE4D01448F1
:10CF54002146FDF78BFFDFE70F4821460CB0BDE803
:10CF6400F047FDF78CBF037A0E481F2B4FEA1315C9
:10CF740021460AD9FDF77AFF022D0B482146EDD050
:10CF84000CB0BDE8F047FDF771BFFDF778FF064828
:10CF94002146E3E7F0220020F8220020F4220020BA
:10CFA400FC22002000230020042300201328014633
:10CFB40002D80248FDF76DBF00207047F42200201C
:10CFC400FFF7F4BF10B50446FFF7F0FF28B1214680
:10CFD4000248BDE81040FDF75CBF10BD00230020EF
:10CFE40070B50A4E054630460C46FDF752FF58B15F
:10CFF4002846FFF7DBFF38B10634294606EB8400E8
:10D00400BDE87040FDF745BF002070BDF022002050
:10D01400F8B50D4C054620460E461746FDF739FF78
:10D0240080B12846FFF7C2FF60B1B01D04EB800059
:10D0340029461FB1BDE8F840FDF718BFBDE8F84028
:10D04400FDF71DBFF8BD00BFF0220020F8B50A4D62
:10D0540004460E46014628461746FDF71AFF48B116
:10D06400043405EB84043A46A0683146BDE8F84030
:10D07400FFF7FABEF8BD00BFF0220020008800F0E0
:10D084000100704710B50446408800F07DFBA08085
:10D094002046BDE8104001F0F5B830B587B005462C
:10D0A4000C461422002101A802F080FA072301A8EB
:10D0B4008DF80430ADF806500394FFF7E3FF07B092
:10D0C40030BD000030B587B005461422002101A808
:10D0D40002F06CFA4FF6FF739D42ADF8065023D070
:10D0E400284600F0FAF91128044617D007D860B191
:10D0F4000B2811D021462846FFF7CFFF03E043F267
:10D1040002039842F6D1002209E00E2301A88DF80B
:10D114000430FFF7B7FFF6E70F23F7E70122034BCD
:10D1240028461978FFF774FF07B030BD6923002043
:10D13400FFF7C8BF024B034918780022FFF786BFE8
:10D144006B23002061D10100024B034918780022AF
:10D15400FFF77CBF6A23002001D2010070B5254E81
:10D1640086B031780446FFF73BFF054600283ED1E0
:10D17400204600F005FA1128014623D008D80628D5
:10D1840022D0082820D078B12046FFF786FF19E086
:10D1940043F20203984215D043F201439842F3D17B
:10D1A4002046FFF78FFF0DE02946142201A802F064
:10D1B400FDF9102301A88DF80430ADF80640FFF7FF
:10D1C40061FF0125012205E0204600F0DDFA00F0B0
:10D1D400F1F90022084B20461978FFF719FF31783E
:10D1E4002A46204606B0BDE87040FFF711BF06B0DE
:10D1F40070BD00BF6C2300206B23002070B500219C
:10D2040086B006461D4801F0C6F90546A0B330466F
:10D2140000F01EF9862801460ED006D8D0B1112898
:10D2240028D03046FFF739FF03E043F20203984267
:10D23400F7D1002425460FE01422002101A802F0B2
:10D24400B5F9062301A88DF80430ADF80660FFF7A0
:10D2540019FFEEE72C460546094B2A461978304655
:10D26400FFF7D6FE44B90548214606B0BDE8704034
:10D2740001F09EB90024EFE706B070BD68230020DA
:10D284006A23002010B50378044673B94088FFF779
:10D2940019FF608800F061F938B1044B608819788F
:10D2A400BDE810400122FFF7B3BE10BD6B23002080
:10D2B40037B50378082B04462CD1417A51BB057A43
:10D2C400072D1BD0082D2AD0012D23D180886A4632
:10D2D400294600F027FEE8B9019B1B78D3B1A0884A
:10D2E40000F078FA4FF6FF73984213D00E4B2A469B
:10D2F4001978FFF78DFEFFF71DFF0BE0808800F023
:10D3040069FA4FF6FF73984204D0084B012219784A
:10D31400FFF77EFE03B0BDE83040FFF715BF0448B9
:10D3240001F046F9F6E700BF6B2300206A230020D2
:10D334006823002010B503888488522B86B016D049
:10D34400542B22D0502B15D1037B012B12D1827A7E
:10D35400012A0FD1018942F6021399420AD11B4BCB
:10D3640020461978FFF754FEFFF7EEFE02E0204650
:10D37400FFF7A8FE164B174918780022FFF766FE40
:10D3840006B0BDE81040FFF7D5BE1422002101A865
:10D3940002F00CF9112320468DF80430ADF8064054
:10D3A40000F0F2F9ADF8080000F004F90A4B204649
:10D3B40019780022FFF72CFE084B2046197800222A
:10D3C400FFF726FE01A8FFF75DFED3E76A230020DE
:10D3D4006923002035D101006C2300206B23002039
:10D3E400AFDF7047B1DF7047B2DF7047B3DF70471C
:10D3F40073B50F4B0F4D93E803006C4684E80300AC
:10D4040000222888214600F07CFE4FF6FF76034672
:10D414002888B04201D0112B01D102B070BD00F0B8
:10D4240062FE00222146288000F06BFE0346EFE7EF
:10D43400780002006E230020044B1A884FF6FF7315
:10D444009A4201D0FFF7D4BF704700BF6E2300207B
:10D454002DE9F743804600F097F94FF6FF739842A1
:10D46400064637D001274FF003093A466B46082198
:10D47400304600F05BFD0137BFB2054628BB019979
:10D484000A46032342F8049B06314046FFF7ACFFEB
:10D49400044648B932460821304600F011FE0446DD
:10D4A400204603B0BDE8F0830C280CD0052800D139
:10D4B4002C460821304600F09FFD002818BF0324A5
:10D4C400002DD2D1ECE70125F3E7072814BF044669
:10D4D4000C24E5E743F20204E2E72DE9F3410746B1
:10D4E40000F052F94FF6FF73984218D10024032537
:10D4F40026464FF001082B46224631463846FFF7B0
:10D5040071FF042821D0082825D00B281ED115F03E
:10D5140002030FD196B9ACB902B0BDE8F0816A46F6
:10D52400082100F0FFFC0028E0D1019B9C881D68C5
:10D534009E1DDEE701254FF00008DCE703251C46AD
:10D544001E46F8E703253446F5E71120B8F1000F2D
:10D5540008BF0B20E0E70020F8E71FB50DF1070333
:10D56400039300F011F902AA012100F0DBFC20B9B9
:10D57400039B187805B05DF804FB0020FAE700006F
:10D5840070B505460A48FFF731FF70B9084C43F2FD
:10D59400030621884FF6FF722846FFF721FFB042A9
:10D5A40004D1238801332380F3E7032070BD00BF37
:10D5B4007023002013B5074A044692E803006B4623
:10D5C40083E8030000221946204600F09AFD02B0C9
:10D5D40010BD00BF8000020046DF704770B5084DE3
:10D5E400084E002431786888FFF7FAFC08B9E0B2E5
:10D5F40070BD0134142C05F10C05F3D1FF20F7E7BD
:10D60400742300207223002010B50A4B19780446B5
:10D61400FFF7E6FC58B1084A00235188A14201D122
:10D62400D8B210BD0133142B02F10C02F5D1FF2046
:10D63400F7E700BF722300207423002010B50C46C6
:10D64400FFF7E2FFFF281FBF0C235843014B1C5276
:10D6540010BD00BF7423002038B505460C4609B937
:10D66400FF2038BD4FF6FF739842F9D00E4B0122CC
:10D674001978FFF7CDFC2846FFF7C6FFFF2803D132
:10D68400FFF7ACFFFF28EBD008490C2242438B186C
:10D694005D804FF6FF758D5222685A60A2881A8108
:10D6A400A2799A72DDE700BF722300207423002060
:10D6B400421E00F10F0312F8010F10B99A42FAD179
:10D6C40070470120704708B570B171B103780A78CA
:10D6D400534013F0FE0F08D106220131013001F04E
:10D6E40004FFB0FA80F0400908BD0020FCE72DE9F2
:10D6F400F04700F101084F1C06460D4600F11109E0
:10D7040001F1110A10223946404601F0EEFE0446AA
:10D71400D0B94046FFF7CCFF18B13846FFF7C8FF31
:10D72400044651464846FFF7CEFF737C03F0FC03E2
:10D73400042B05D06B7C03F0FC03042B18BF0446B8
:10D7440004F00100BDE8F0870024EAE730B585B0B5
:10D7540004460D4600F0F6F902AA0DF10601072071
:10D7640000F0F8F910B94FF6FF700BE0BDF8063081
:10D77400AB42F1D003992046FFF7B9FF0028EBD064
:10D78400BDF8060005B030BD08B5FFF73DFFFF2822
:10D794001DBF0C235843034B4FF6FF7018BF185A94
:10D7A40008BD00BF7423002010B50C46FFF72CFF02
:10D7B400FF280BD0064B0C2202FB00304368236089
:10D7C4000389A380837AA371002010BD0520FCE7A0
:10D7D40074230020084A30B500230C2404FB03F111
:10D7E4008D5A854202D10A44508830BD0133142B2E
:10D7F400F4D14FF6FF70F8E774230020038843B98F
:10D80400821C0A3012F8013B1BB98242FAD1184635
:10D8140070470120704710B50446FFF7EFFF58B179
:10D8240022880B889A4208D108220231A01C01F0F8
:10D834005CFEB0FA80F0400910BD0020FCE71FB583
:10D84400044600F07FF902AA0DF10601072000F05A
:10D8540081F910B94FF6FF7007E00399204646316D
:10D86400FFF7D9FF18B1BDF8060004B010BD039945
:10D8740020462A31FFF7CFFF0028E4D0F3E7FFF773
:10D88400DDBE38B50446FFF7A5FF0546204600F087
:10D89400C7FB4FF6FF718D42044603D010B92846EA
:10D8A400FFF7CCFE204638BD70B58CB014466A46EE
:10D8B4000D4600F11003164613F8011D02F8011B72
:10D8C4009842F9D10D22002104A801F06FFE2B78B3
:10D8D4008DF81F306B788DF81E303046AB788DF89C
:10D8E4001D30FFF779FE9DF82F3023709DF82E3000
:10D8F40063709DF82D30A3700CB070BD30B5037803
:10D9040003F0FE03042B85B004460D4618D1411CD8
:10D91400032201A801F021FE0322211D03A801F026
:10D924001CFE02AA03A92846FFF7BEFF032202A990
:10D9340001A801F0DAFDB0FA80F0400905B030BD6D
:10D944000020FBE730B50388102B93B04AD1041DA7
:10D954000FCC07AD0FC50FCC0FC594E807009DF899
:10D96400203003F0FE03062B85E8070009D000F001
:10D97400E9F89DF82030032B4FEA530204D9022A18
:10D9840039D04FF6FF7410E002AA0DF1060107200A
:10D9940000F0E0F80028F4D0039908A81131FFF74B
:10D9A40092FE0028F0D0BDF80640BDF81C0008A97E
:10D9B400FFF752FE4FF6FF739C4213D0BDF81C00D4
:10D9C4002146FFF73BFEBDF81C30ADF80A3002A833
:10D9D4000023ADF80C408DF8083000F055FC02A887
:10D9E400FFF750FC13B030BD039908A80131FFF7CD
:10D9F40085FF0028D7D102AA0DF10601072000F007
:10DA0400A9F80028F0D1BCE7012804D00438042880
:10DA14008CBF0020012070474FF6FF73438000F055
:10DA24000BBA0000F0B51F4E8BB0002108226846E7
:10DA3400317001F0BBFD4FF6FF7000F0F3FB4FF6C1
:10DA4400FF770446BC4211D0A4F58045ADB26A46C6
:10DA540002A92846FDF780F90A2809D02846FDF7CF
:10DA64003BF9082805460BD1012333700BB0F0BDF8
:10DA7400204600F07DFB204600F0D4FB0446E1E79D
:10DA8400002DF3D0142200210DEB020001F08EFDD5
:10DA9400072305A88DF81430ADF818400795FFF753
:10DAA400BBFFE3E76C24002073B504460D4616461D
:10DAB40000210822684601F079FDA5F58041A4F50E
:10DAC40080406B46324689B280B2FDF72BF90028BC
:10DAD40018BF052002B070BDF0B5FF2887B004461A
:10DAE4000F4615461E4629D80846FFF78DFF28B372
:10DAF40003AA2046FFF7D8FF18B10524204607B033
:10DB0400F0BD01A903A8FDF74FF804460028F4D19D
:10DB1400019BAF705B882B802EB9029B6B6003A8BE
:10DB2400FDF766F8EAE73168B1EB830F4FEA830249
:10DB340006D30299686801F010FDF0E70724DDE7D9
:10DB44000424DBE702480822002101F02FBD00BFB6
:10DB540064240020F0B587B00646FFF755FF0F4652
:10DB640015460446F8B1A6F58040104A03A980B2D0
:10DB7400FDF7E5F818B10024204607B0F0BD01A96F
:10DB840003A8FDF711F80028F5D1019BAE705A885F
:10DB94009B882A8003F58043029A6A6003A83B802D
:10DBA400FDF726F8E8E70124E6E700BF6424002037
:10DBB40008B5034680780A46FFF726FF40B1198866
:10DBC4001046FDF737F8092804D8034B185C08BD44
:10DBD4000720FCE70320FAE79D00020007B5019047
:10DBE40001A8FDF741F8002818BF032003B05DF831
:10DBF40004FB70B588B0FF2804460D4601921E460A
:10DC040043D889780846FFF7FFFE00283DD0A4F5E5
:10DC14008043ADF80830A1F58043ADF80A306B6855
:10DC2400039305AA2B8804932046FFF73DFF05289C
:10DC3400019B13D163B902A905A8FDF73BF8072896
:10DC4400044624D013D8C8B10324204608B070BDBC
:10DC540001AA02A905A8FDF731F8F0E713B101A85C
:10DC6400FDF702F802A905A8FDF72EF8E7E7082852
:10DC74000FD00E2814BF03241124E6E7002EE4D0AD
:10DC8400314605A8FDF775F8DFE70724DDE78624AC
:10DC9400DBE71124D9E74FF6FF7000F051BAFF28F3
:10DCA40008B505D800F052FAFFF7BCFE002008BD05
:10DCB4000720FCE700F070BA00F09ABA00F0B2BA9C
:10DCC40030B50A68064B012A01D9002005E0140189
:10DCD400E55A854202D10A60181930BD0132F2E7D3
:10DCE4008024002037B500230D460446019301A982
:10DCF400FFF7E6FF38B18378AB4206D1837B9B07FD
:10DD040003D183680BB903B030BD019B0133019388
:10DD140001A92046ECE710B5044600F027FB204695
:10DD240001F0FEF82046FFF787FB2046BDE81040CF
:10DD3400FFF7BEBA8378013B072B07D8DFE803F06F
:10DD44000706060606070409142303807047012307
:10DD5400FBE743689B8809339B08F6E770B50E4ED2
:10DD640004460025237BAB420ED84FF6FF73238075
:10DD7400A3700023C4E901334FF47F43A381A37B41
:10DD840023F00303A37370BD617B2944C9B23046F9
:10DD940000F0A1FB0135E5E77024002073B50446CB
:10DDA4008378417B22480025CDE900558DF8023067
:10DDB40000F07AFBF8B1237BA278019003EB830394
:10DDC4009B0068468DF80220ADF80030FFF7B2FFE3
:10DDD4002346014633F8086B62683046FFF709FFB3
:10DDE40011280FD005D840B1072818BF032002B06E
:10DDF40070BD862811D00320F9E7A37B23F0030329
:10DE0400A373F4E7A37B23F0030343F00203A37398
:10DE1400084B01221A702846E9E7A37B23F0030389
:10DE240043F00103A373034B01221A70DFE700BF21
:10DE3400702400206D240020F0B5364FC368BA6802
:10DE4400934287B005461BD0BA6993421AD1012484
:10DE540007EB04102B78304E092B15D0132B36D03A
:10DE6400082B36D16C7A002C33D1002833D0FFF73D
:10DE740075FF2846FFF74FFF33787BB907B0F0BD35
:10DE84000024E5E70020E5E76C7A14BB18B3837B34
:10DE9400846043F00203837301233370BB7B9807D0
:10DEA40003D413F0010305D0BCB11A48FFF776FF81
:10DEB400A8B90123BA7F910702D4D20726D52CB37F
:10DEC4001648FFF76BFF0028D8D0012308E001248F
:10DED400CFE70024CDE70446CBE72346EAE7002357
:10DEE4001B018628FB5AADF808304FF6FF720EBFAF
:10DEF40006230723039001A8ADF806200CBF8DF874
:10DF040004308DF80430FFF706FFB7E7002BB5D1D6
:10DF14003370B3E7802400206D2400209024002077
:10DF2400FFF7B9BE0023FFF7D7BD00002DE9F84382
:10DF340081460F4614469846002B57D0CB1F012B21
:10DF440002D90720BDE8F883531E012BF9D8FFF747
:10DF5400B1FE06460028F4D039464846FFF7C2FE13
:10DF6400054618BBFF214FF6FF70FFF7BBFE0546C1
:10DF7400D0B1A0F8009087706B7BFF2B1BD11D489C
:10DF8400214600F0BDFAFF28687315D14FF6FF73E0
:10DF94002B800023C5E901334FF47F43AB81AB7B76
:10DFA400A87023F00303AB731120CBE7037BA342D8
:10DFB400E2D00F20C6E70026697B0E482C7300F0E0
:10DFC40073FAA8B104EB840424010334C4F38D046C
:10DFD40088F80270C8F80400A8F8004026B1082F99
:10DFE40002D1A400063C84800020ABE70E20A9E700
:10DFF4000320A7E77024002038B5FFF773FE04461A
:10E0040060B1406810B1FFF7E9FD28B9002520464A
:10E01400FFF7A4FE284638BD0325F8E70525F9E7F0
:10E0240037B500240546019401A9FFF749FE58B904
:10E034003CB92846FFF733FE044610B1072818BF41
:10E044000324204603B030BD81782846FFF7D4FF6F
:10E0540010B1052818BF0324019B0133019301A9C2
:10E064002846E2E7CB1F012B73B50D4620D8FFF7F6
:10E0740039FE0446F0B14668F6B9417B0F4800F01A
:10E0840013FACDE900668DF8025070B1237B01903C
:10E0940003EB83039B006846211DADF80030FFF7B6
:10E0A40049FEFFF785FD092800D1032002B070BDA9
:10E0B4000720FBE70520F9E70020F7E7702400209C
:10E0C40038B5CB1F012B0C46154608D8FFF70AFEBE
:10E0D40038B184700580BDE83840FFF75FBE072083
:10E0E40038BD0520FCE7FFF7E7BDFFF7E7BD07B53F
:10E0F40013889B00019301ABFFF7EEFC03B05DF8BE
:10E1040004FB13460022FFF774BD10B54FF6FF73EE
:10E1140004469C4208460AD14FF4807100F065FA27
:10E12400B0F5807F044609D14FF6FF7406E0FF2C5A
:10E13400FAD8214600F02FFA0028F5D0204610BD69
:10E144000149FFF7E2BF00BFA02400204FF6FF7390
:10E15400984210B5044606D00449FFF7D6FF231AA7
:10E164005842584110BD0020FCE700BFC0240020E5
:10E17400FF2810B5044609D80146054800F018FAEE
:10E1840021460448BDE8104000F012BA10BD00BF9B
:10E19400A0240020C0240020FF28014602D8024801
:10E1A40000F03FBA00207047A0240020FF28014659
:10E1B40002D8024800F035BA00207047C02400207D
:10E1C40038B54FF6FF7398420D4602D0441CA4B2F2
:10E1D40000E00024FF2C03D94FF6FF74204638BD1D
:10E1E4002146284600F01DFA0028F7D10134EEE755
:10E1F40070B50B490A4EFFF7E3FF4FF6FF7504466F
:10E20400AC4201D1204670BD2046FFF7CFFF002865
:10E21400F8D020463146FFF7D3FF0446F0E700BFAD
:10E22400A02400200149FFF7CBBF00BFC024002079
:10E23400F8B5074E074F054600243B78A34200DC9F
:10E24400F8BD56F8043B284698470134F5E700BF6B
:10E25400E8240020F7240020074B1B7810B504465F
:10E264004BB1FFF76FFB204600F08AFE2046BDE865
:10E274001040FFF75FB810BDF624002008B1FFF787
:10E28400D7BF7047FFF7D4BFFFF7D2BF2DE9F04FD8
:10E294001C462A4B1B7887B0814688461746002BBC
:10E2A4004AD04FF6FF70FFF71EFF00260123CDE989
:10E2B400036304AA03AB062105460593FFF717FF82
:10E2C400072835D04FF6FF7B5B464FF0FF3AD8B1B5
:10E2D400052817D04FF6FF7295422BD1B9F1000FE4
:10E2E40001D0A9F80030B8F1000F01D0C8F80060DF
:10E2F4000FB1A7F800B00CB1C4F800A0002007B01B
:10E30400BDE8F08F00220392039AB24224BF2B4649
:10E314001646284652453CBFAB4692460193FFF74A
:10E32400E2FE04AA06210546FFF7E1FE019BCEE7C3
:10E334000520E4E70320E2E70820E0E7F6240020D4
:10E3440008B50023064907481A46FFF79FFF28B17E
:10E35400431F58425841044B187008BD0120FAE786
:10E36400E0240020F4240020F8240020F0B5044622
:10E3740087B08088FFF72EFA23786080083B032B50
:10E3840020D8DFE803F002253569637A5BB9414A96
:10E39400116851B1E068814207D113603E4AA188F7
:10E3A4001180E3600EE0012B0CD13C4B1B784BB188
:10E3B400394BA2881B889A4204D1237A062B01D1B7
:10E3C400FFF7BEFF204607B0BDE8F040FFF730BFBF
:10E3D400637A002BF6D12F4A11680029F2D0E06845
:10E3E4008142EFD12E4913600A68013A0A60D8E7E6
:10E3F4002C4F3B786BB90125284B1B7833B1264B46
:10E40400A2881B889A4201D1FFF79AFF002D3ED0C3
:10E41400D8E74FF6FF70FFF766FE4FF6FF7398429A
:10E424000546E8D1FFF761FEA8420646E3D1002580
:10E434001422294601A83D7001F0B8F80C232046A7
:10E444008DF80430ADF80860ADF80660FFF7F0FE13
:10E4540001A8FFF7EDFECFE7124B1A78002AB1D0DE
:10E464000021142201A8197001F0A0F80D238DF8E1
:10E4740004304FF6FF73ADF80830ADF8063020468F
:10E48400A3680393FFF7D4FE01A8FFF7D1FE07B0FA
:10E49400F0BD00BFFC240020F4240020F824002058
:10E4A400E0240020E424002038B50D46044608B9D1
:10E4B400002038BD0368002BFAD040680028F7D04C
:10E4C400FF29F5D000F0ADF80028F1D0E16820680C
:10E4D40001FB0500EDE738B5054680B1036873B16B
:10E4E400406860B1FF290AD08CB2214600F099F847
:10E4F40028B168682146BDE8384000F059B838BDF5
:10E504002DE9F0418846064618B9FF242046BDE8A7
:10E51400F0810368002BF8D04368002BF5D0002766
:10E52400FF24B368FDB2AB42EFD97068294600F00E
:10E5340032F840B1FF2C08BF2C462D1B0135454550
:10E54400E4D00137EDE7FF2C07D1FF24F9E721469A
:10E554003046FFF7C0FF0134E4B2AC42F7D3F4E72E
:10E5640073B504780C4006460D4612D10DF1070030
:10E574008DF80740FBF750FE31789DF807000D42F7
:10E5840002BF0D4335700124FBF76AFE204602B03A
:10E5940070BD0024FAE70A46034640B101F00700C3
:10E5A40001218140C9B203EBD200FFF7D9BF704704
:10E5B40073B50546B8B1C1F3C70401F007030126DA
:10E5C4009E40035D33420ED000230DF107008DF809
:10E5D4000730FBF721FE2B5D9DF8070023EA0606B2
:10E5E4002E55FBF73DFE02B070BD2DE9F0410D46FE
:10E5F400074618B92C462046BDE8F08100264FF0A6
:10E604000108B542B4B2F5D004F0070108FA01F1EB
:10E61400C9B207EBD400FFF7A3FF01360028F0D0FE
:10E62400E9E758B1CB0801F00701C25C012303FA02
:10E6340001F10A4214BF18460020704701207047B8
:10E644007EDF70477FDF704786DF704710B5044672
:10E654004088FFF799F8A0802046BDE8104000F0FC
:10E664002FBC10B586B004461422002101A800F086
:10E674009DFF04230DEB03008DF80430ADF8064034
:10E68400FFF7E4FF06B010BD30B587B005460C4671
:10E694001422002101A800F089FF072301A88DF8A6
:10E6A4000430ADF806500394FFF7D0FF07B030BD37
:10E6B400F0B587B004460F4616460021142201A87F
:10E6C4001D4600F073FF03238DF80430094BADF8A9
:10E6D400064019788DF80C7000222046ADF80E60C3
:10E6E4008DF81050FEF794FC01A8FFF7AFFF07B0B8
:10E6F400F0BD00BF3817002030B5174B87B00D466A
:10E70400012219780446FEF783FC144B2A1E19785B
:10E71400204618BF0122FEF77BFC6B1E5A425A4169
:10E724000F4B20461978FEF773FC0E4B20461978E0
:10E734000022FEF76DFC1422002101A800F036FF30
:10E74400012301A88DF80430ADF806408DF80C5073
:10E75400FFF77CFF07B030BD381700203B170020BF
:10E76400391700203A1700202DE9F041224B0E46BC
:10E77400197804461746FEF733FC00283AD01F4B9D
:10E7840020461978FEF72CFC014680B32046FEF79C
:10E79400FBFF1B4B054619782046FEF721FC194B5D
:10E7A40000281978204614BF4FF001084FF00208E2
:10E7B400FEF716FC50B12846FFF763F83B46324695
:10E7C40041462046BDE8F041FFF772BF4FF6FF73A4
:10E7D4009D42F3D007212846FFF70EFC014600288E
:10E7E400ECD00528EAD02046FFF74EFFE6E73B468B
:10E7F4003246E6E7BDE8F081381700203B170020D9
:10E80400391700203A1700202DE9F04F8BB09346BA
:10E8140006468A46FEF7D4FBDFF85C91074699F872
:10E8240000103046FEF7DCFB20228046002102A8BF
:10E8340000F0BCFE012F0CD1504B00221978304659
:10E84400FEF7E6FBBAF1000F09D185274FF6FF75F5
:10E854003DE0002F40F0878043F202044FE09AF835
:10E864000030DB070CD4464BCDF814B009934FF6B7
:10E87400FF75012F4FF0000729D002AB002228E0DA
:10E884003046FEF781FF4FF6FF7398420546044673
:10E894000CD1FFF745FBA042054634D10324B8F15F
:10E8A400000F2CD02846FEF7ECFF28E0012F2CD1D6
:10E8B400324C30462178FEF793FB30BB3046FFF7ED
:10E8C400D0FE21783046FEF78BFBF0B9852702ABEA
:10E8D400524639463046FFF7B5FE04460028DED1DD
:10E8E400002FDCD1B8F1000F09D099F800103046A0
:10E8F4000122FEF78DFB29463046FEF7C0FF204675
:10E904000BB0BDE8F08F4FF001086B4601220721E0
:10E914002846FFF70BFB11280446C0D0002CBDD1BC
:10E9240021460198502200F041FE01990B463046E1
:10E9340003F8347B029301F1180306934B1C0793ED
:10E9440011310F4BCDF814B00993FEF72DFF0028B9
:10E95400A4D107212846FFF785FB052804469DD04E
:10E9640000289CD185E7BAF1000F7FF478AF8527A2
:10E974004FF6FF7581E700BF3A17002037170020D4
:10E984000025002038B505460C46FEF719FB012882
:10E9940006D144B121462846BDE83840FFF750BEB1
:10E9A40043F2020038BD2046FCE700002DE9F041A7
:10E9B4000388113B88B00446092B5CD8DFE813F0C8
:10E9C4000A005B00190039005B005B005B005B0020
:10E9D4008200F500037A80883D2B41F23D014FF01F
:10E9E400000218BF4FF4885108B0BDE8F041FFF7AA
:10E9F400BBBE8088FEF7E4FA012808D1217AA088FA
:10EA040001F00101C1F10201C9B2FFF775FE34F84A
:10EA1400045F1422002103A800F0C8FD0434052378
:10EA24008DF80C30ADF80E50059403A8FFF70EFED8
:10EA340021E000F110063046FEF701FF4FF6FF73A8
:10EA440098420546A08819D1FEF79EFE0546A08887
:10EA54000021FFF751FE4FF6FF739D4212D10025AE
:10EA640000232946A0881A46FFF7EEFD0146F8B1B7
:10EA7400A088FFF709FE08B0BDE8F0812946FEF73B
:10EA8400FEFEE4E703AA07212846FFF74BFA002815
:10EA9400E5D1049D95F84430DB0701D53435DFE733
:10EAA400314605F14600FEF7B6FE0028F6D1D6E75A
:10EAB400002DE0D1A0882B4641F206022946FFF73B
:10EAC400F7FDD8E7057A8688002D68D13046FEF731
