:020000022000DC
:1060000000000120396202009162020093620200E6
:10601000956202009762020099620200000000008F
:106020000000000000000000000000009B62020071
:106030009D620200000000009F620200A162020057
:106040001D7D0200A7620200317F0200AB620200E8
:10605000AD620200AF620200AD7D0200B3620200D9
:10606000B5620200B7620200B9620200BB620200C0
:10607000BD620200BF620200C1620200C362020090
:10608000C562020011640200C9620200CB62020014
:10609000AD640200CF62020031AE0200D3620200A2
:1060A000D5620200D7620200D9620200DB62020000
:1060B000DD620200DF620200A3620200A36202004E
:1060C000E1620200E3620200E5620200E7620200B0
:0C60D000E9620200EB620200ED620200D7
:1060DC00354936480A1A02D0072291438D46344975
:1060EC0034480A1A06D00722914381F30988022208
:1060FC0082F3148830483149314A00F044F8314871
:10610C003149324A00F03FF831483249324A00F006
:10611C003AF832483249334A00F035F832483349BC
:10612C00334A00F030F833483349344A00F02BF846
:10613C0033483449344A00F026F8344834490022B4
:10614C0000F02CF833483449002200F027F833488B
:10615C003349091A082902DB002202604160314AE6
:10616C0090471F481F49884205D00268043003B489
:10617C00904703BCF7E700208646EC460020002140
:10618C00294A9047FEE7884207D0521A05D0037877
:10619C0001300B700131013AF9D17047884202D0BD
:1061AC0002700130FAE770470000012000E0002087
:1061BC000000012000000120B0B1020034220020B8
:1061CC005A220020F0620200F0620200B2B002001B
:1061DC00B0B10200342200203422002030B1020081
:1061EC0030B1020030B1020030B1020030B1020017
:1061FC0030B1020030B1020030B10200B0B1020087
:10620C00D8B102005C2200205C2200205C2200201D
:10621C0068280020682800206828002068280020B2
:10622C00684800205D6202004D8002000F484FF06C
:10623C000701884385460E4880470E48016841F4A3
:10624C0070010160BFF34F8FBFF36F8FFFF740BF3B
:10625C0009480A490A4A884207D0521A05D00378DD
:10626C0001300B700131013AF9D170470000012067
:10627C003D79020088ED00E01CB1020020220020D4
:10628C0034220020FEE7FEE7FEE7FEE7FEE7FEE72E
:10629C00FEE7FEE7FEE7FEE7FEE7FEE7FEE7FEE7CA
:1062AC00FEE7FEE7FEE7FEE7FEE7FEE7FEE7FEE7BA
:1062BC00FEE7FEE7FEE7FEE7FEE7FEE7FEE7FEE7AA
:1062CC00FEE7FEE7FEE7FEE7FEE7FEE7FEE7FEE79A
:1062DC00FEE7FEE7FEE7FEE7FEE7FEE7FEE7FEE78A
:0462EC00FEE700BF0A
:1062F0001FB50021039001AA44F20100CDE901116C
:1063000000F004F805B05DF804FB000072B6094B1C
:106310001B68DB0700D500BEBFF34F8F0649074B54
:10632000CA6802F4E0621343CB60BFF34F8F00BF33
:10633000FDE700BFF0ED00E000ED00E00400FA052D
:10634000094A537891780133DBB2994208BF0023A0
:10635000117899421FBF03705078182303FB002067
:1063600014BF0430002070475C22002073B505463E
:1063700000240DF107000E468DF8074000F04CFA9E
:106380000DF10600FFF7DCFF90B10670094B9DF898
:10639000062045605A709DF8070000F061FA24B9A4
:1063A000054B4FF48012C3F80021204602B070BDA7
:1063B0000424F0E75C22002000E100E0024B4FF4EF
:1063C0003C6043F00103184730B1020038B50C4B74
:1063D0000C4C4FF40032C3F8802001254FF4803379
:1063E000C4F84833C4F808336560FFF7E7FF064B8D
:1063F000A56000241C60FFF7E1FF044B1C7038BD52
:1064000000E100E000100140782300206923002013
:10641000F8B51F4B1F491B680025C1F84051C1F852
:106420004451C1F84851C1F84C51C1F80051C1F86C
:1064300004514BB3D1F8044517490968641A24F094
:106440007F442F461A68A24209D8A41A15441A7C20
:10645000DE691AB1D3E905201F749047AEB90F4A1F
:106460000F4B11781B788B4205D10133DBB2022B25
:1064700008BF0023137012780A4B43F822500A4BCE
:106480004FF48012C3F80021F8BD3346DAE700BFAD
:106490007C23002000100140782300207523002079
:1064A000742300206C23002000E100E02DE9F04F70
:1064B000A24AA34913780978A24D994285B03CD0ED
:1064C0000133DBB2022B08BF002313709E49127800
:1064D0009E4B0F6853F822003B1823F07F430022A5
:1064E0000B602B6816461446944613B942B12B60D4
:1064F00006E0196881420ED902B12B60091A1960B1
:1065000001272B68DFF84CA201934FF00008BEB9B9
:10651000DFF848B262E0401A0C44D968D3F81CE0B6
:10652000C3F800C031B13A1922F07F42C3E901211A
:10653000DE611E4673460122D7E700263746E0E7B4
:106540003446F669804A63681268DFF814C2A068AE
:10655000991A21F07F41614500F2A8800144216031
:10656000012222742A680023C4E90133E361002A6E
:1065700040F0A5802C60CAE79BF802105A1CD2B2EA
:1065800091428BF8002004BF00228BF800201822D3
:1065900002FB03B32A6819799C68022977D0032982
:1065A00000F08180012919D1207CB8B9D3E9031208
:1065B000A2605A69E2609A69654BA2611B78002B60
:1065C0000CBF0B4603466360BCE78C4200F094802E
:1065D0008946C9690029F8D1002323749BF800304B
:1065E0009BF801209A42C7D12B68B8F1000F04D163
:1065F000019A9A4201D1002F43D0002B79D0D3F8D1
:1066000000A0544D504BD5F804751C68DFF8548138
:106610003E1B98F8003026F07F4603369BB94FF4B6
:106620008033C5F84433C5F804334B4B4FF4003284
:106630004FF00109C3F880211A60C5F80090FFF7F8
:10664000BDFE88F80090B2452CBF5444A41924F034
:106650007F44C5F84045D5F80435DB1B23F07F4364
:10666000E41B033324F07F44A3420AD9D5F8043550
:10667000C5F84035FFF7A2FE374B4FF40032C3F8A0
:106680000021334B00221A7005B0BDE8F08F11468F
:1066900091469FE71174D2690123002AFAD1002B99
:1066A0009CD02A609AE700231946F6E7D31A23F014
:1066B0007F43834234BFC31A0023236050E721681D
:1066C0001368994213D8591A1160E26152E7091A06
:1066D000D8691A4638B1034618688842F7D3401A79
:1066E0001860184613462160E061DC610FE713462D
:1066F000F2E7FFF76BFEC4E74C4511D1D3692B607D
:1067000073B9DFF844E00120CDE90212CAF80800AD
:10671000CEF800300E4B1870FFF750FEDDE9021284
:106720000B68C969C9F81C1011B1086803440B60F3
:106730002B68934218BF4FF001084DE774230020E7
:10674000752300207C230020782300206C23002068
:10675000682300200010014000E100E05C220020DE
:10676000FEFF7F00692300202DE9F743DFF88480D6
:1067700098F8023005460E461746ABB3A0B304297D
:1067800030D9436983B3437C0024012B0DF107000A
:106790000CBF8946A1468DF8074000F03DF80DF189
:1067A0000600FFF7CDFDD8B1012303700F4B456004
:1067B000D3F80435C0E90497C0E902369DF80630E5
:1067C00088F801309DF8070000F04AF824B9084B1A
:1067D0004FF48012C3F80021204603B0BDE8F083D7
:1067E0000424EFE70724F7E70824F5E70010014049
:1067F00000E100E05C220020064A92783AB130B114
:10680000426922B1002202740221FFF7AFBD0820C5
:10681000704700BF5C22002070B5EFF3108672B69F
:106820000C4A946801239CB993600B4B0B4DD3F831
:10683000801029401160C3F88050D3F88410516053
:106840004FF0FF32C3F88420047006B962B670BD01
:106850000370FAE78023002000E100E0FC06FFBDA2
:10686000084B9A6810B55AB150B9EFF3108172B65F
:10687000054A1C6814605C685460986001B962B68F
:1068800010BD00BF8023002000E100E010B50446E9
:1068900022B1108821448C4203D110BD4FF6FF7005
:1068A000F8E743BA14F8010B9BB24340C3F3031259
:1068B000534083EA03335A0102F4FF529BB283EA46
:1068C0000200E8E770B5064D0646002455F8043B83
:1068D0000BB1304698470134042CF7D170BD00BF8E
:1068E00098230020033080B240F2FD33984230B547
:1068F0001FD8124B1A783AB91C895D892C4404447C
:10690000A4B2B4F5806F0AD31A7DA2B99A8BDC8B3E
:106910002244024492B2B2F5806F0CD201220A8066
:106920001446142202FB04335A8910445881002073
:1069300030BD0920FCE70720FAE700BFCC23002088
:106940000B4A0C4B5188142000FB0131CB6833B942
:106950000420496810700122074800F069BE074909
:106960000523137002238B80012209680023F3E7BB
:10697000B0230020CC230020202200200824002067
:1069800007B5002305490093054A0968054808230F
:1069900000F020FE03B05DF804FB00BF08240020D7
:1069A00044B102002022002007B5002301460093D5
:1069B000034A0448082300F00DFE03B05DF804FB11
:1069C0003CB102002022002013B500230C460093A6
:1069D0000146084A0848042300F0FCFD38B907497D
:1069E000142303FB04140123237402B010BD0E20F2
:1069F000FBE700BF38B1020020220020CC2300209A
:106A000037B50A480A4B42689C88196853880325A1
:106A1000033305709BB2002000909B0001EB8401C2
:106A2000044800F0D7FD03B030BD00BFB023002004
:106A3000082400202022002010B50146044800F060
:106A4000FCFC1C220446002104F000FB204610BD83
:106A5000F42300204388033300EB8303994209D3D6
:106A600082884FF6FF739A4206D00088B0FA80F011
:106A700040097047022070470120704738B5144B19
:106A800014220D4602FB00302B68446804F5805147
:106A9000A3B15C88033403EB84048C4215D22368D1
:106AA000013312D02046FFF7D5FF012808D0022875
:106AB0000BD00028F1D12C60012038BD0834ECE760
:106AC0006388033304EB8304E7E70020F5E700BFA6
:106AD000CC230020426873B504460D4662B3234BB5
:106AE000D9688A4228D31B699A4225D812F0030339
:106AF00022D11F490089098988421DD120689168E7
:106B0000884219D11B494868824203D900F5805058
:106B100082420DD389698A420CD901F580518A429B
:106B200008D201222A80B3FA83F0400902B070BD76
:106B30001A46F7E70A23F6E700232B801E46019644
:106B4000288801A9FFF79AFF30B92B8801339BB23F
:106B5000012B2B80F3D9E9E7019B226899689142C8
:106B6000EED16360024B1B892381DFE720220020E6
:106B7000B0230020CC2300202DE9F8431C461C4BF9
:106B80001B7806460F4615466BB372B36CB3DFF83D
:106B900068804FF01409A388012B01D90A2020E056
:106BA00009FB03F318F803302BB9A0882146FFF73F
:106BB00065FF20B92060A3880133A380EBE7236839
:106BC0001EB1998832889142EFD11FB119883A8855
:106BD0009142EAD19A68C5E90023064B1B892B81B3
:106BE0000020BDE8F8830220FBE70520F9E700BF9D
:106BF000A8230020B0230020CC23002008B5074B99
:106C00005888191DFFF73AFF18B1BDE80840FFF793
:106C1000F7BEBDE80840FFF793BE00BFB0230020D9
:106C20002DE9F04FA14FDFF8A89289B00646B8468B
:106C30003B6823B99E48494600F039FC3860D8F8D3
:106C4000005029784B1E052B07D8DFE813F02100F0
:106C500079007900090109015E010F241422002145
:106C600003A804F0F3F941F61D539C4208BF002429
:106C7000D8F8003004941A78013A052A00F2EF811E
:106C8000DFE812F0DB01DF01FF010F021B0225022A
:106C900026B1884B00225A600124DFE72B79032BB1
:106CA0001DD8DFE803F015022A3583490B78022B43
:106CB000084619D00B7D022B4FF0010316D1142288
:106CC0005343C2180020C8545068FFF76DFE03E01C
:106CD00001232B71FFF754FE002800F0BC80754B98
:106CE00000225A600E24B9E70023E8E7714A1370C6
:106CF0000023536041F61D54B0E7704970480023EB
:106D000002222B718A800968012200F091FCE3E7DE
:106D10006A4C00262E712068674DFFF745FE694BCF
:106D2000D4F800C05A8814235343EA18EE5451682B
:106D30002160A188C2F804C011810222A280CBE7A1
:106D4000B5F814A0AA7DDFF870B1AEB1022AEB88C5
:106D500006D9142101FB0AB1DA1C088902440A8110
:106D6000142202FB0ABAC3F57F43BAF80A20FD33A6
:106D70001344AAF80A308FE7142303FB0AB31889D7
:106D80005C6804EB8004062A68D8DFE802F0274D2F
:106D900035431D59040041F61D54AA7DEB88022A93
:106DA00006D9142101FB0AB1DA1C088902440A81C0
:106DB000142202FB0ABAC3F57F43BAF80A20FD3356
:106DC0001344AAF80A3049E73F484049002343608A
:106DD000AB690360FFF77EFE002859D00223AB7534
:106DE000002300930423EA182146354800F0F2FB03
:106DF000002830D00E24D0E72B69002B14BF0323CA
:106E00000123AB750023009305F10C02042304F168
:106E10000801EAE70123AB750022EB8800922A699A
:106E20009B0004F10C01E0E703290CBF05230623B6
:106E3000AB7500230093042305F10802E118D4E7A1
:106E40000623AB75214B19881F4B5868FFF7BCFD13
:106E500004460028A1D109B0BDE8F08F0F249CE7BB
:106E6000002E7FF419AF2B79012B33D0022B3FF486
:106E700041AF002B7FF4F1AE02232B710DF10A011B
:106E8000EB68039303A8CDE90466FFF723FE08B976
:106E90000A24E3E60498BDF80A108388EB8003888F
:106EA0002B81FFF791FD044625E000BFC823002099
:106EB000F4230020A8230020CC2300200824002055
:106EC00020220020B02300208C230020102400204A
:106ED000C02300207F4B03AA3146A81DFFF74CFEBC
:106EE0007C4B044658B999880498FFF76DFD044619
:106EF0000A2C3FF4FFAE002C7FF4B0AEABE70822C3
:106F00003146184604F0A2F8F2E7002E7FF4C4AE32
:106F1000714B1A7BB2B11E731A78013A062A3FF6FA
:106F20009CAE01A151F822F0CF6F0200F56F020074
:106F300013700200197002005B6C02001F700200E7
:106F4000317002001A78072AE6D801A151F822F020
:106F5000716F0200196F0200196F0200976F020033
:106F6000AB6F0200CB6F0200CB6F0200936F020089
:106F70001A895A4901321A8100225A801A730A78F2
:106F8000B2FA82F252099A720A7DB2FA82F2520978
:106F9000DA72012207E0524958688A884088033231
:106FA00002448A8002221A70B6E74C4C5A884C4937
:106FB000142505FB024208685468506088881081D7
:106FC00002228A800C600622EDE70722EBE79A7A1C
:106FD00032B9DA7A8AB900221A705A805A6089E680
:106FE0003E4900229A72CA68002AF2D1097C00291F
:106FF000EFD05A80FFF702FE55E70022DA72374AD7
:10700000116A0029E7D192F82420002AE3D0012256
:10701000EFE7FFF7F5FC46E7FFF792FC43E72F4A5F
:107020005B88142101FB03235868FFF7BDFC3AE796
:1070300000225A60FFF7A4FC35E700238DF80C30DE
:107040000DE001228DF80C201A89ADF818209A88DD
:10705000DB680593ADF81A2000238DF81C3003A8D7
:10706000FFF730FC002649461E48C8F8006000F0D3
:1070700049FA1D48012100F0A1FA00287FF4D8AD9B
:10708000E9E602228DF80C201A89ADF818209A88BA
:10709000ADF81A20DA689B7D05929A1F534253413E
:1070A000DBE703228DF80C20DA88ADF818201A8966
:1070B000DB68ADF81A200593D1E704228DF80C2087
:1070C000DB88ADF818300023ADF81A30F3E705235C
:1070D000B4E700BF14240020B0230020CC230020FC
:1070E00008240020F4230020042400204068FFF737
:1070F00097BD000008B50548012100F047FA18B90E
:10710000BDE80840FFF78CBD08BD00BF0424002087
:107110002DE9F34198460023ADF802303F4B1B7830
:1071200006460D46002B70D0002970D009884FF616
:10713000FF7399426DD06B88002B6AD06B689B07F8
:1071400069D142B92F8969463846FFF7CBFB30B188
:1071500002B0BDE8F08113885788ADF8003001A86F
:10716000FFF76AFC044658B9BDF800302C4A1421D8
:1071700001FB032358890338C01B58810820E7E727
:1071800080F8008000238375BDF8003083826B682F
:1071900003610121234800F005FA2B882381B8F10F
:1071A000030F6B88A38001BF0423A3753368A36119
:1071B000E06000220621E780201DFFF767FB0DF14C
:1071C0000202ADF80200042104F10C00FFF75EFB9F
:1071D000A968ADF80200890068680DF10202FFF7A6
:1071E00055FB01A9ADF8020060810F4800F04FF98E
:1071F0003EB10023E2687360B3720C4B32601B89AE
:107200003381FFF777FF0020A2E70220A0E70520E7
:107210009EE704209CE703209AE700BFA8230020F4
:10722000CC230020C4230020F4230020B02300201E
:107230002DE9F3410D46044668B361B301A9FFF798
:1072400049FC50B36668002206213046B6F8068035
:107250007788FFF71BFB791CADF806000DF10602DD
:10726000890006F10800FFF711FB804517D10D4B8F
:10727000BDF80400142202FB003001210C3000F0A4
:1072800091F963682E600C336B600123A3720020B8
:1072900002B0BDE8F0810520FAE70A20F8E70D20EA
:1072A000F6E700BFCC23002013B50446A8B10DF1CA
:1072B0000601FFF70FFC90B10B4ABDF80630142110
:1072C00001FB0323DA6862B1A27A52B1DA680020C6
:1072D000013ADA60A07202B010BD0520FBE70A2077
:1072E000F9E70620F7E700BFCC2300200B4B1B7803
:1072F00037B504460D4663B168B10DF10601284665
:10730000FFF7F0FA18B9BDF806302380658003B0A6
:1073100030BD0220FBE70520F9E700BFA8230020CD
:10732000104B1B7810B5B3B1B8B10288022A16D839
:107330000D494388142404FB02129C1C51898C4281
:107340000DDAC3F57F43FD330B44538100230380E3
:107350004380184610BD0220FCE70520FAE7042010
:10736000F8E700BFA8230020CC230020022300223E
:10737000FFF7CEBE12B10223FFF7CABE0520704749
:1073800018B103230022FFF7C3BE05207047000099
:10739000104B1B7813B50446ABB14FF6FF73984200
:1073A00013D001A8FFF748FB88B105230370012320
:1073B0000371C48001A9084800F069F8FFF79AFE3C
:1073C000002002B010BD0220FBE70420F9E70820EE
:1073D000F7E700BFA8230020F423002007B5ADF88D
:1073E0000600ADF804100DF1060001A9FFF7C4FB7B
:1073F00003B05DF804FB07B51346ADF806000A4676
:1074000000200DF10601FFF7B7FB03B05DF804FBA8
:1074100007B51346ADF806000A460DF10600002137
:10742000FFF7AAFB03B05DF804FB20B119B10368B4
:107430000B60002070470520704737B550E8013FCA
:107440009DB2C48925448489A54228BF2D1B048987
:10745000A54202BFBFF32F8F002207E0C5EA030554
:1074600040E80154002CE9D14FF001028DF80320CF
:107470000193019B9DF803200B6002F0FF0322B1F2
:107480000B880068184403B030BD1846FBE70A8833
:107490004B889A4209D150E8012FC2EA024240E8E3
:1074A0000123002BF7D1012070470020704737B52A
:1074B00050E8023F1FFAA3F5C488A54202BFBFF3FC
:1074C0002F8F00220DE0C48925448489A54228BF5E
:1074D0002D1BC3EA054540E80254002CE8D14FF0CB
:1074E00001028DF803200193019B9DF803200B609E
:1074F00002F0FF0322B14B880068184403B030BD8E
:107500001846FBE70A884B889A4209D150E8022FB7
:10751000C2EA224240E80223002BF7D10120704743
:107520000020704701F01F024B090121914000EB40
:10753000830000F013B801F01F0301229A404B09A9
:1075400000EB8300D14300F015B84B0901F01F0197
:1075500050F82300C84000F00100704710B5034602
:1075600053E8002F42EA010043E8000494F0000FC2
:10757000F6D110BD10B5034653E8002F02EA010012
:1075800043E8000494F0000FF6D110BD10B5034697
:1075900053E8000F00EB010243E8002494F0000FD1
:1075A000F6D110BD10B5034653E8002F02EB0100E1
:1075B00043E8000494F0000FF6D110BD10B5034667
:1075C00053E8002FA2EB010043E8000494F0000F01
:1075D000F6D110BD2DE9F04108B302B3D0F800E0B8
:1075E000BEF1000F1ED0FBB14568D5F80480B3FB97
:1075F000F8F508FB1535BDB942EA010C1CF0030F84
:1076000014D1C568A94211D34D1EEC180569AC42CE
:107610000CD8DEF80C40A446BDE8F04160470E20CF
:10762000BDE8F0810820FBE70920F9E71020F7E723
:10763000F0B5D8B1D0F800C0BCF1000F18D0CAB175
:107640004768D7F800E00EF1FF370F4214D1C76842
:10765000B94211D304694D1E0EFB0255A5420BD849
:10766000DCF81040A446BDE8F04060470E20F0BDB5
:107670000820FCE70920FAE71020F8E770B550B9B8
:107680000E4D0F4C0026641B1423B4FBF3F4B442DC
:1076900008D1002010E00368002BF1D0BDE8704055
:1076A000DB6918472B6813B901361435EFE7DB693E
:1076B000284698470028F7D070BD00BF2022002040
:1076C0003422002029DF704728DF704770B5036837
:1076D0009E6886B004460D466EB1142200216846AD
:1076E00003F0B4FCA3680593237901952BB1012B1A
:1076F0000DD06846B04706B070BD01238DF800304C
:1077000023690293E368039363690493F1E7022317
:107710008DF80030E3681B030293F5E7034B187AFA
:107720000122B0FA80F05A74400970472C240020DE
:1077300070B5244C244E237A25463BB9234924486E
:10774000FFF7B5FE306008B9606070BD0223346891
:107750002B72237973B1012B24D020460321FFF72C
:10776000B5FF00232B726B6018491948BDE87040C3
:10777000FFF7C8BED4E90523D21AB2F5805FD4E979
:10778000031028BF4FF480529208012A38BF01220B
:1077900019441844FFF796FF50B11128DDD1012399
:1077A0002B72D2E7D4E903031844FFF78DFFF3E708
:1077B0002B7C002BC9D10146BDE87040022000F0AF
:1077C00009B800BF2C2400204424002040240020BD
:1077D0001C24002038B5831E012B45D8234C237A66
:1077E000002B41D0022B09D1032830D0204B00229E
:1077F0001B68E2601A793AB1012A22D0637C7BBB14
:10780000BDE83840FFF794BFD3E905128D1AB5F5EE
:10781000805F94BF521902F580529A619142EDD176
:1078200002284FF0000308BF19462372104B18BFFF
:107830000D211868FFF74AFF0E490F48FFF762FE57
:10784000DCE71A6901321A615B699A42E7E7E3688B
:107850000133082B01D8E360D0E70023E360DFE7C2
:10786000BDE8384003F0BABA38BD00BF2C24002070
:1078700044240020402400201C24002000F0FD03AC
:10788000012B08D1044B00225A74421E5042504131
:107890001874FFF74DBF70472C2400200B684A680E
:1078A0004360934208BF0023016008BF43607047F4
:1078B000436843B10268916852680B449342436045
:1078C00004BF0023436070470C4B1B78062B10D17C
:1078D0000B4B1B681A070CD10A4B186800F0F00319
:1078E000302B08D000F0E000A0F14003584258418E
:1078F0007047002070470120704700BFE00F00F084
:10790000E40F00F0E80F00F0094B1B78062B0CD1B8
:10791000084B1B681A0708D1074B186800F0F000E5
:10792000A0F130035842584170470020704700BF13
:10793000E00F00F0E40F00F0E80F00F008B5FFF7EB
:10794000C3FF28B17D4B7E4A1B68C3F30423136039
:10795000FFF7DAFF10B17B4B7B4A1A60FFF7B4FFE9
:1079600028B17A4B7A4A1B68C3F342331360FFF79E
:10797000CBFF20B1774AD36823F08073D360FFF741
:10798000A3FF40B14FF080430022C3F80C21C3F89D
:107990001021C3F83825FFF7B7FF10B16E4B032253
:1079A0001A60FFF7B1FF40B16C4B05221A6001224B
:1079B0009A6700229A603F225A60694B1B78062B17
:1079C00050D1684B1B6819074CD1674B1B6803F0FB
:1079D000F003502B46D14FF08052644BD2F8041480
:1079E000C3F82015D2F80814C3F82415D2F80C14E3
:1079F000C3F82815D2F81014C3F82C15D2F81414B3
:107A0000C3F83015D2F81814C3F83415D2F81C1482
:107A1000C3F84015D2F82014C3F84415D2F8241442
:107A2000C3F84815D2F82814C3F84C15D2F82C1412
:107A3000C3F85015D2F83014C3F85415D2F83414E2
:107A4000C3F86015D2F83814C3F86415D2F83C14A2
:107A5000C3F86815D2F84014C3F86C15D2F8442462
:107A6000C3F87025FFF730FF28B1414B414A1B682E
:107A700003F04F031360FFF727FF48B14FF0804337
:107A8000D3F80024D20744BF6FF00102C3F80024EA
:107A9000394B1B68062B08D1384B1B68062B01BFDE
:107AA000374A136843F480631360364AD2F888304B
:107AB00043F47003C2F88830BFF34F8FBFF36F8F6A
:107AC0004FF01023D3F80022002A03DBD3F804324E
:107AD000002B2FDA2C4B0122C3F80425D3F8002405
:107AE000002AFBD04FF010221521C2F80012D3F863
:107AF0000024002AFBD04FF010231522C3F80422E3
:107B0000214B1A46D3F800140029FBD00021C3F8FA
:107B10000415D2F80034002BFBD0BFF34F8F194966
:107B20001A4BCA6802F4E0621343CB60BFF34F8F75
:107B300000BFFDE7164B174A1A6008BD240300106A
:107B40004035014074C007400DF0ADBA440200104A
:107B50003C050040F0ED00E0A0050040105600405C
:107B6000E00F00F0E40F00F0E80F00F000C000406C
:107B700058020010E40E00403001001034010010E3
:107B80003C17004000ED00E000E001400400FA0571
:107B9000342200200090D00338B5074C051E04F1B4
:107BA000080318BF1C4623682BB11A6822605B6863
:107BB00028469847F7E738BD5024002020B9054BE8
:107BC00001225A70FFF7E8BF012802D1014A9070E4
:107BD000F8E770474824002020B9034B01225A706F
:107BE000FFF7DABF704700BF4824002038B50B4CC0
:107BF000237883B90A486360A3602361E36000F0DF
:107C000061F8054603F0FAF808B900F067F80123B7
:107C10002370284638BD8525FBE700BF4824002097
:107C2000BD7B020037B50B4C00230DF107008DF82A
:107C30000730FEF7F1FDE368013BE360E56815B945
:107C400000F060F8A5709DF80700FEF709FE03B08C
:107C500030BD00BF48240020012813B508D00328F8
:107C60001CD018B9104B0122C3F8802002B010BDFF
:107C70000E4C00230DF107008DF80730FEF7CCFD08
:107C800023780BB9FFF7B2FFE3689DF807000133D3
:107C9000E3600123A370FEF7E3FDE7E700F01EF8C1
:107CA000FFF7C0FFE2E700BF00E100E0482400204A
:107CB00000F18040002382B0036003680193019BC0
:107CC00002B07047044A137923B9012110609180F2
:107CD00018467047852070475C240020084B1A68BE
:107CE000D20706D4E02283F800230122C3F88021C2
:107CF0001A604FF080430122C3F81825704700BF77
:107D000000E100E0044B01221A604FF08042D2F8FB
:107D10001834DB03FBD470470C000040124B1B6887
:107D200010B573B14FF48070FFF7C2FF4FF080437E
:107D30000122C3F808230D4B587910B95A711B68FA
:107D400098470B4B1B6873B14FF48270FFF7B0FF7D
:107D50004FF080430222C3F80823044BBDE81040D3
:107D60001B680120184710BD000100405C24002062
:107D70000401004000F1804000F5C040002382B0C3
:107D8000036003680193019B02B07047800000F11B
:107D9000A040D0F8002722F44032C0F80027D0F8E5
:107DA000003743EA0141C0F8001770472DE9F04F52
:107DB00087B000245A4D03944FF48072012102F1E0
:107DC000804303F5C04390B21B68012B06D1D5F860
:107DD00004330B4202D0FFF7CDFF0C430432B2F55F
:107DE000907F4FEA4101EAD14E4B1B68012B0AD12B
:107DF0004FF4BE70FFF7BEFF4FF0A04344F00044C5
:107E0000D3F81035039314F0FF0F1AD0464F012614
:107E10000025344210D0AB0003F1804303F5C0438A
:107E2000D3F81005D3F8101557F8253023B1C1F356
:107E30000141C0F3042098470135082D4FEA46065A
:107E4000E7D1002C65DA00214FF0FF33CDE90413B0
:107E5000354D364E4FF00009CA4601274FF0A04875
:107E600016F9013B5A1C45D0C3F3C20106AA5018AB
:107E7000DCB210F8042C03F03F0B03F0070307FA01
:107E800003F31A4236D005EB0B02A40992F9302015
:107E900055F8222052B9032C2CD10DF1100E1EF8EA
:107EA00001C04CEA030C0EF801C001E0032CF4D031
:107EB0000BF5E07110F80C0C58F821101842C1F3C2
:107EC000014105D0022915D1032C0FD1214604E030
:107ED00003290FD1032C09D102215846019209F13F
:107EE0000109FFF753FF019A5FFA89F912B12146A0
:107EF000584690470AF1010ABAF1040FB0D1B9F11E
:107F0000000F06D04FF0A043039AD3F810359342E8
:107F100002D107B0BDE8F08F0393049B059398E767
:107F2000006000407C61004064240020B4240020F4
:107F3000014B1B68184700BFC0240020032811D83C
:107F4000012A0AD101290FD100F10E02D2B20D4B44
:107F500000EB40001A54002070470129F7D0022995
:107F600004D049B1072070470022F8E7054B00EB29
:107F7000400018444270EEE7024B00EB400018440A
:107F80008270E8E7C824002008B501220221002001
:107F9000FFF7D4FF08B1072810D1072202210120E2
:107FA000FFF7CCFF08B1072808D100210A220846B4
:107FB000FFF7C4FF10B1072808BF002008BD00006C
:107FC0000388102B10B502D0112B1ED010BD1A4CF7
:107FD0002168B1B901220846FFF7B0FF08B10728B0
:107FE00024D1072202210120FFF7A8FF08B10728AA
:107FF0001CD1042202210020FFF7A0FF08B10728AE
:1080000014D1236801332360E0E70B4A1368013B76
:108010001360002BDAD1FFF7B7FF0028D6D0074B4B
:108020001B68002BD2D0BDE810401847034B1B68DB
:10803000002BE6D09847E4E7D8240020D424002081
:1080400072DF704773DF704741DF704730B54FF024
:108050008043012293B0C3F8782502F049FE08B1AD
:10806000FEF746F9002303A90120039302F010FF55
:1080700008B1FEF73DF903A802F062FF08B1FEF770
:1080800037F945F255531F4CADF800301E4B0293A3
:10809000002506233C22002103A8ADF8043002F09D
:1080A000D5FF04231822294620468DF80F308DF87D
:1080B0000C50CDF830D002F0C9FF144A656005239A
:1080C000237052F8041B25754FF4486303A8A3607E
:1080D000A58100F099F808B1FEF70AF9094A0B49A1
:1080E0000B48FFF7ADFF08B1FEF702F9084B01217D
:1080F0001878FFF7A7FF08B1FEF7FAF8FFF7A4FF1B
:1081000020BFFBE7DC240020492200203822002089
:10811000482200206DDF704779DF70477DDF7047B0
:1081200064DF70472DE9F04F85B000250E9CBDF847
:108130003CB0B4F800A00191074690461E46A946FF
:108140003A884A450DDC45B12388013BA3EB0A037D
:108150009BB2FF2B3AD806F80A30002005B0BDE8E4
:10816000F08F7A6852F82900039000220DF10B017C
:1081700003A8FFF7D5FF0028F0D19DF80B2042455A
:1081800021D12288002D14BF0020022002EB08011B
:10819000014459451ADC3DB9013292B2019B22805B
:1081A000B35422880132228022880DF10B0132441F
:1081B00003A8FFF7B5FF0028D0D121889DF80B2038
:1081C0000A442280012509F10109B9E70C20C5E71D
:1081D0002DE9F341089FBDF824801546CDE90078CC
:1081E000022204461E46FFF79DFF50B93346102277
:1081F00029462046CDE9087802B0BDE8F041FFF7F6
:1082000091BF02B0BDE8F0812DE9F04F002317883F
:10821000138090F82D3085B006460D46144653B3B2
:10822000082F01D80C2007E102A8FFF773FF0028F0
:1082300040F0028123880822EA54238801339BB24C
:108240001B222380EA542088013080B2208006223D
:108250000DF10901284402F0D0FE23889DF8082082
:1082600006339BB212F0FE0218BF01222380EA54AB
:10827000238801332380B378FBB123880433BB42C6
:10828000D0D802A8FFF748FF002840F0D580238807
:108290000322EA54238801339BB219222380EA5433
:1082A0002388BDF8082001339BB2E9182380EA54E3
:1082B000120A4A70238802332380F2789AB1238805
:1082C000D91CB942AED80221E954238801339BB2AC
:1082D00001212380E95423880B449BB22380EA5474
:1082E00023880B4423807268AAB12388D91CB94221
:1082F00098D8022192F90020E954238801339BB2D7
:108300000A212380E954238801339BB22380EA5455
:108310002388013323803389002B40F08180338A06
:1083200053B1CDE900472B460722032106F1100087
:10833000FFF74EFF00287FD1338B53B1CDE90047C3
:108340002B461522142106F11800FFF741FF0028E3
:1083500072D1326A002A72D1D6F82480B8F1000FA7
:1083600030D0B8F804302188981C8A1C0244BA42E4
:108370003FF658AFFE283FF655AF03336B542388C2
:1083800001339BB2FF222380EA54238801339BB23E
:108390002380B8F80020EA54E918120A4A702088AD
:1083A000023080B22080B8F804205AB1D8F8081002
:1083B00000294ED0284402F020FE2388B8F804207B
:1083C0001344238096F82C30002B7DD1307898B35D
:1083D0003388012B3DD0228802F1020CBC453FF6C8
:1083E00021AF012805D17378023313449F42FFF473
:1083F00019AF023FBF1ABFB202A905EB0C00ADF8DE
:108400000870FFF78BFEB8B93378022B40F09F80DD
:10841000BDF80830BB4240F2B580ADF808709FE06F
:10842000CDE900472B460622022106F10800FFF79E
:10843000CFFE00283FF473AF05B0BDE8F08FB4F86D
:1084400000C00CF10603BB423FF6ECAE11880529D3
:1084500001D80720F0E76FF4486E01EB0E039BB2E2
:108460004FF27D3E7345F4D95388052BF1D96FF453
:108470004860181880B27045EBD94FF6FF70814202
:1084800003D0834201D09942E3D8052305F80C308C
:10849000238801339BB212212380E95423880133BE
:1084A0009BB223801188E954E818090A4170238897
:1084B00002339BB223805288EA54E918120A4A70A8
:1084C00023880233238047E7B36A002BC1D04FF0E3
:1084D00000094FF00C0A4FF0160B96F82C305FFA9B
:1084E00089F293427FF672AFB16A0AFB02F201EBA6
:1084F0000208B8F80430981CFE283FF693AE208896
:1085000003332B54238801339BB2238005F803B037
:10851000238801339BB223808A5AEA54E918120A4D
:108520004A702088023080B22080B8F804205AB106
:10853000D8F8081000298CD0284402F05EFD23886A
:10854000B8F804201344238009F10109C5E7012B81
:108550007FF463AF73789F42FFF45FAFADF80830EC
:108560000821BDF80830FE2B3FF65CAE22880133AF
:10857000AB542288013292B22280A954228813443B
:10858000238059E70921ECE770B5C0B14AB11688DC
:108590000024B44203D305196D789D4208D0A1424E
:1085A00001D800200BE0055D01352C44A4B2F0E7B2
:1085B000A142F6D9A31C1380005D013880B270BDC2
:1085C00013B513460022ADF806200DF1060204464D
:1085D000FFF7DAFF10B1BDF80630E01802B010BDA9
:1085E00072DF704773DF704738B5012204460D46CD
:1085F000B0F89810D0F89400FFF7E2FF00B10570D2
:1086000004F13C0204F1940104F15400BDE8384047
:10861000FFF7E6BFF8B5077804460D46002F00F0D7
:108620000D8181700020FFF729F8014618B1012360
:1086300063700020F8BD04F1AA060722304602F05C
:1086400005FDE38813B1A378012B04D0E3794BB186
:10865000A378022B06D1636BA3B1012284F8B12069
:1086600008209847334604F1B00113F8012F12B9DE
:108670009942FAD117466B1E032B52D8DFE803F05C
:10868000050B0F1284F8B130ECE7A3791BB194F815
:10869000243003B95FB9E3790BB1002F43D1237ABA
:1086A000002B42D1637A002B0CBF00250425636B9D
:1086B000A570002B3BD0033D012D38D86279002AEC
:1086C00035D094F8B22092BB84F8B420012284F80B
:1086D000B3200720984704F13C05182200212846C2
:1086E00002F0B4FCE36A94F82420581E0121022809
:1086F00028BF0B4684F83C1084F8513032B18842D0
:1087000096BFA36A84F8521084F85230A1780023EF
:1087100084F8503004291BD8DFE801F07A0D2538A1
:108720005C000025C3E70225C1E70325BFE700235E
:1087300084F8B330CFE7C4E91063C4F8A43002234F
:10874000012284F83C30802384F83120A4F848309A
:10875000A378002B5FD1636B002B3FF46AAF94F8D2
:108760003100984765E70223002A84F8313014BFAE
:108770000723032384F83C302369A4F848300023FE
:10878000C4F8A430E36826646364E1E76369636462
:10879000A369A4F8483012B1062384F83C30637909
:1087A000B3B194F8B2309BB994F8B43083B10223DA
:1087B00084F8503004212046FFF716FF0028C7D167
:1087C000052384F8313004F19403C4F8A430BFE7E2
:1087D0000323F6E7E3696364236AA4F8483012B11F
:1087E000062384F83C30637983B194F8B2306BB9D6
:1087F00094F8B43053B1022384F850300421204659
:10880000FFF7F2FE0028A3D10623DAE70423D8E716
:1088100084F831309CE7D4F8A4102A4604F15400BF
:10882000FFF7DEFE00287FF405AF94F8301094F8CF
:108830005400FFF7D7FE00288DD0FBE60820F9E6AC
:108840000388112B10B50C460AD0262B1FD0102BF5
:1088500005D1C37B012B02D18388A1F8A83010BDBC
:108860000022838881F8B220B1F8A8209A42F6D17C
:108870000B79002BF3D101212046FFF7CBFE002816
:10888000EDD0A36B002BEAD0BDE810401847037A67
:10889000013B012BE3D8897805230131B1FBF3F3C8
:1088A00003EB8303C91AC9B2E6E70238012810B501
:1088B0000C460DD84B785BB100234B70204689786D
:1088C000FFF7A8FE20B1A36B13B1BDE81040184715
:1088D00010BD0000034B1A8882420CBF18460020CE
:1088E000704700BFE8250020024B9B6903B1184781
:1088F000704700BFCC25002037B50B46497A0F4A98
:1089000071B9D2E901141D7A0246002D18BF214623
:108910005868FDF729FF08B1FFF7E6FF03B030BD47
:10892000002119725369002BF8D00122ADF806001E
:108930008DF8042001A89847F0E700BFCC2500205F
:108940004B8802889A4213D842889A4210D3808872
:108950008A8840F2F313984294BF031AC31A9342D1
:1089600006D800F2F310904234BF00200120704777
:10897000002070470388122B70B5014659D004D8E7
:10898000102B1ED0112B44D070BD502BFCD12F4B7F
:10899000C288DB899A42F7D1038A022BF4D18688F8
:1089A0003046FFF797FF05460028EDD001F1120091
:1089B00000F06AF938BB6868FDF71EFF0028E3D0B5
:1089C00009E0C37B012BDFD14FF6FF70FFF782FF79
:1089D000054620B90420BDE87040FFF785BF1C4A5A
:1089E0008E880680002303721368C0F80A3053682B
:1089F000C0F80E3010310A30FFF7A2FF134B687237
:108A0000DB89002BC0D129463046BDE87040FFF716
:108A100073BF8088FFF75EFF04460028B4D040682B
:108A2000FDF7EAFE08B1FFF75FFF4FF6FF73238003
:108A3000AAE786883046FFF74DFF05460028A3D0F9
:108A400008310A30FFF77CFF6872DCE7CC25002094
:108A5000FC250020F7B5174601900E4691B1019C08
:108A60006CB100252C46294601A8FEF76EFD18B111
:108A70003946A8B2B04701340135142DF3D1204650
:108A800003B0F0BD0C46FAE773B50191019C0646B0
:108A90006CB100252C46294601A8FEF756FD18B1F9
:108AA00006EB440301349D800135142DF3D130468B
:108AB000346002B070BD00002DE9F047038884885F
:108AC000112B8CB005463CD01A2B3FD0102B17D160
:108AD000284EB368DB43009371686846FEF74AFD91
:108AE000009901A8FFF7D0FF0DF108094FF0000829
:108AF000019B984507D3132C13D90420FDF7F8FBED
:108B00000CB0BDE8F08739F802AB002701375146B9
:108B100006EB8700FEF70FFD1D2FF7D108F10108C6
:108B2000E6E715482146FEF7FDFC14482146FEF70E
:108B3000F9FCEB7B012BE3D011482146FEF7F2FC58
:108B4000DEE70D482146FEF7F6FCD9E7037A0D482B
:108B50001F2B4FEA1315214606D9FEF7E3FC022D21
:108B600009482146EAD1EEE7FEF7E5FC0648214632
:108B7000E9E700BF042600200C260020082600207C
:108B80001026002014260020182600201328014655
:108B900002D80248FEF7D9BC002070470826002002
:108BA00007B50190FFF7F2FF019930B10448FEF7D5
:108BB000CCFC002814BF0220012003B05DF804FBA8
:108BC0001026002007B50190FFF7E0FF019928B1BA
:108BD000044803B05DF804EBFEF7B7BC03B05DF8E2
:108BE00004FB00BF1426002070B50A4E054630462F
:108BF0000C46FEF7AAFC58B12846FFF7C7FF38B16C
:108C00000634294606EB8400BDE87040FEF79DBCA3
:108C1000002070BD04260020F8B50D4C0546204606
:108C20000E461746FEF791FC80B12846FFF7AEFFCF
:108C300060B1B01D04EB800029461FB1BDE8F840CB
:108C4000FEF770BCBDE8F840FEF775BCF8BD00BF8C
:108C50000426002073B50B4D019204460E460146D2
:108C60002846FEF772FC50B1043405EB8404019AE7
:108C7000A068314602B0BDE87040FFF7EBBE02B01D
:108C800070BD00BF04260020007800F0010070478E
:108C900010B50446408800F067FBA0802046BDE880
:108CA000104001F007B930B587B005460C461422D4
:108CB000002101A802F0CAF9072301A88DF80430A9
:108CC000ADF806500394FFF7E3FF07B030BD000096
:108CD00030B587B005461422002101A802F0B6F98C
:108CE0004FF6FF739D42ADF8065023D0284600F0A2
:108CF000F2F91128044617D007D860B10B2811D01B
:108D000021462846FFF7CFFF03E043F202039842D3
:108D1000F6D1002209E00E2301A88DF80430FFF7F8
:108D2000B7FFF6E70F23F7E70122034B2846197830
:108D3000FFF772FF07B030BD7D260020FFF7C8BFE8
:108D4000024B034918780022FFF784BF7F260020DA
:108D5000698D0200024B034918780022FFF77ABFA1
:108D60007E260020018E020070B5234E86B0317839
:108D70000446FFF739FF054600283BD1204600F0A6
:108D8000FDF91128014623D008D8062822D008284A
:108D900020D078B12046FFF786FF19E043F20203A6
:108DA000984215D043F201439842F3D12046FFF791
:108DB0008FFF0DE02946142201A802F047F9102385
:108DC00001A88DF80430ADF80640FFF761FF0125DA
:108DD000012205E0204600F0C7FA00F0E9F9002280
:108DE000064B20461978FFF717FF31782A462046B0
:108DF000FFF712FF06B070BD802600207F260020FE
:108E000070B5002186B006461C4801F0C3F905463E
:108E100078B3304600F01AF9862801460ED006D8FD
:108E2000D0B1112827D03046FFF73DFF03E043F2D1
:108E300002039842F7D1002425460FE014220021B6
:108E400001A802F003F9062301A88DF80430ADF85B
:108E50000660FFF71DFFEEE72C460546084B2A4645
:108E600019783046FFF7D8FE1CB90448214601F0B6
:108E7000B6F906B070BD0024F0E700BF7C260020E4
:108E80007E26002010B50378044673B94088FFF7AA
:108E90001FFF608800F05FF938B1044B60881978D3
:108EA000BDE810400122FFF7B7BE10BD7F260020AD
:108EB00037B50378082B04462CD1417A51BB057A8B
:108EC000072D1BD0082D29D0012D23D180886A467B
:108ED000294600F039FEE8B9019B1B78D3B1A08880
:108EE00000F06AFA4FF6FF73984213D00D4B2A46F2
:108EF0001978FFF791FEFFF723FF0BE0808800F061
:108F00005BFA4FF6FF73984204D0074B01221978A1
:108F1000FFF782FEFFF71EFF03B030BD034801F0EC
:108F20005EF9F7E77F2600207E2600207C260020C1
:108F300010B503888488522B86B016D0542B21D0CC
:108F4000502B15D1037B012B12D1827A012A0FD12C
:108F5000018942F6021399420AD11B4B2046197827
:108F6000FFF75AFEFFF7F6FE02E02046FFF7B0FEDD
:108F7000164B174918780022FFF76CFEFFF7E0FE4A
:108F800006B010BD1422002101A802F05FF81123E1
:108F900020468DF80430ADF8064000F0E5F9ADF854
:108FA000080000F005F90B4B204619780022FFF766
:108FB00033FE094B204619780022FFF72DFE01A849
:108FC000FFF766FED4E700BF7E2600207D26002046
:108FD0003D8D0200802600207F260020AFDF7047F5
:108FE000B1DF7047B2DF7047B3DF704773B50F4B27
:108FF0000F4C93E803006D4685E8030000222088AB
:10900000294600F092FE4FF6FF762388B34201D046
:10901000112801D102B070BD184600F078FE002280
:109020002946208000F081FEEFE700BF4CB102002E
:1090300082260020044B1A884FF6FF739A4201D013
:10904000FFF7D4BF704700BF822600202DE9F74309
:10905000804600F089F94FF6FF739842064637D0F4
:1090600001274FF003093A466B460821304600F0CD
:109070006FFD0137BFB2054628BB01990A4603239D
:1090800042F8049B06314046FFF7ACFF044648B95E
:1090900032460821304600F027FE0446204603B041
:1090A000BDE8F0830C280CD0052800D12C460821FF
:1090B000304600F0B3FD002818BF0324002DD2D1A4
:1090C000ECE70125F3E7072814BF04460C24E5E785
:1090D00043F20204E2E72DE9F341074600F044F9C8
:1090E0004FF6FF73984218D10024032526464FF00F
:1090F00001082B46224631463846FFF771FF042807
:1091000021D0082825D00B281ED115F002030FD13D
:1091100096B9ACB902B0BDE8F0816A46082100F00A
:1091200013FD0028E0D1019B9C881D689E1DDEE791
:1091300001254FF00008DCE703251C461E46F8E732
:1091400003253446F5E71120B8F1000F08BF0B20C6
:10915000E0E70020F8E71FB50DF10703039300F0E7
:1091600003F902AA012100F0EFFC20B9039B187853
:1091700005B05DF804FB0020FAE7000070B5054675
:109180000A48FFF731FF70B9084C43F20306218803
:109190004FF6FF722846FFF721FFB04204D1238823
:1091A00001332380F3E7032070BD00BF8426002035
:1091B00013B5074A044692E803006B4683E80300B0
:1091C00000221946204600F0B0FD02B010BD00BFDD
:1091D00054B1020046DF704770B5084D084E0024B8
:1091E00031786888FFF700FD08B9E0B270BD01343E
:1091F000142C05F10C05F3D1FF20F7E78826002099
:109200008626002010B50A4B19780446FFF7ECFCBF
:1092100058B1084A00235188A14201D1D8B210BDEB
:109220000133142B02F10C02F5D1FF20F7E700BF48
:10923000862600208826002038B505460C4609B948
:10924000FF2038BD4FF6FF739842F9D00E4B012234
:109250001978FFF7E1FC2846FFF7D4FFFF2803D178
:10926000FFF7BAFFFF28EBD008490C2242438B18C6
:109270005D804FF6FF758D5222685A60A2881A8170
:10928000A2799A72DDE700BF86260020882600209A
:10929000421E00F10F0312F8010F10B99A42FAD1E1
:1092A00070470120704708B570B171B103780A7832
:1092B000534013F0FE0F08D106220131013001F0B6
:1092C00069FEB0FA80F0400908BD0020FCE72DE9F6
:1092D000F04700F101084F1C06460D4600F1110948
:1092E00001F1110A10223946404601F053FE0446AE
:1092F000D0B94046FFF7CCFF18B13846FFF7C8FF9A
:10930000044651464846FFF7CEFF737C03F0FC034A
:10931000042B05D06B7C03F0FC03042B18BF044620
:1093200004F00100BDE8F0870024EAE730B585B01D
:1093300004460D4600F016FA02AA0DF106010720B8
:1093400000F018FA10B94FF6FF700BE0BDF80630C8
:10935000AB42F1D003992046FFF7B9FF0028EBD0CC
:10936000BDF8060005B030BD08B5FFF74BFFFF287C
:109370001DBF0C235843034B4FF6FF7018BF185AFC
:1093800008BD00BF8826002010B50C46FFF73AFF45
:10939000FF280CD0074B0C2202FB003050F8043F92
:1093A00023608388A3808379A371002010BD0520EA
:1093B000FCE700BF88260020084A30B500230C24B3
:1093C00004FB03F18D5A854202D10A44508830BD16
:1093D0000133142BF4D14FF6FF70F8E788260020F4
:1093E000038843B9821C00F10A0312F8010B10B97B
:1093F0009A42FAD170470120704710B50446FFF732
:10940000EFFF58B122880B889A4208D10822023116
:10941000A01C01F0BFFDB0FA80F0400910BD002093
:10942000FCE71FB5044600F09DF902AA0DF1060104
:10943000072000F09FF910B94FF6FF7007E003997D
:1094400020464631FFF7D9FF18B1BDF8060004B039
:1094500010BD039920462A31FFF7CFFF0028E4D042
:10946000F3E7000010B50C46FFF7CCFEFF281FBF46
:109470000C235843014B1C5210BD00BF882600200E
:1094800070B50446FFF798FF0546204600F0DAFB6A
:109490004FF6FF76B542044609D040B92846FFF79B
:1094A000B1FEFF281FBF0C235843024B1E5220461B
:1094B00070BD00BF8826002070B58CB014466A4687
:1094C0000D4600F11003164613F8011D02F8011BAA
:1094D0009842F9D10D22002104A801F0B7FD2B78A4
:1094E0008DF81F306B788DF81E303046AB788DF8D4
:1094F0001D30FFF76FFE9DF82F3023709DF82E3042
:1095000063709DF82D30A3700CB070BD30B503783A
:1095100003F0FE03042B85B004460D4618D1411C10
:10952000032201A801F069FD0322211D03A801F017
:1095300064FD02AA03A92846FFF7BEFF032202A981
:1095400001A801F027FDB0FA80F0400905B030BD58
:109550000020FBE730B50388102B93B050D1041DD9
:109560000FCC07AD0FC50FCC0FC594E807009DF8D1
:10957000203003F0FE03062B85E8070009D000F039
:10958000F1F89DF82030032B4FEA530204D9022A48
:109590003FD04FF6FF7410E002AA0DF1060107203C
:1095A00000F0E8F80028F4D0039908A81131FFF77B
:1095B0007AFE0028F0D0BDF80640BDF81C0008A9CE
:1095C000FFF73AFE4FF6FF739C4219D0BDF81C001E
:1095D000FFF718FEFF281EBF0C235843114BADF8B0
:1095E0000C4018BF1C52BDF81C30ADF80A3002A860
:1095F00000238DF8083000F05FFC02A8FFF742FC62
:1096000013B030BD039908A80131FFF77FFF002890
:10961000D1D102AA0DF10601072000F0ABF8002815
:10962000F0D1B6E788260020012804D004380428A9
:109630008CBF0020012070474FF6FF73438000F07D
:1096400009BA0000F0B51F4E8BB000210822684611
:10965000317001F0FBFC4FF6FF7000F0FBFB4FF6A2
:10966000FF770446BC4211D0A4F58045ADB26A46EE
:1096700002A92846FDF7CCFE0A2809D02846FDF7A6
:1096800087FE082805460BD1012333700BB0F0BDCF
:10969000204600F081FB204600F0DCFB0446E1E7B9
:1096A000002DF3D0142200210DEB020001F0CEFCBE
:1096B000072305A88DF81430ADF818400795FFF77B
:1096C000BBFFE3E78027002073B504460D4616462E
:1096D00000210822684601F0B9FCA5F58041A4F5F7
:1096E00080406B46324689B280B2FDF777FE002893
:1096F00018BF052002B070BDF0B5FF2887B0044642
:109700000E4615461F4629D80846FFF78DFF28B399
:1097100003AA2046FFF7D8FF18B10524204607B05A
:10972000F0BD01A903A8FDF783FD04460028F4D18C
:10973000019BAE705B882B802FB9029B6B6003A8E6
:10974000FDF7B2FDEAE73968B1EB830F4FEA830218
:1097500006D30299686801F050FCF0E70724DDE7C2
:109760000424DBE702480822002101F06FBC00BF9F
:1097700078270020F0B587B006460F461546FFF75C
:1097800053FF0446F8B1A6F58040104A03A980B201
:10979000FDF731FE18B10024204607B0F0BD01A945
:1097A00003A8FDF745FD0028F5D1019BAE705A884E
:1097B0009B882A8003F58043029A6A6003A83B8055
:1097C000FDF772FDE8E70124E6E700BF78270020F7
:1097D00008B5034680780A46FFF726FF40B119888E
:1097E0001046FDF783FD092804D8034B185C08BD1B
:1097F0000720FCE70320FAE764B1020007B50190F7
:1098000001A8FDF78DFD002818BF032003B05DF807
:1098100004FB70B588B0FF2804460D4601921E4631
:1098200043D889780846FFF7FFFE00283DD0A4F50D
:109830008043ADF80830A1F58043ADF80A306B687D
:10984000039305AA2B8804932046FFF73DFF0528C4
:10985000019B13D163B902A905A8FDF787FD07286D
:10986000044624D013D8C8B10324204608B070BDE4
:1098700001AA02A905A8FDF77DFDF0E713B101A833
:10988000FDF74EFD02A905A8FDF77AFDE7E70828D8
:109890000FD00E2814BF03241124E6E7002EE4D0D5
:1098A000314605A8FDF7C1FDDFE70724DDE7862483
:1098B000DBE71124D9E74FF6FF7000F055BAFF2817
:1098C00008B505D800F056FAFFF7BCFE002008BD29
:1098D0000720FCE700F076BA00F0A2BA00F0BABAAE
:1098E00030B50A68064B012A01D9002005E01401B1
:1098F000E55A854202D10A60181930BD0132F2E7FB
:109900009427002037B500230D460446019301A992
:10991000FFF7E6FF38B18378AB4206D1837B9B0724
:1099200003D183680BB903B030BD019B01330193B0
:1099300001A92046ECE710B5044600F033FB2046B1
:1099400001F036F92046FFF775FB2046BDE81040D0
:10995000FFF7AEBA8378013B072B07D8DFE803F0A7
:10996000070606060607040914230380704701232F
:10997000FBE743689B8809339B08F6E770B50E4EFA
:1099800004460025237BAB420ED84FF6FF7323809D
:10999000A3700023C4E901334FF47F43A381A37B69
:1099A00023F00303A37370BD617B2944C9B2304621
:1099B00000F0A9FB0135E5E78427002037B5044610
:1099C0008378417B21480025CDE900558DF8023090
:1099D00000F082FBF0B1237BA278019003EB8303BC
:1099E0009B0068468DF80220ADF80030FFF7B2FF0B
:1099F0002346626833F8080B6946FFF70AFF11280F
:109A00000FD005D840B1072818BF032003B030BDE0
:109A1000862811D00320F9E7A37B23F00303A37367
:109A2000F4E7A37B23F0030343F00203A373084B83
:109A300001221A702846E9E7A37B23F0030343F0D1
:109A40000103A373024B01221A70DFE78427002071
:109A5000812700202DE9F041374DC368AA68934261
:109A600086B0074618D0AA69934217D1012405EBA6
:109A700004143B78314E092B12D0132B34D0082B11
:109A800008D197F80980B8F1000F03D16CB32046D4
:109A9000FFF774FF002428E00024E8E70024E8E74B
:109AA000787A0028F6D104B3A37BA06043F00203C8
:109AB000A373012333700446AB7B980703D413F0E0
:109AC000010305D0D4B11C48FFF778FFC0B90123CA
:109AD000AA7F910702D4D20729D544B31848FFF7CB
:109AE0006DFF40B101230CE001243846FFF723FF4E
:109AF0003378002BE0D106B0BDE8F0812346E7E7DC
:109B000000231B018628EB5AADF808304FF6FF7290
:109B10000EBF06230723039001A8ADF806200CBF53
:109B20008DF804308DF80430FFF705FFE3E7002BD4
:109B3000E1D13370DFE700BF9427002081270020A8
:109B4000A4270020FFF7B7BE0023FFF7D5BD000014
:109B50002DE9F84381460F4614469846002B56D00F
:109B6000CB1F012B02D90720BDE8F883531E012B20
:109B7000F9D8FFF7AFFE06460028F4D0394648462C
:109B8000FFF7C0FE054618BBFF214FF6FF70FFF739
:109B9000B9FE0546D0B1A0F8009087706B7BFF2B13
:109BA0001BD11D48214600F0C5FAFF28687315D166
:109BB0004FF6FF732B800023C5E901334FF47F4339
:109BC000AB81AB7BA87023F00303AB731120CBE711
:109BD000037BA342E2D00F20C6E70026697B0E4834
:109BE0002C7300F079FAA0B104EB84042401A4B230
:109BF000A40888F80270C8F80400A8F8004026B14C
:109C0000082F02D1A400063C84800020ACE70E207F
:109C1000AAE70320A8E700BF8427002038B5FFF794
:109C200071FE044660B1406810B1FFF7E7FD28B946
:109C300000252046FFF7A2FE284638BD0325F8E799
:109C40000525F9E737B500240546019401A9FFF77A
:109C500047FE58B93CB92846FFF731FE044610B11B
:109C6000072818BF0324204603B030BD817828465A
:109C7000FFF7D4FF10B1052818BF0324019B01335F
:109C8000019301A92846E2E7CB1F012B73B50D46CE
:109C900021D8FFF737FE0446F8B14668FEB9417B8C
:109CA000104800F019FACDE900668DF8025078B13D
:109CB000237B019003EB83039B006846ADF80030E3
:109CC000FFF748FE211D6846FFF782FD092800D1F5
:109CD000032002B070BD0720FBE70520F9E7002054
:109CE000F7E700BF8427002038B5CB1F012B0C46B7
:109CF000154608D8FFF706FE38B184700580BDE828
:109D00003840FFF75BBE072038BD0520FCE7FFF7B2
:109D1000E3BDFFF7E3BD07B513889B00019301ABDB
:109D2000FFF7EAFC03B05DF804FB13460022FFF7DF
:109D300070BD10B54FF6FF7304469C4208460AD129
:109D40004FF4807100F068FAB0F5807F044609D1C5
:109D50004FF6FF7406E0FF2CFAD8214600F01AFAFD
:109D60000028F5D0204610BD0149FFF7E2BF00BF33
:109D7000B42700204FF6FF73984210B5044606D072
:109D80000449FFF7D6FF231A5842584110BD00205E
:109D9000FCE700BFD4270020FF2807B501460AD8FA
:109DA0000190064800F01BFA0199054803B05DF8E0
:109DB00004EB00F014BA03B05DF804FBB4270020F4
:109DC000D4270020FF28014602D8024800F05CBAE0
:109DD00000207047B4270020FF28014602D802481F
:109DE00000F052BA00207047D427002038B54FF653
:109DF000FF73984218BF01300D4614BF84B200248F
:109E0000FF2C03D94FF6FF74204638BD2146284663
:109E100000F03AFA0028F7D10134A4B2F0E70000CC
:109E200070B50B490A4EFFF7E1FF4FF6FF75044688
:109E3000AC4201D1204670BD2046FFF7CDFF00287F
:109E4000F8D020463146FFF7D1FF0446F0E700BFC7
:109E5000B42700200149FFF7C9BF00BFD427002065
:109E6000F8B5074D074E074600243378A34200DCBF
:109E7000F8BD55F8043B384698470134F5E700BF74
:109E8000FC2700200B280020074B1B7810B5044648
:109E90004BB1FFF75FFB204600F0BAFE2046BDE85D
:109EA0001040FFF745B810BD0A28002008B1FFF7A1
:109EB000D7BF7047FFF7D4BFFFF7D2BF2DE9F04FF0
:109EC0001C462C4B1B7887B0814688461746002BD2
:109ED0004DD04FF6FF70FFF71AFF01230026ADF8B3
:109EE000103004AA03AB062105460396ADF81260B4
:109EF0000593FFF710FF072835D04FF6FF7B5B4631
:109F00004FF0FF3AD8B1052817D04FF6FF729542AF
:109F10002BD1B9F1000F01D0A9F80030B8F1000F32
:109F200001D0C8F800600FB1A7F800B00CB1C4F8B8
:109F300000A0002007B0BDE8F08F00220392039A32
:109F4000B24224BF2B461646284652453CBFAB467C
:109F500092460193FFF7DBFE04AA06210546FFF7B0
:109F6000DAFE019BCEE70520E4E70320E2E70820C4
:109F7000E0E700BF0A28002008B50023064907488B
:109F80001A46FFF79BFF28B1431F58425841044B24
:109F9000187008BD0120FAE7F427002008280020E7
:109FA0000C280020F0B5044687B08088FFF704FA3B
:109FB00023786080083B032B20D8DFE803F00221E0
:109FC0003166637A5BB93F4A116851B1E0688142FA
:109FD00007D113603C4AA1881180E3600EE0012B99
:109FE0000CD13A4B1B784BB1374BA2881B889A4255
:109FF00004D1237A062B01D1FFF7BEFF20465DE096
:10A00000637A002BFAD12F4A11680029F6D0E06854
:10A010008142F3D12E4913600A68013A0A60DCE7F5
:10A020002C4F3B7873B90125284B1B7833B1264B55
:10A03000A2881B889A4201D1FFF79EFF002DDDD137
:10A0400007B0F0BD4FF6FF70FFF761FE4FF6FF73EC
:10A0500098420546E7D1FFF75CFEA8420646E2D1EA
:10A0600000251422294601A83D7000F0EFFF0C23C3
:10A0700020468DF80430ADF80860ADF80660FFF7B3
:10A08000EFFE01A8FFF7ECFECEE7124B1A78002A8C
:10A09000B4D00021142201A8197000F0D7FF0D23BD
:10A0A0008DF804304FF6FF73ADF80830ADF8063088
:10A0B0002046A3680393FFF7D3FE01A8FFF7D0FE65
:10A0C000BEE700BF10280020082800200C28002030
:10A0D000F4270020F827002038B50C46054608B9BB
:10A0E000002038BD0368002BFAD040680028F7D064
:10A0F000FF29F5D000F0C8F80028F1D0E9682868F9
:10A1000001FB0400EDE713B5044688B103687BB199
:10A11000406868B1FF290BD089B2019100F0B4F812
:10A12000019928B1606802B0BDE8104000F057B84E
:10A1300002B010BD2DE9F0418846064618B9FF244B
:10A140002046BDE8F0810368002BF8D04368002B5F
:10A15000F5D00027FF24B368FDB2AB42EFD9706899
:10A16000294600F017F840B1FF2C08BF2C462D1BE4
:10A1700001354545E4D00137EDE7FF2C07D1FF2439
:10A18000F9E721463046FFF7BEFF0134E4B2AC42A6
:10A19000F7D3F4E72DE9F3410546F0B1CF0801F01C
:10A1A0000703C45D4FF0010808FA03F10C40CEB27A
:10A1B00013D10DF107008DF80740FCF72DFBEB5D87
:10A1C0009DF807001E4202BF1E43EE554446FCF7B1
:10A1D00047FB204602B0BDE8F0810024F9E773B5E3
:10A1E0000546B8B1C1F3C70401F0070301269E403C
:10A1F000035D33420ED000230DF107008DF80730C8
:10A20000FCF70AFB2B5D9DF8070023EA06062E5596
:10A21000FCF726FB02B070BD2DE9F74F0F4605464F
:10A2200038B14FF000094FF00108B9451FFA89F61F
:10A2300004D13E46304603B0BDE8F08F4FEAD60B5E
:10A2400006F0070315F80B4008FA03F31C405FFA09
:10A2500083FA02D009F10109E7E70DF107008DF853
:10A260000740FCF7D9FA15F80B309DF807001AEAF9
:10A27000030F02BF4AEA030A05F80BA00124FCF70A
:10A28000EFFA002CE6D0D5E758B1CB0801F0070172
:10A29000C25C012303FA01F10A4214BF18460020F0
:10A2A0007047012070477EDF70477FDF704786DF91
:10A2B000704710B504464088FFF756F8A080204646
:10A2C000BDE8104000F044BC10B586B0044614222E
:10A2D000002101A800F0BAFE04230DEB03008DF865
:10A2E0000430ADF80640FFF7E4FF06B010BD30B50E
:10A2F00087B005460C461422002101A800F0A6FEF6
:10A30000072301A88DF80430ADF806500394FFF739
:10A31000D0FF07B030BD0000F0B587B004460F464F
:10A3200016460021142201A81D4600F08FFE0323CB
:10A330008DF80430094BADF8064019788DF80C7093
:10A3400000222046ADF80E608DF81050FEF764FC38
:10A3500001A8FFF7AEFF07B0F0BD00BF50220020FC
:10A3600030B5144B0A1E87B00C4618BF012219786D
:10A370000546FEF751FC631E5A425A410E4B2846D1
:10A380001978FEF749FC0D4B284619780022FEF794
:10A3900043FC1422002101A800F058FE012301A86B
:10A3A0008DF80430ADF806508DF80C40FFF781FFB2
:10A3B00007B030BD5322002051220020522200203D
:10A3C0002DE9F0411E4B0E46197804461746FEF75C
:10A3D0000BFC014680B32046FEF7C6FF194B05462D
:10A3E00019782046FEF700FC174B00281978204604
:10A3F00014BF4FF001084FF00208FEF7F5FB50B113
:10A400002846FFF73DF83B46324641462046BDE828
:10A41000F041FFF781BF4FF6FF739D42F3D0072154
:10A420002846FFF7FBFB01460028ECD00528EAD0C0
:10A430002046FFF75CFFE6E73B463246E6E700BF13
:10A440005322002051220020522200202DE9F04FFB
:10A450008BB0934606468A46FEF7A2FB564C07464B
:10A4600021783046FEF7C0FB20228046002102A85A
:10A4700000F0ECFD012FA1460CD1504B00221978C1
:10A480003046FEF7C9FBBAF1000F09D185274FF618
:10A49000FF753DE0002F40F0878043F202044FE05B
:10A4A0009AF80030DB070CD4454BCDF814B0099373
:10A4B0004FF6FF75012F4FF0000729D002AB0022A5
:10A4C00028E03046FEF750FF4FF6FF7398420546EE
:10A4D00004460CD1FFF736FBA042054634D10324D5
:10A4E000B8F1000F2CD02846FEF7CAFF28E0012F54
:10A4F0002CD1324C30462178FEF776FB30BB30460B
:10A50000FFF7E2FE21783046FEF76EFBF0B98527B3
:10A5100002AB524639463046FFF7C7FE04460028D4
:10A52000DED1002FDCD1B8F1000F09D099F800106E
:10A5300030460122FEF770FB29463046FEF792FFB7
:10A5400020460BB0BDE8F08F4FF001086B460122AA
:10A5500007212846FFF7FCFA11280446C0D0002C3A
:10A56000BDD121460198502200F070FD01990B46A3
:10A57000304603F8347B029301F1180306934B1C19
:10A58000079311310E4BCDF814B00993FEF7FCFE82
:10A590000028A4D107212846FFF776FB05280446AA
:10A5A0009DD000289CD185E7BAF1000F7FF478AFE9
:10A5B00085274FF6FF7581E7522200204F220020A9
:10A5C0001428002038B505460C46FEF7E9FA0128A4
:10A5D00006D144B121462846BDE83840FFF763BEA6
:10A5E00043F2020038BD2046FCE700002DE9F041AF
:10A5F0000388113B8AB00446092B72D8DFE813F0B8
:10A600000A0071001F0048007100710071007100A4
:10A6100098001401037A84883D2B9A4B20461978C0
:10A6200041F23D0518BF4FF48855FEF7DDFA0028CA
:10A6300057D0002229462046FFF7C2FE51E080880D
:10A64000FEF7AEFA012802460FD1257A8D4BA0887D
:10A650001978019005F00105C5F10205EDB2FEF78C
:10A66000DBFA01982946FFF77BFE34F8045F1422D9
:10A6700000210DEB020000F0E9FC043405238DF805
:10A680001430ADF81650079405A8FFF712FE28E025
:10A6900000F110063046FEF7C4FE4FF6FF739842F5
:10A6A0000546A08820D1FEF75FFE0546754BA088C1
:10A6B000197801900122FEF7AFFA01980021FFF707
:10A6C0004FFE4FF6FF739D4212D10025002329460D
:10A6D000A0881A46FFF7EBFD0146F8B1A088FFF706
:10A6E00006FE0AB0BDE8F0812946FEF7BBFEDDE7B5
:10A6F00005AA07212846FFF727FA0028E5D1069D7D
:10A7000095F84430DB0701D53435DFE7314605F1F4
:10A710004600FEF772FE0028F6D1D6E7002DE0D104
:10A72000A0882B4641F206022946FFF7F5FDD8E73F
:10A73000057A8688534F002D67D13046FEF714FE08
:10A74000397880462A463046FEF766FA637A13F077
:10A7500004074DD0072103AB01224046FFF7F8F96B
:10A76000014690B13046FFF7C2FD02238DF8143048
:10A77000637AADF8166013F0040F14BF01230223AF
:10A780008DF81C308DF81D507EE704984FF6FF7150
:10A79000FEF7CCFD4FF6FF739842074665D03A4D61
:10A7A00001463046FEF75EFE29783046FEF71CFA79
:10A7B000002864D13046FFF787FD29783046FEF740
:10A7C00013FA054600285AD1304B30461978FEF767
:10A7D0000BFA0028C9D04046FEF752FEC5E73046C6
:10A7E000FFF785FD00254FF6FF739F42ECD1BCE7D4
:10A7F000264B30461978FEF7F7F905460028B4D005
:10A800004046FEF73DFE3D46AFE7427A397802F01A
:10A81000030230460192FEF7E7F9019A00283FF45F
:10A8200060AF2946304607E7194B80881978FEF754
:10A83000DBF9054600287FF454AFA088FEF7C2F983
:10A840000146A08819B9012341F206026DE70D4BBC
:10A850002A461978FEF7E0F902238DF81430A38810
:10A86000ADF81630ADF81C500EE7424607214046C1
:10A87000FFF73AFA01460028B1D10125B3E73A467D
:10A88000F4E700BF502200204F2200205222002077
:10A890005322002070B586B006460C4615460021AE
:10A8A000142201A800F0D2FB3046ADF80660FEF796
:10A8B0005BFD0D2CADF8080019D103238DF8043091
:10A8C0009DB12B7803F00103C3F10203DBB28DF8D5
:10A8D0000C3000238DF8103041F20113ADF80E302A
:10A8E00001A8FFF7E3FA06B070BD0223EFE7862C5C
:10A8F0000BBF062307238DF804308DF8043018BFF2
:10A900000394EDE730B587B005230D4614468DF866
:10A910000430ADF80600FEF727FDADF8080001A8E9
:10A92000CDE90354FFF7C2FA07B030BD2DE9F04777
:10A93000064686B0174698460D46E1B9444BCDE928
:10A9400004111B68039306AA12E907006B4683E80B
:10A9500007001A4629463046FFF7D4FF3D4BDDF885
:10A9600000901B784BB99DF8093033B9052528466E
:10A9700006B0BDE8F0874FF000093A464946304638
:10A98000FFF720FE8628044622D0A0F11103D3F160
:10A99000000A4AEB030A00222F4B30461978FEF7D3
:10A9A0003BF92E4B524619783046FEF735F9112CFB
:10A9B0001FD8072C10D8002C0CBF00250325B8F198
:10A9C000000FD4D034F00803D1D0112C37D1CEE70A
:10A9D0004FF0000A0122DFE7A4F10803092B06D893
:10A9E000DFE803F03305053305330505050F0325BF
:10A9F000E5E7862C13D043F20205AC4218BF0325CD
:10AA0000DDE7174B2A4619783046FEF705F9154B56
:10AA10003A4619783046FEF7FFF80025A7E7104BB5
:10AA20002A4619783046FEF7F7F80E4B3A46197861
:10AA30003046FEF7F1F82546B8F1000F97D04A46A8
:10AA400021463046FFF726FF91E72546B7E700BFCE
:10AA5000602800205D280020572200205622002078
:10AA6000552200205422002013B50A4B19780446C1
:10AA7000FEF7BAF8084B019019782046FEF7B4F8B3
:10AA8000019A01460123204602B0BDE81040FFF7BD
:10AA90004DBF00BF5422002055220020F0B5244BAA
:10AAA00087B00026CDE904661B68039306AA044616
:10AAB0000D4612E907006B4683E807001A4629464F
:10AAC0002046FFF71FFF1B4B00991A682046FFF72F
:10AAD000BDFC8628054627D0A0F111035F425F41E7
:10AAE0003246154B20461978FEF796F8134B3A4636
:10AAF00019782046FEF790F8114B0022197820466D
:10AB0000FEF78AF80F4B002219782046FEF784F8EA
:10AB100035F0080306D0112D04D0009A29462046AE
:10AB2000FFF7B8FE07B0F0BD37460122D9E700BFF6
:10AB3000602800205428002059220020582200209C
:10AB400057220020562200200021FFF7A7BF000057
:10AB500010B50378052B044606D0122B0AD02046E8
:10AB6000BDE81040FFF7A2B981684088BDE81040F9
:10AB7000FFF794BF0C4B1B689BB10C4B017A1B7801
:10AB800003F0010291420CD8417AC3F34003994289
:10AB900094BF00210121608801230022FFF7C6FE37
:10ABA000DDE70121F7E700BF6028002058280020DA
:10ABB00008B503780B2B0FD8072B1CD90E4B0F4968
:10ABC00018780022FEF746F80D4B0E49187800223F
:10ABD000BDE80840FEF73EB8132B0CD10A4B0749DD
:10ABE00018780022FEF736F8084B0649187800223C
:10ABF000FEF730F8E2E708BD5822002049AB02001A
:10AC00005622002069AA0200592200205722002063
:10AC100008B5FFF7EBFC044B044918780022BDE8A7
:10AC20000840FEF717B800BF5622002069AA0200AC
:10AC300010DF704711DF704713B5044609496846B5
:10AC4000FCF72CFE019808B902B010BDD0E9002134
:10AC50002046904718B16846FCF72AFEF2E711201B
:10AC6000F2E700BF74B1020013B504460749684615
:10AC7000FCF714FE019B0BB902B010BD2046D3E9CE
:10AC8000002190476846FCF713FEF3E78CB1020001
:10AC90000C4A92F816333F2B4FEA53110DD9042971
:10ACA0000BD0094B996821B11A6842F480021A60EE
:10ACB00070474FF480031360704742F20200FBF7C5
:10ACC00017BB00BF00E100E080230020064B9A681C
:10ACD00022B11A6822F480021A607047034B4FF4C5
:10ACE0008002C3F8802070478023002000E100E04C
:10ACF000F7B51C4F3C7894BB1B4E012520463570A0
:10AD0000FFF79AFF112827D02046FFF7ADFF174B1A
:10AD10008DF80340186801900DF10300FBF77CFDEE
:10AD2000134901A8FFF784FF0446B0FA80F04009F8
:10AD300038709DF80300FBF793FD6CB90D4B347030
:10AD40001C700D4BE02283F8162383F81523FFF7C0
:10AD50009FFF2846FFF788FF204603B0F0BD082478
:10AD6000FAE700BF65280020642800206EB10200C9
:10AD70000D6302006628002000E100E0F7B5154FE2
:10AD80003B781BB3144E01203070FFF755FF11289C
:10AD90004FF000051CD00220FFF766FF0DF1070001
:10ADA0008DF80750FBF738FDFFF744FF04469DF888
:10ADB00007003D70FBF754FD2CB93470FFF786FF98
:10ADC0000320FFF751FF204603B0F0BD0824FAE747
:10ADD0002C46F8E76528002064280020054B1B78E6
:10ADE00033B1054B1B780BB1FFF7C8BFFFF780BF2E
:10ADF000082070476428002065280020014B18783F
:10AE0000704700BF6528002007B508496846FCF771
:10AE100045FD019B13B903B05DF804FBD3E90020A5
:10AE200090476846FCF744FDF3E700BF80B102009D
:10AE3000FFF7EABF60DF704769DF704761DF704787
:10AE400030B5114B1B7891B0E3B1104D34240DF1A6
:10AE5000020103A8ADF80240FFF7F0FF70B92946E0
:10AE600001A8FCF71BFD029B002BF0D003A8D3E93F
:10AE70000021904701A8FCF71BFDF4E7052801D04D
:10AE8000FBF736FA11B030BD6728002098B10200F8
:10AE90007FB505460C4600294DD0284B0B600C228F
:10AEA000002101A800F0D2F8012606232268ADF89F
:10AEB000083001A920208DF804508DF80660FFF7B6
:10AEC000BBFF0C22002101A800F0C0F80025226879
:10AED0008DF8056001A94020ADF80650FFF7ACFFE2
:10AEE0000C22294601A800F0B1F822688DF8046010
:10AEF00001A93046FFF7A0FF0C22294601A800F067
:10AF0000A5F84FF4B0632268019301A9A120FFF7CF
:10AF100093FF0C22294601A800F098F89DF8043010
:10AF20002268334301A9A0208DF80430FFF784FF85
:10AF3000284604B070BD0E20FBE700BF2022002091
:10AF400008B5FFF777FF10B9014B01221A7008BD51
:10AF5000672800204BDF70471FB50D4C01A8FFF795
:10AF6000F9FF70B9214602A8FCF798FC039B002B5F
:10AF7000F4D00198D3E90021904702A8FCF798FC8F
:10AF8000F4E7052801D0FBF7B3F904B010BD00BF0A
:10AF9000A4B102007AB370B414460F2A15D9024640
:10AFA0000B4640EA010515F0030F01D0013C0EE00D
:10AFB000194610460432043306680D68AE4204D1C7
:10AFC00010461946043C042CF2D8013C0ED00A4627
:10AFD00003460444114618460133013206780D78C1
:10AFE000AE4203D118461146A342F3D100780B7844
:10AFF000C01A70BC704700207047844640EA0103C5
:10B0000013F0030F18D18446202A0BD32DE9F00743
:10B01000B1E8F807A0E8F807A2F12002202AF7D249
:10B02000BDE8F007042A07D351F8043B40F8043B7D
:10B03000A2F10402042AF7D2002A05D011F8013B3C
:10B0400000F8013B013AF9D1604670478446002A76
:10B050002DD010F0030F04D000F8011B013A26D0C8
:10B06000F7E7C9B241EA012141EA0141202A12D39E
:10B07000A2F120022DE9F0030B460C460D460E46C8
:10B080000F4688468946A0E8FA03203AFBD2BDE87D
:10B09000F00320320BD0042A05D340F8041B043AF5
:10B0A00005D0042AF9D200F8011B013AFBD1604611
:02B0B0007047E7
:10B0B400D577020000000000D97B020000000000E8
:08B0C400AB880200F424002017
:10B0CC00B98A020000000000C17F020000000000ED
:10B0DC0041880200F4240020758902000000000061
:08B0EC00899E02000000000033
:10B0F4007D78020000000000597C0200000000007E
:10B1040041AE02000000000059AF02000000000040
:08B114001D770200000000009D
:10B11C000000000000000000ED70020000000000C4
:04B12C00000000001F
:10B130000338FDD8704700000000FFFFDEC0ADDE21
:10B14000FE011EF1DEC0ADDEFF011EF101000100B7
:10B150005CB102000100010060B1020001000000CA
:10B16000000000000003030303030386030901003A
:10B170000007000014B102001CB10200080000002A
:10B1800004B1020014B1020008000000F4B0020093
:10B1900004B1020008000000CCB00200F4B00200CC
:10B1A00008000000B4B00200CCB0020008000000AB
:10B1B0000090D003AC2500201F000000000000001C
:10B1C00000000000FF0201020304C3181818181839
:06B1D000181818181818E9
:04000003200062393E
:00000001FF
