:020000022000DC
:10600000000001203D6202009562020097620200DA
:10601000996202009B6202009D6202000000000083
:106020000000000000000000000000009F6202006D
:10603000A162020000000000A3620200A56202004B
:106040008D830200AB620200B9870200AF620200DA
:10605000B1620200B362020039860200B762020038
:10606000B9620200BB620200BD620200BF620200B0
:10607000C1620200C3620200C5620200C762020080
:10608000C962020015640200CD620200CF62020004
:10609000B1640200D3620200F9CE0200D7620200AE
:1060A000D9620200DB620200DD620200DF620200F0
:1060B000E1620200E3620200A7620200A76202003E
:1060C000E5620200E7620200E9620200EB620200A0
:0C60D000ED620200EF620200F1620200CB
:1060DC00364937480A1A02D0072291438D46354972
:1060EC0035480A1A06D00722914381F30988022207
:1060FC0082F3148831483249324A00F045F832486C
:10610C003249334A00F040F832483349334A00F000
:10611C003BF833483349344A00F036F833483449B5
:10612C00344A00F031F834483449354A00F02CF840
:10613C0034483549354A00F027F8354835490022AE
:10614C0000F02DF834483549002200F028F8344886
:10615C003449091A082903DB00220260043001606B
:10616C00314A90471F482049884205D002680430C4
:10617C0003B4904703BCF7E700208646EC460020AA
:10618C0000212A4A9047FEE7884207D0521A05D0D0
:10619C00037801300B700131013AF9D17047884214
:1061AC0002D002700130FAE77047000000000120B5
:1061BC0000E00020000001200000012014E102009A
:1061CC0034220020C0220020F4620200F46202009B
:1061DC0030DC020014E102003422002034220020C2
:1061EC00CCDC0200CCDC0200CCDC0200CCDC0200FB
:1061FC00CCDC0200CCDC0200CCDC0200CCDC0200EB
:10620C0014E10200A0E10200C0220020C022002004
:10621C00C0220020D02D0020D02D0020D02D002019
:10622C00D02D0020D04D0020616202007D8E020036
:10623C000F484FF00701884385460E4880470E48AB
:10624C00016841F470010160BFF34F8FBFF36F8F92
:10625C00FFF73EBF09480A490A4A884207D0521A3A
:10626C0005D0037801300B700131013AF9D1704738
:10627C0000000120FD7E020088ED00E0B8DC020089
:10628C002022002034220020FEE7FEE7FEE7FEE796
:10629C00FEE7FEE7FEE7FEE7FEE7FEE7FEE7FEE7CA
:1062AC00FEE7FEE7FEE7FEE7FEE7FEE7FEE7FEE7BA
:1062BC00FEE7FEE7FEE7FEE7FEE7FEE7FEE7FEE7AA
:1062CC00FEE7FEE7FEE7FEE7FEE7FEE7FEE7FEE79A
:1062DC00FEE7FEE7FEE7FEE7FEE7FEE7FEE7FEE78A
:0862EC00FEE7FEE7FEE700BF3C
:1062F4001FB50021039001AA44F20100CDE9011168
:1063040000F004F805B05DF804FB000072B6094B18
:106314001B68DB0700D500BEBFF34F8F0649074B50
:10632400CA6802F4E0621343CB60BFF34F8F00BF2F
:10633400FDE700BFF0ED00E000ED00E00400FA0529
:10634400094A537891780133DBB2994208BF00239C
:10635400117899421FBF03705078182303FB002063
:1063640014BF043000207047C022002073B50546D6
:1063740002A8002400F8014D0E4600F083FA0DF146
:106384000600FFF7DDFF90B106700A4B9DF806206A
:1063940045605A709DF8070000F098FA24B9064B3E
:1063A4004FF48012C3F80021204602B070BD0424CB
:1063B400F0E700BFC022002000E100E0024B4FF4F0
:1063C4003C6043F001031847D0DC020038B50C4BA5
:1063D4000C4C4FF40032C3F8802001254FF4803375
:1063E400C4F84833C4F808336560FFF7E7FF064B89
:1063F400A56000241C60FFF7E1FF044B1C7038BD4E
:1064040000E100E000100140DC230020CD23002047
:10641400F8B51F4B1F491B680025C1F84051C1F84E
:106424004451C1F84851C1F84C51C1F80051C1F868
:1064340004514BB3D1F8044517490968641A24F090
:106444007F442F461A68A24209D8A41A15441A7C1C
:10645400DE691AB11F74D3E905209047AEB90F4B1A
:106464000F4A197813788B4205D10133DBB2022B22
:1064740008BF0023137012780A4B43F822500A4BCA
:106484004FF48012C3F80021F8BD3346DAE700BFA9
:10649400E023002000100140DC230020D82300204A
:1064A400D9230020D023002000E100E02DE9F74F9C
:1064B4009E4A9F49137809789E4D99423CD00133F6
:1064C400DBB2022B08BF002313709B4912789B4B4D
:1064D4000F6853F822003B1823F07F4300220B601F
:1064E4002B6816461446944613B942B12B6006E055
:1064F400196881420ED902B12B60091A19604FF054
:1065040001082B68DFF83CA200930027BEB9DFF82E
:106514003CB260E0401A0C44D968C3F800C0D3F818
:106524001CE031B13A1922F07F42C3E90121DE6156
:106534001E4601227346D7E70026B046E1E73446FB
:10654400F6697D4A63681268DFF804C2A068991A84
:1065540021F07F41614500F2A580014421600122C0
:1065640022742A680023C4E90133E361002A40F05D
:10657400A2802C60CAE75A1C9BF80210D2B2914246
:106584008BF8002004BF00228BF80020182202FBA5
:1065940003B32A6819799C68022974D003297ED030
:1065A400012918D1217CB1B9DA6862601A69A26044
:1065B4005A699B69A361624BE2601B78002BC0D0CF
:1065C4006160BEE79C4200F093809946DB69002B32
:1065D400F8D1002323749BF800309BF801209A42E1
:1065E400C9D12B682FB9009A934202D1B8F1000F98
:1065F40043D0002B79D0D3F800A0524D4E4BD5F8A0
:1066040004751C68DFF84C813E1B98F8003026F0B6
:106614007F4603369BB94FF48033C5F84433C5F83D
:106624000433494B4FF400324FF00109C3F8802181
:106634001A60C5F80090FFF7C1FE88F80090B245D3
:106644002CBF5444A41924F07F44C5F84045D5F820
:106654000435DB1B23F07F43E41B033324F07F4426
:10666400A3420AD9D5F80435C5F84035FFF7A6FE8C
:10667400354B4FF40032C3F80021314B00221A701D
:1066840003B0BDE8F08F13469146A0E71174D269B8
:106694000123002AFAD1002B9DD02A609BE7002316
:1066A4001946F6E7D31A23F07F43834234BFC31A53
:1066B4000023236053E721681368994213D8591AB9
:1066C4001160E26155E7091AD8691A4638B10346E0
:1066D40018688842F7D3401A186018461346216098
:1066E400E061DC6112E71346F2E7FFF76FFEC4E7EF
:1066F4004C450DD1D3692B6053B90F480192012148
:10670400CAF8081003600E4B1970FFF757FE019A80
:10671400E1692368C9F81C1011B1086803440B60CF
:106724002B689A4218BF012753E700BFD8230020E3
:10673400D9230020E0230020DC230020D0230020E4
:10674400CC2300200010014000E100E0C022002022
:10675400FEFF7F00CD23002008B5FFF737FE104B66
:1067640000200B2218809A700E4B18600E4B187084
:106774000E4B18700E4B4FF48012E021C3F88021A9
:1067840083F814131A6002F18042A2F56F22C2F852
:10679400080583F81113074BD2F804251A6008BDC5
:1067A400C0220020E0230020D8230020D923002089
:1067B40000E100E0DC230020074B9B784BB132B1B1
:1067C40028B10368187C20B959745A6170470720AE
:1067D40070470820704700BFC02200202DE9F7430E
:1067E4001D4FBB7805460E4690469BB390B30429D3
:1067F4002ED9436973B3437C02A80024012B00F80B
:10680400014D0CBF8946A14600F03CF80DF106008D
:10681400FFF796FDD0B101230370104B4560D3F808
:106824000435C0E90498C0E902369DF806307B704F
:106834009DF8070000F04AF824B9094B4FF4801280
:10684400C3F80021204603B0BDE8F0830424EFE739
:106854000724F7E70824F5E7C022002000100140D0
:1068640000E100E0064A92783AB130B1426922B1BF
:10687400002202740221FFF779BD0820704700BF8F
:10688400C022002070B5EFF3108672B60C4A9468EB
:1068940001239CB993600B4B0B4DD3F88010294016
:1068A4001160C3F88050D3F8841051604FF0FF3268
:1068B400C3F88420047006B962B670BD0370FAE7A9
:1068C400E423002000E100E0FC06FFBD084B9A68C9
:1068D40010B55AB150B9EFF3108172B6054A1C686D
:1068E40014605C685460986001B962B610BD00BF62
:1068F400E423002000E100E02AB113880144884227
:1069040004D1184670474FF6FF73F7E75BBA10F8E7
:10691400012B9BB25A40C2F30313534083EA03335F
:106924001BB25A0102F4FF5253409BB2E7E7000046
:1069340070B5064E0546002456F824300BB128469F
:1069440098470134042CF7D170BD00BFFC2300200C
:10695400033080B240F2FD33984230B51FD8124B59
:106964001A783AB91C895D892C440444A4B2B4F55C
:10697400806F0AD31A7DA2B99A8BDC8B224402441D
:1069840092B2B2F5806F0CD201220A80144614220E
:1069940002FB04335A8910445881002030BD092079
:1069A400FCE70720FAE700BF302400200B4A0C4B19
:1069B4005188142000FB0131CB6833B904204968A5
:1069C40010700122074801F033B8052306491370FB
:1069D40002238B80012200230968F3E7142400209A
:1069E4003024002020220020F824002007B50023B2
:1069F40005490093054A09680548082300F0EAFFA1
:106A040003B05DF804FB00BFF8240020E4DC0200BE
:106A14002022002007B50023009301460823034ADF
:106A2400034800F0D7FF03B05DF804FBDCDC020090
:106A34002022002013B500230C46009301460423B2
:106A4400074A084800F0C6FF38B9074B142202FB76
:106A540004340123237402B010BD0E20FBE700BFF1
:106A6400D8DC0200202200203024002037B50A4858
:106A74000A4B42689C8819685388032503330570C0
:106A84009BB2002000909B0001EB8401044800F0BD
:106A9400A1FF03B030BD00BF14240020F82400205F
:106AA4002022002010B50146044800F0B4FE1C2248
:106AB4000446002106F09BFC204610BDE42400207F
:106AC4004388033300EB8303994209D382884FF64A
:106AD400FF739A4206D00088B0FA80F040097047EC
:106AE40002207047012070472DE9F8430223DFF8A4
:106AF40060800B800D46174600F5805600F10804AF
:106B04004FF00109B4420FD2236801330CD031464F
:106B14002046FFF7D5FF48B10FB187F8009002284F
:106B24000BD14FF480632B80BDE8F883A368D8F8B9
:106B34000020934201D9C8F800302B8862880333BF
:106B440013442B806388033304EB8304DAE700BF28
:106B540028240020144A142303FB002070B50B687A
:106B640044680D4604F580569BB15C88033403EBFE
:106B74008404B4420BD22368013308D03146204642
:106B8400FFF79EFF012809D005D30228F1D1002088
:106B940003E00834EDE72C60012070BD6388033303
:106BA40004EB8304E5E700BF30240020436873B599
:106BB40005460C466BB3254AD1688B4229D312692A
:106BC400934226D813F0030223D12149008909896D
:106BD40088421ED12868996888421AD11D4948689C
:106BE400834203D900F5805083420ED38A699342CD
:106BF4000DD902F58052934209D20123238000204B
:106C0400B0FA80F0400902B070BD1346F6E70A20DE
:106C1400F6E7002323801E462388012B01D9002098
:106C2400F1E7019601A92088FFF794FF18B923889A
:106C340001332380F0E7019B2A6899689142F1D1DE
:106C44006B60034B1B892B81DDE700BF20220020F2
:106C540014240020302400202DE9F8431C461E4B48
:106C64001B7806460F461546002B30D0002A30D03C
:106C74007CB3DFF86C804FF01409A388012B01D991
:106C84000A201AE009FB03F318F80330BBB1A38808
:106C94000133A380F1E723681EB1998832889142B9
:106CA4000DD11FB119883A88914208D19A68C5E973
:106CB40000230A4B1B892B810020BDE8F883214661
:106CC400A088FFF747FF0028E5D12060DFE7022016
:106CD400F3E70520F1E700BF0C2400201424002072
:106CE4003024002008B5074B191D5888FFF732FFE0
:106CF40018B1BDE80840FFF7B9BEBDE80840FFF78A
:106D040055BE00BF142400202DE9F04FA04FDFF83A
:106D1400A49289B00646B8463B6823B949469D48C3
:106D240000F0B3FD3860D8F8005029784B1E052BCD
:106D340000F21281DFE813F0060076007600060107
:106D440006015D0126B1944B00225A60012424E01F
:106D54002B79032B1DD8DFE803F01502424D8F4930
:106D64000B78022B084631D00B7D022B4FF0010328
:106D74002ED114225343C2180020C8545068FFF780
:106D840049FE03E001232B71FFF730FE002800F0D9
:106D9400D380814B00225A600E241422002103A8C0
:106DA40006F025FB41F61D539C4208BF0024D8F889
:106DB400003004941A78023A042A00F2D381DFE8FE
:106DC40012F0B401C001E301EB01F2010023D0E7AA
:106DD400714A13700023536041F61D54DDE7704976
:106DE4007048002302222B718A800122096800F076
:106DF4001FFECBE76A4C00262E712068674DFFF713
:106E040009FE694BD4F800C05A8814235343EA1886
:106E1400EE5451682160A188C2F804C01181022295
:106E2400A280B3E7B5F814A0AA7DDFF870B1AEB1C3
:106E3400022AEB8806D9142101FB0AB1DA1C08895D
:106E440002440A81142202FB0ABAC3F57F43BAF84A
:106E54000A20FD331344AAF80A3077E7142303FB0E
:106E64000AB318895C6804EB8004062A05D8DFE8B5
:106E740002F0264C34421C5866000F24AA7DEB888D
:106E8400022A06D9142101FB0AB1DA1C088902443A
:106E94000A81142202FB0ABAC3F57F43BAF80A2016
:106EA400FD331344AAF80A3077E7404840490023E9
:106EB4004360AB690360FFF779FE00285AD00223D0
:106EC400AB75002300930423EA182146354800F0EB
:106ED40081FD002830D00E24D0E72B69002B0CBF95
:106EE40001230323AB750023009305F10C02042353
:106EF40004F10801EAE70123AB750022EB88009254
:106F04009B002A6904F10C01E0E7032914BF06235E
:106F14000523AB7500230093042305F10802E1184F
:106F2400D4E70623AB75224B1988204B5868FFF72A
:106F340081FD04460028A1D109B0BDE8F08F41F6D7
:106F44001D549BE7002E7FF401AF2B79012B33D026
:106F540004D3022B3FF440AF0F241EE702232B710E
:106F64000DF10A01EB68039303A8CDE90466FFF76A
:106F74001DFE08B90A2410E70498BDF80A10838896
:106F8400EB8003882B81FFF755FD044627E000BF03
:106F94002C240020E42400200C2400203024002091
:106FA400F82400202022002014240020F0230020B4
:106FB4000425002024240020DFF808A203AA534655
:106FC4003146A81DFFF748FE044660B9BAF804101C
:106FD4000498FFF72FFD04460A2C3FF4FDAE002C65
:106FE4007FF4DBAEA8E708223146504606F0FFF9ED
:106FF400F2E7002E7FF4AAAE6D4B1A7BB2B11E737A
:107004001A78013A062AA7D801A151F822F000BF44
:10701400BB700200E1700200FF7002000571020003
:107024005D6F02000B710200217102001A78072AB9
:10703400E6D801A151F822F05D700200057002004B
:10704400057002008370020097700200B77002009E
:10705400B77002007F7002001A89564901321A8102
:1070640000225A801A730A78B2FA82F252099A728A
:107074000A7DB2FA82F25209DA72012207E04E491D
:1070840058688A884088033202448A8002221A702F
:10709400B6E7484C5A884849142505FB024208685B
:1070A400546850608888108102228A800C6006220D
:1070B400EDE70722EBE79A7A32B9DA7A8AB9002245
:1070C4001A705A805A6087E63A4900229A72CA684E
:1070D400002AF2D1097C0029EFD05A80FFF702FE82
:1070E40053E70022DA72334A116A0029E7D192F891
:1070F4002420002AE3D00122EFE7FFF7B7FC44E79E
:10710400FFF754FC41E706221A702A4A5B881421CF
:1071140001FB03235868FFF77DFC36E707221A704A
:1071240000225A60FFF762FC2FE701228DF80C2041
:107134001A89ADF818209A88DB68ADF81A200593EF
:1071440010E002228DF80C201A89ADF818209A88D4
:10715400ADF81A20DA689B7D05929A1F5342534179
:107164008DF81C3003A8FFF7E3FB002649461348BB
:10717400C8F8006000F0B4FB0121114800F013FCD2
:1071840000287FF4C9ADD7E603228DF80C20DA88F5
:10719400ADF818201A89CFE70422DB888DF80C207B
:1071A400ADF81830DEE705238DF80C30DAE700BFC0
:1071B4001424002030240020F8240020E42400209B
:1071C400F4240020082500204068FFF79DBD00003E
:1071D40008B50121044800F0D0FB18B9BDE8084007
:1071E400FFF792BD08BD00BFF42400202DE9F34150
:1071F40098460023ADF802303E4B1B7806460D46F8
:10720400002B6FD000296FD009884FF6FF73994285
:107214006CD06B88002B69D06B689B0768D142B92E
:107224002F8969463846FFF793FB30B102B0BDE8B9
:10723400F08113885788ADF8003001A8FFF732FCBD
:10724400044658B9BDF800302B4A142101FB03232E
:1072540058890338C01B58810820E7E70023837549
:10726400BDF8003083826B68036180F800800121DF
:10727400224800F08DFB2B882381B8F1030F6B8823
:10728400A38001BF0423A3753368A361E060E78092
:1072940000220621201DFFF72FFB02AF042127F84F
:1072A400060D04F10C003A46FFF726FBA968ADF879
:1072B400020089003A466868FFF71EFB01A9ADF891
:1072C400020060810E4800F0D0FA3EB10023E2686B
:1072D4007360B3720B4B32601B893381FFF778FF05
:1072E4000020A3E70220A1E705209FE704209DE7F3
:1072F40003209BE70C2400203024002028240020B5
:10730400E42400201424002008B5084B1A68042A39
:1073140009D01968064A42F821000121184600F0F4
:1073240037FB002008BD0C20FCE700BF002500202F
:10733400FC2300202DE9F04F89B01422002103A87A
:1073440006F055F87B4A137803F0FF01009190464C
:107354003BB103A8FFF7ECFA0026304609B0BDE8BC
:10736400F08F101D00F02AFB05460028F4D14FF0E1
:1073740010234FF080525B6911695269DFF8DCA178
:10738400581C08BF02FB01F3CAF810300022A3F511
:1073940040536949CAF80C30504600F012FB0646C7
:1073A4000028DAD11C238C226449654800F0FEF9D8
:1073B4003746B3464FF003093446CDF804A0019B89
:1073C400D9680BEB010002465BF80110002835D0A8
:1073D4005C4B994232D141685B4B994215D00133E1
:1073E40099422BD1009BDFF86CA1002B59D10022CC
:1073F4005649CAF80000FFF777FBBAF80420022ABE
:1074040014BF0822042217433AE051494FF0140CE8
:107414000CFB04FC01EB0C024FF0000E01F80CE035
:1074240050600CF110020CF1080C0A446144FFF79F
:107434005BFB47F002070134A4B221E000F5805C55
:107444001168013167D104329445F9D1414A116878
:1074540029B9022101231060918000930EE01422C7
:1074640062433B4B4FF0020E991803F802E03A4A8C
:10747400486054800134A1F808E0A4B247F0010741
:107484000BF5805BBBF5405F99D1B9F1010F88BF63
:107494003D46EDB2022D02D0062D12D0DDB90B26E9
:1074A4005BE72B4B1422624399184FF0020C03F84C
:1074B40002C00134DAF800204A60A1F808C0A4B27E
:1074C40095E7012388F8003003A80023C8F80430A6
:1074D400FFF72EFA41E702A8FFF7E4FAC8B1012347
:1074E400013D03700A2D09D8DFE805F006080608F7
:1074F400070807080F110F000023037102A91048A1
:1075040000F0B3F9FFF764FE27E70323F5E702234E
:10751400F3E7082621E70E491422624301EB020C2B
:1075240009F1FF39CCF8040003201FFA89F98854C3
:1075340081E700BF0C240020F8DC0200582400205E
:10754400E4240020DEC0ADDEFE011EF1FC24002098
:1075540030240020F82400201424002020220020BD
:107564002DE9F3410E46054660B359B301A9FFF76F
:107574001DFB48B36C68002206212046B4F806803F
:107584006788FFF7B9F902AA791C22F8020D89006D
:1075940004F10800FFF7B0F9804517D10C4BBDF892
:1075A4000400142202FB003001210C3000F0F0F939
:1075B4006B6834600C3373600123AB72002002B03B
:1075C400BDE8F0810520FAE70A20F8E70D20F6E788
:1075D4003024002013B50446A8B10DF10601FFF7CD
:1075E400E5FA90B10B4ABDF80630142101FB0323E0
:1075F400DA6862B1A27A52B1DA680020013ADA603C
:10760400A07202B010BD0520FBE70A20F9E70620AE
:10761400F7E700BF302400200B4B1B7837B5044636
:107624000D4663B168B10DF106012846FFF790F9E4
:1076340018B9BDF806302380658003B030BD022040
:10764400FBE70520F9E700BF0C240020104B1B7852
:1076540010B5B3B1B8B10288022A16D80D494388CF
:10766400142404FB02129C1C51898C420DDAC3F5CC
:107674007F43FD330B44538100230380438018462A
:1076840010BD0220FCE70520FAE70420F8E700BF5C
:107694000C2400203024002002230022FFF7A6BD82
:1076A40012B10223FFF7A2BD0520704718B10323CE
:1076B4000022FFF79BBD052070470000104B1B788C
:1076C40013B50446ABB14FF6FF73984213D001A82B
:1076D400FFF7E8F988B10523037001230371C4801F
:1076E40001A9084800F0C1F8FFF772FD002002B0BC
:1076F40010BD0220FBE70420F9E70820F7E700BFEC
:107704000C240020E42400200E4B1B7807B5A3B101
:1077140001A8FFF7C7F990B10623037001A90A482D
:1077240000F0A3F8094B1A780AB101221A73FFF783
:107734004FFD002003B05DF804FB0220FAE70820A7
:10774400F8E700BF0C240020E424002014240020C7
:1077540007B5ADF8060002A820F8041D01460DF196
:107764000600FFF779FA03B05DF804FB13B502AC29
:10777400134624F8020D0A4600202146FFF76CFA4E
:1077840002B010BD13B502AC134624F8020D0A462C
:1077940020460021FFF760FA02B010BD20B119B1F4
:1077A40003680B60002070470520704710B561B175
:1077B400B2FBF3F403FB1424A4B244B9C0E90014EB
:1077C40084608281C381204610BD0E20FCE709201D
:1077D400FAE782B050E8022FC188B2EB324F4FF083
:1077E400000317BF92B241EA014142EA014104E0B9
:1077F4004268B2EB324F08BF012340E80212002A6C
:10780400E8D18DF807309DF80730002B0CBF11200C
:10781400002002B0704737B550E8013F9DB2C489DB
:1078240025448489A54228BF2D1B0489A54202BF93
:10783400BFF32F8F002207E0C5EA030540E8015497
:10784400002CE9D14FF001028DF803200193019B34
:107854009DF803200B6002F0FF0322B10B8800683F
:10786400184403B030BD1846FBE70A884B889A4297
:1078740009D150E8012FC2EA024240E80123002B5B
:10788400F7D1012070470020704737B550E8023F18
:107894001FFAA3F5C488A54202BFBFF32F8F0022AD
:1078A4000DE0C48925448489A54228BF2D1BC3EA61
:1078B400054540E80254002CE8D14FF001028DF850
:1078C40003200193019B9DF803200B6002F0FF034A
:1078D40022B14B880068184403B030BD1846FBE75A
:1078E4000A884B889A4209D150E8022FC2EA224200
:1078F40040E80223002BF7D1012070470020704795
:1079040001F01F024B090121914000EB830000F0BC
:107914001EB801F01F0301229A404B0900EB8300BB
:10792400D14300F01FB84B0901F01F0150F82300A8
:10793400C84000F00100704750E8002F42EA0103FC
:1079440040E8003C9CF0000FF6D11046704750E828
:10795400003F43EA010240E8002C9CF0000FF6D1FE
:107964001046704750E8003F03EA010240E8002C4B
:107974009CF0000FF6D11046704750E8002F02EB40
:10798400010340E8003C9CF0000FF6D1104670471C
:1079940050E8003F03EB010240E8002C9CF0000F8C
:1079A400F6D11046704750E8003FA3EB010240E8CF
:1079B400002C9CF0000FF6D1104670470121FFF710
:1079C400BBBF0B4620B11BB1036011461B681847AF
:1079D4000E2070472DE9F04108B302B3D0F800E05F
:1079E400BEF1000F1ED0FBB14768D7F80480B3FB8B
:1079F400F8F708FB1737BFB942EA010C1CF0030F74
:107A040014D1C768B94211D34C1E05691C44AC4259
:107A14000CD8DEF80C40A446BDE8F04160470E20C7
:107A2400BDE8F0810820FBE70920F9E71020F7E71B
:107A3400F0B5D8B1D0F800C0BCF1000F18D0CAB16D
:107A44004768D7F800E00EF1FF370F4214D1C7683A
:107A5400B94211D34C1E05690EFB0244AC420BD84B
:107A6400DCF81040A446BDE8F04060470E20F0BDAD
:107A74000820FCE70920FAE71020F8E72DE9F04197
:107A840008B10368C3B90E4E0E4B14229B1B00248D
:107A9400B3FBF2F3374602FB03F5A54201D1002004
:107AA40008E03B5930190BB91434F6E7DB69984701
:107AB4000028F9D0BDE8F081DB69BDE8F041184742
:107AC400202200203422002029DF704728DF70475D
:107AD40070B503689D6886B004460E466DB11422E5
:107AE4000021684605F083FCA36805932379019679
:107AF4002BB1012B0DD06846A84706B070BD0123F9
:107B04008DF8003023690293E36803936369049357
:107B1400F1E702238DF80030E3681B030293F5E7D5
:107B24000846704700207047024B187A003018BF8F
:107B340001207047AC250020034B187A0122B0FACB
:107B440080F05A7440097047AC25002008B51046EF
:107B54001A4605F023FC002008BD000008B51422D5
:107B64000021044805F043FC0348FFF732FE0020DF
:107B740008BD00BFAC2500209C25002010B5094C91
:107B8400094B43602046FFF719FF40B905F098F907
:107B94001C2320748C2205490548FFF707FE0020AA
:107BA40010BD00BFAC250020ECDC02001025002035
:107BB4009C25002070B5244D244E2B7A2C463BB9CD
:107BC40023492448FFF761FE306008B9686070BD3E
:107BD4000223237233681A7972B1012A24D0184619
:107BE4000321FFF775FF00232372636018491948C6
:107BF400BDE87040FFF774BED3E90520121AB2F550
:107C0400805F28BF4FF48052D3E903159208012AFC
:107C1400014438BF01222844FFF756FF50B1112810
:107C2400DDD101232372D2E7D3E903021044FFF725
:107C34004DFFF3E7237C002BC9D10146BDE870401A
:107C4400022000F009B800BFAC250020C4250020A4
:107C5400C02500209C25002038B5831E012B45D863
:107C6400234C237A002B41D0022B09D1032830D096
:107C7400204B1B680022E2601A793AB1012A22D013
:107C8400637C7BBBBDE83840FFF794BFD3E90512A2
:107C94008D1AB5F5805F94BF521902F580529A612E
:107CA4009142EDD102284FF0000308BF1946237218
:107CB400104B18BF0D211868FFF70AFF0E490F4833
:107CC400FFF70EFEDCE71A6901321A615B699A421A
:107CD400E7E7E3680133082B01D8E360D0E700232A
:107CE400E360DFE7BDE8384005F0DAB838BD00BF2F
:107CF400AC250020C4250020C02500209C250020A0
:107D040000F0FD03012B08D1044B00225A74421EDB
:107D1400504250411874FFF74DBF7047AC25002006
:107D240010B5064C201DFFF749FE28B9637C1BB92A
:107D3400BDE81040FFF73EBF10BD00BFAC250020DA
:107D44002DE9F34180460D460F4801A916461F460A
:107D5400FFF761FD0446A8B11C22002105F047FB92
:107D64002D0B0123237101A9C4F80080A760E560ED
:107D740066610548FFF779FDFFF7D2FF002002B0E6
:107D8400BDE8F0810420FAE79C2500202DE9F743A3
:107D940081468846104801A917461E46FFF73BFD59
:107DA4000446B0B11C22002105F021FB00250A9BEA
:107DB400A36001A92571C4F80090C4E90378666141
:107DC4000548FFF752FDFFF7ABFF284603B0BDE8B7
:107DD400F0830420FAE700BF9C25002041DF7047B0
:107DE400064B10B500241C70054B1C60BFF35F8F5D
:107DF4000449054800F030F8204610BDD025002085
:107E0400D425002018DD0200C825002007B502A8EB
:107E1400002300F8013DFEF735FDF1EE103A23F0A2
:107E24009F03E1EE103ABFF35F8F0A4B4022C3F881
:107E340084219DF80700FEF749FD05F041F820B1C3
:107E4400FFF7CCFF03B05DF804FB20BF40BF20BFA9
:107E5400F8E700BF00E100E00B684A684360934222
:107E640008BF0023016008BF43607047436843B103
:107E74000268916852680B449342436004BF002334
:107E8400436070470C4B1B78062B10D10B4B1B68BF
:107E94001A070CD10A4B186800F0F003302B08D0F5
:107EA40000F0E000A0F14003584258417047002020
:107EB40070470120704700BFE00F00F0E40F00F0AE
:107EC400E80F00F0094B1B78062B0CD1084B1B68FC
:107ED4001A0708D1074B186800F0F000A0F130032E
:107EE4005842584170470020704700BFE00F00F02F
:107EF400E40F00F0E80F00F008B5FFF7C3FF28B166
:107F04007D4B7E4A1B68C3F304231360FFF7DAFF3B
:107F140010B17B4B7B4A1A60FFF7B4FF28B17A4B50
:107F24007A4A1B68C3F342331360FFF7CBFF20B1D7
:107F3400774AD36823F08073D360FFF7A3FF40B17F
:107F44004FF080430022C3F80C21C3F81021C3F87A
:107F54003825FFF7B7FF10B16E4B03221A60FFF705
:107F6400B1FF40B16C4B05221A6001229A670022CE
:107F74009A603F225A60694B1B78062B50D1684B9C
:107F84001B6819074CD1674B1B6803F0F003502B97
:107F940046D14FF08052644BD2F80414C3F8201534
:107FA400D2F80814C3F82415D2F80C14C3F8281511
:107FB400D2F81014C3F82C15D2F81414C3F83015E1
:107FC400D2F81814C3F83415D2F81C14C3F84015A9
:107FD400D2F82014C3F84415D2F82414C3F8481571
:107FE400D2F82814C3F84C15D2F82C14C3F8501541
:107FF400D2F83014C3F85415D2F83414C3F8601509
:10800400D2F83814C3F86415D2F83C14C3F86815D0
:10801400D2F84014C3F86C15D2F84424C3F8702580
:10802400FFF730FF28B1414B414A1B6803F04F036F
:108034001360FFF727FF48B14FF08043D3F80024C3
:10804400D20744BF6FF00102C3F80024394B1B6808
:10805400062B08D1384B1B68062B01BF374A13681F
:1080640043F480631360364AD2F8883043F47003D3
:10807400C2F88830BFF34F8FBFF36F8F4FF01023D8
:10808400D3F80022002A03DBD3F80432002B2FDAC2
:108094002C4B0122C3F80425D3F80024002AFBD07A
:1080A4004FF010221521C2F80012D3F80024002A40
:1080B400FBD04FF010231522C3F80422214B1A469B
:1080C400D3F800140029FBD00021C3F80415D2F81A
:1080D4000034002BFBD0BFF34F8F19491A4BCA68E9
:1080E40002F4E0621343CB60BFF34F8F00BFFDE7A0
:1080F400164B174A1A6008BD24030010403501408E
:1081040074C007400DF0ADBA440200103C050040B5
:10811400F0ED00E0A005004010560040E00F00F034
:10812400E40F00F0E80F00F000C000405802001017
:10813400E40E004030010010340100103C170040F0
:1081440000ED00E000E001400400FA0534220020C4
:108154000090D003054A4FF0A043105CD3F80435D7
:1081640023FA00F0C04300F00100704724DD020050
:10817400044B1A5C012393404FF0A042C2F80C3523
:10818400704700BF24DD0200044B1A5C01239340B6
:108194004FF0A042C2F80835704700BF24DD02004A
:1081A40008B50020FFF7F0FF0120FFF7EDFF0220E4
:1081B400FFF7EAFF0320BDE80840FFF7E5BF08B575
:1081C4000020FFF7D5FF0120FFF7D2FF0220FFF7C1
:1081D400CFFF0320BDE80840FFF7CABF074A4FF0AE
:1081E400A041105CD1F804350122824022EA030048
:1081F4001340C1F80805C1F80C35704724DD0200AE
:1082040038B5084C04F108030546002818BF1C467D
:1082140023682BB11A6822605B6828469847F7E701
:1082240038BD00BFE025002020B9054B01225A705B
:10823400FFF7E6BF012802D1014A9070F8E77047C2
:10824400D825002020B9034B01225A70FFF7D8BF6C
:10825400704700BFD825002038B50B4C237883B96C
:108264000A486360A3602361E36000F05FF8054699
:1082740004F026FE08B900F067F8012323702846AD
:1082840038BD8525FBE700BFD82500202D820200DC
:1082940037B502A80023094C00F8013DFEF7F2FAB5
:1082A400E368013BE360E56815B900F061F8A57087
:1082B4009DF80700FEF70AFB03B030BDD825002067
:1082C400012813B509D003D303281BD002B010BD75
:1082D4000F4B0122C3F88020F8E702A800230D4CBD
:1082E40000F8013DFEF7CEFA23780BB9FFF7B4FF8F
:1082F400E3689DF807000133E3600123A370FEF7F0
:10830400E5FAE3E700F020F8FFF7C2FFDEE700BF7D
:1083140000E100E0D825002000F18040002382B075
:10832400036003680193019B02B07047054A137907
:108334002BB90121106011715371184670478520C3
:10834400704700BFEC250020084B1A68D20706D4FA
:10835400E02283F800230122C3F880211A604FF041
:1083640080430122C3F81825704700BF00E100E0F4
:10837400044B01221A604FF08042D2F81834DB0318
:10838400FBD470470C000040124B1B6810B573B14E
:108394004FF48070FFF7C0FF4FF080430122C3F811
:1083A40008230D4B587910B95A711B6898470B4B29
:1083B4001B6873B14FF48270FFF7AEFF4FF0804338
:1083C4000222C3F80823044B01201B68BDE81040B7
:1083D400184710BD00010040EC25002004010040B6
:1083E40000F1804000F5C040002382B003600368C0
:1083F4000193019B02B07047800000F1A040D0F8C7
:10840400003723F44033C0F80037D0F8003743EA8C
:108414000141C0F800177047054B4FF0FF320728A1
:1084240043F8202084BF1B1883F84820704700BFFE
:10843400F425002010B5174C94F8583043BBFF21A5
:10844400E2180133202B82F83010F9D10021C8B290
:10845400FFF7E2FF01310C29F9D1042200210E4873
:1084640004F0C5FF0D4BE02283F806234022C3F835
:1084740080214FF4BE701A60FFF7B2FF084B4FF033
:108484000042C3F80423012384F85830002010BDAF
:108494000820FCE7F42500204826002000E100E045
:1084A40000600040F0B5394D2C18944694F93040E2
:1084B400002C68DA8E78C6F34006002E15BF002320
:1084C400082308270C27BB4201D10420F0BD55F82E
:1084D400232001324FEA830441D12F1845F823C0E9
:1084E40087F8303016B9EA1882F848008A785607B7
:1084F40016D4D70735D5820002F1A042D2F800671E
:1085040026F00206C2F80067214FC60800F0070CE7
:10851400012202FA0CF217F806C042EA0C02BA551C
:108524008A780E7812F0020224D004F1804303F515
:10853400C0430002D3F8102522F4473222F44072DB
:10854400C3F810253604D3F8102500F4F85006F4C7
:10855400403630431043C3F810050020B6E701331A
:10856400B1E74E7800F5E0724FF0A047B60047F847
:108574002260C9E7083B2B4493F8500040EA861672
:1085840083F85060E9E70820A0E700BFF425002045
:108594004826002038B5204C251895F93020072AA4
:1085A40018DD224492F848309B09032B0DD14FF07B
:1085B400A043D3F81035C34013F0010F0CBF0221C0
:1085C4000321BDE83840FFF717BF012B14BF032177
:1085D4000221F6E7D3B2072B1CD8930003F18043A2
:1085E40003F5C043D3F8100540F00100C3F81005AB
:1085F40002F14000800080B2FFF7F2FE51B195F91C
:10860400303054F823302BB1012303FA02F2034B28
:10861400C3F8042338BD00BFF425002000600040E7
:108624004FF0A043D3F8103523FA00F000F0010016
:10863400704700002DE9FF470024594A594E5A4D0E
:10864400019401211368A2F5C040012B80B206D128
:10865400D6F804330B4202D0FFF7C2FE0C430432B7
:10866400AA424FEA4101EDD1504B1B68012B0AD1BC
:108674004FF4BE70FFF7B4FE4FF0A04344F0004443
:10868400D3F81035019314F0FF0F1AD0484F012688
:108694000025344210D0AB0003F1804303F5C043FE
:1086A400D3F81005D3F8101557F82530C0F304207B
:1086B400C1F3014103B198470135082D4FEA46063D
:1086C400E7D1002C68DA00224FF0FF33CDE9022312
:1086D400DFF8DC9001260024A0464FF0A04709EB08
:1086E400080393F95020531C45D0D2B222F0C005A0
:1086F400E90804A8084402F0070310F804CC06FAB9
:1087040003F31CEA030F36D009EB050C92099CF91C
:1087140030C059F82CA0BAF1000F0AD1032A2AD18B
:108724000DF1080E1EF801C04CEA030C0EF801C04E
:1087340001E0032AF4D005F5E07110F80C0C57F8A9
:1087440021101842C1F3014105D0022913D1032A93
:108754000BD1114604E003290DD1032A05D10221CE
:108764002846FFF749FE0134E4B2BAF1000F02D003
:1087740011462846D04708F10108B8F1040FAED1DC
:1087840054B14FF0A043019AD3F81035934203D06B
:108794000193029B03939EE704B0BDE8F08700BFFA
:1087A4000061004000600040206100407C610040A6
:1087B400F4250020014B1B68184700BF50260020F9
:1087C40008B5094B1B7853B10020FFF7DDFC0120ED
:1087D400FFF7DAFC0320BDE80840FFF7D5BCBDE88D
:1087E4000840FFF7DDBC00BF58260020F8B5794CDF
:1087F400237805461BB100232370FFF7E1FF172DF3
:1088040000F28480DFE805F00C13133F5061727CA2
:1088140084898489919696969696C0C5CDD5E0E0D4
:10882400FFF7CEFF6C4B00241C702046F8BD0020DF
:10883400FFF790FCF8B10020FFF7A6FC022D0CBF57
:108844004FF4E1614FF47A61634B1D704FF40040C3
:108854004FF4FA740025E0FB01454FF47A720023CB
:108864002046294604F0FAFB002201465B48BDE895
:10887400F840FDF7B3BFFFF77BFC022D0CBFC82106
:108884004FF4C871E0E70020FFF764FC40B100201A
:10889400FFF77AFC4FF448714F4B03221A70D5E767
:1088A400FFF766FCC821F7E70020FFF753FC38B157
:1088B4000020FFF769FC4FF47A61474B0422EDE78F
:1088C400FFF756FC4FF4C871F7E70020FFF742FCAE
:1088D40048B10020FFF758FC3F4B05221A7041F6BF
:1088E4009A110022C2E7FFF743FCF5E70020FFF7E7
:1088F40075FC394B06221A70002240F6CD41B5E7CB
:108904000020FFF735FC344B07221A7000248CE753
:1089140001202070FFF762FCEEE701202070FFF7D2
:108924005DFC00224FF48041A0E7FFF748FC2A4B8E
:108934000C22EAE72A482B4EFDF794FFD5F11105E6
:1089440004461CD0D8B9012D13D0C8235D434FF47D
:1089540000474FF4FA7000214FF47A720023C7FBEA
:10896400050104F07BFB224601461D48FDF736FF56
:1089740004460220FFF7FCFB0123337055E7022075
:10898400FFF702FC0023F8E7FFF71AFF124B12224D
:10899400BBE7FFF715FF0020FFF7EAFB0E4B13229E
:1089A400B3E7FFF70DFF0120FFF7E2FB0A4B1422A8
:1089B400ABE7FFF705FF0020FFF7DAFB0120FFF725
:1089C400D7FB054B1522A0E7FFF7F9FB024B1D70FF
:1089D4009CE700BFAC260020AD2600207C260020AA
:1089E4005C26002058260020044B1B6813F001036A
:1089F40001D0FFF7FBBE1846704700BFA826002031
:108A0400032812D8012A0BD1012908D100F10E0242
:108A1400D2B200EB40000C4B1A54002070470022E5
:108A24000129F6D009D3022901D007207047064B4B
:108A340000EB400018444270EFE7034B00EB4000AA
:108A440018448270E9E700BF9C26002008B5012283
:108A540002210020FFF7D4FF08B1072810D1072214
:108A640002210120FFF7CCFF08B1072808D100211B
:108A74000A220846FFF7C4FF10B1072808BF0020E8
:108A840008BD00000388102B10B502D0112B1ED096
:108A940010BD1A4C2168B1B901220846FFF7B0FF96
:108AA40008B1072824D1072202210120FFF7A8FFDB
:108AB40008B107281CD1042202210020FFF7A0FFDF
:108AC40008B1072814D1236801332360E0E70B4A77
:108AD4001368013B1360002BDAD1FFF7B7FF0028BE
:108AE400D6D0074B1B68002BD2D0BDE810401847E6
:108AF400034B1B68002BE6D09847E4E7B42600201C
:108B0400B026002072DF704773DF704776DF70474E
:108B140077DF70477ADF70477CDF70478FDF7047FD
:108B24003FDF7047FDF7E4BB08B503F00DFA18B159
:108B3400BDE80840FDF7DCBB08BD00000388212B1D
:108B440013B5044628D005D8102B0FD0112B0AD00A
:108B540002B010BD3B2B01D0562BF9D11321A088B4
:108B6400FFF7D4FF1FE0FFF7DFFFF1E70720FFF770
:108B74003BFF08B1FDF7BCFB0D4BA1880D481980E4
:108B840002F028FD08B1FDF7B3FB00224FF4702179
:108B94000948FDF723FEDBE702A9002321F8043D81
:108BA4008088FFF7BBFF0028D2D0FDF7A1FBCFE7F9
:108BB400722200205C2800209427002008B5084B6E
:108BC4001B781BB1074B01221A7008BD064801F03F
:108BD400FBF8064B3B211888BDE80840FFF796BF19
:108BE400B8260020B92600208FDE02007222002061
:108BF40038B50D20FFF714FD0B4C054658B90B484A
:108C040001F0E2F82A464FF420310948FDF7E6FD69
:108C14000123237038BD074801F0D6F80448FDF756
:108C240021FE0023F5E700BFB826002046DD020040
:108C3400942700204FDD020008B503784BB9054B9B
:108C44003B211888FFF762FF18B1BDE80840FDF723
:108C54004FBB08BD72220020FDF74ABB73B56F4CB1
:108C64006F4E2246022342F2212141F2111000F0FC
:108C7400FBFD208800F0BEFE21886A4C6A4801F0A2
:108C8400A3F82246022342F2232141F2111000F0FC
:108C9400EBFD2188654C664801F096F822460223D4
:108CA40042F2242141F2111000F0DEFD208800F090
:108CB400B9FE21885F4C604801F086F82246012302
:108CC40042F2252141F2111000F0CEFD207800F08F
:108CD400B5FE2178594C5A4801F076F82246022311
:108CE40042F2272141F2111000F0BEFD208800F06D
:108CF400B1FE2188534C544801F066F82246012302
:108D040042F2282141F2111000F0AEFD94F9000066
:108D140000F0ACFE94F900104C484D4C01F054F8AE
:108D240042F2262141F2111000F030FEC0B28DF85B
:108D3400070098B102AD206804F078FA15F8010D27
:108D440004F02AFAEBB20246206042F2262141F2F4
:108D5400111000F0F5FD9DF807303370317820686C
:108D640000F08AFE22689DF807103A4801F02CF8BA
:108D740042F2222141F2111000F008FEC0B28DF837
:108D8400070048B10DF10703DBB2334A42F2222156
:108D940041F2111000F0D4FD2F482F4D2F4E00F05A
:108DA400B9FE2F4801F010F800249DF80730A342C3
:108DB4002EDC42F2292141F2111000F0E7FDC0B28D
:108DC4008DF80700274C284D78B104F0E5F90DF132
:108DD400070302462060DBB242F2292141F211105E
:108DE40000F0AEFD9DF807302B702978206800F064
:108DF40059FE226829781D4800F0E6FF297820688A
:108E040000F072FE1A491B4800F062FE02B070BD09
:108E1400295D304600F0D8FF0134C6E74022002027
:108E2400482200204A22002059DD02004E22002060
:108E34007BDD02004C22002090DD02003E22002057
:108E4400A5DD0200C1260020C2DD0200E8DD02002B
:108E54004422002009DE02005022002025DE020008
:108E64001DDE0200382200203C2200202BDE0200FE
:108E7400C0260020BC2600202DE98048B3B0FDF7B1
:108E84006BFC08B1FDF734FACA4ACB480021FDF760
:108E940093FCFFF7CFFA08B1FDF72AFA00238DF807
:108EA4008E30C64A032323A90D208DF88C308DF80B
:108EB4008D30FFF7F7FA08B1FDF71AFA01210D20FA
:108EC400FFF768FBBE4800F07FFF00F07BFCFFF774
:108ED400C5FEFEF785FF08B1FDF70AFA03F06CFF43
:108EE40008B1FDF705FA002323A90120239304F018
:108EF40031F808B1FDF7FCF923A804F085F808B1AE
:108F0400FDF7F6F90DF1C80A0120FFF709FE112358
:108F14000AF8783DAB4B1A78AB4B50461968FFF70B
:108F2400FBFD08B1FDF7E4F90822002123A804F0B1
:108F34005EFAA64A4FF0C87323A8CDE92323FFF7AE
:108F4400E9FD08B1FDF7D4F90021A14802F069FA5E
:108F540008B1FDF7CDF99F4B9F48239323A902F055
:108F640027FB08B1FDF7C4F99C4D9D4800F0B8FA01
:108F74006F68D5F8008055F8080F69680124022647
:108F84006B46CDE90544CDE903440294CDE9076677
:108F940003C394493B464246081F00F0EFF9286892
:108FA400696802964FF0100B6B46CDE90544CDE994
:108FB4000344CDE907BB03C38B493B464246A1F1B9
:108FC4000C0000F0DBF928686968032302936B4600
:108FD400CDE90544CDE90344CDE9076603C38349DC
:108FE4003B464246A1F1140000F0C8F928686968BC
:108FF400042302936B46CDE90544CDE90344CDE94E
:10900400076603C37A493B464246A1F11C0000F0BF
:10901400B5F928686968052302936B46CDE90744CE
:10902400CDE90544CDE9034403C372493B464246B6
:10903400A1F1240000F0A2F92868696806230293CC
:109044006B46CDE90544CDE90344CDE9076603C386
:1090540069493B464246A1F12C0000F08FF928688B
:109064006968072302936B46CDE90544CDE90344BF
:10907400CDE9076603C361493B464246A1F134008A
:1090840000F07CF92868696808234FF014090293FA
:109094006B46CDE90544CDE90344CDE9079903C303
:1090A40057493B464246A1F13C0000F067F9286865
:1090B4006968092302936B46CDE90544CDE903446D
:1090C400CDE9079903C34F493B464246A1F1440009
:1090D40000F054F928686968CDF808B06B46CDE90A
:1090E4000544CDE90344CDE9079903C34649474DF7
:1090F4003B464246A1F14C0000F040F93C220021DD
:10910400504604F074F93C22002123A804F06FF9BE
:109114003F4B404F1B88ADF82C30152200210DF138
:109124003A0004F064F941F20253ADF838302B8868
:109134008DF84A303B888DF84C30374B37491B78D3
:109144008DF84E305A460DF13A0004F027F92B8879
:109154008DF8293032AD1B0A05F8A03D3246294668
:109164000DF14A0004F01AF93B888DF8293029469C
:109174001B0A324613A88DF8283004F00FF90EAB01
:10918400274D0D931723ADF830304FF004038DF8BD
:10919400533018220BAB002128461D9304F027F905
:1091A400204B2C701A8800244FF47A7353436C605C
:1091B4003AE000BFC18B020048DE0200F58B0200DA
:1091C4004CDE020048220020442200205000A0006F
:1091D400F4270020298B02005C28002028DD0200EF
:1091E400082800200C280020142800201C28002017
:1091F400242800202C280020342800203C2800208B
:10920400442800204C280020542800204A22002012
:10921400402200204E2200204C2200205022002018
:10922400C42600203E22002040F271222C7593FBBC
:10923400F2F3AC81AB603F4D50462A1D296800F023
:1092440054FE08B1FDF754F83B4AA9688DF88C60C8
:1092540023A8249400F049FE08B1FDF749F8374AE1
:1092640034493748FFF74EFC08B1FDF741F81C229A
:10927400002123A804F0BBF800234FF42032CDE9E9
:109284002332ADF89A304FF470228DF89C302D4B78
:109294002592289303222C4B8DF8982023A82993F8
:1092A40001F08AFA08B1FDF723F8254C0121207852
:1092B400FFF72AFC08B1FDF71BF80220FFF794FB27
:1092C40008B1FDF715F8214B217893F9002001200E
:1092D400FFF71EFC08B1FDF70BF81D4D1D4C00F007
:1092E40077FB012804D1284600F06EFD00F01AFC3B
:1092F4002378DBB100F070FA1748184D00F064FDD4
:109304004FF4FA6445F001054FF47A40A847013C54
:10931400FAD1BFF34F8F1249124BCA6802F4E062CC
:109324001343CB60BFF34F8F00BFFDE7FEF76EFD25
:10933400D5E700BF602200206C220020C426002054
:10934400702200203D8C02005D8C0200C1260020AA
:1093540057DE0200B92600206CDE020040DD020068
:1093640000ED00E00400FA05A8DF7047AADF7047AB
:10937400ADDF7047AEDF704762DF704782B02DE922
:10938400F04F97B000AF8B4697F8A46097F89440DD
:1093940097F8985097F89C8097F8A09007F180016F
:1093A40081E80C00F31D03F4FC73ADEB030D3246AE
:1093B400002182466846C7F804D004F018F807F183
:1093C40080030FCB07F1180C8CE80F00B7F890302E
:1093D400BB8207F116016046FFF7CEFF08B1FCF728
:1093E40087FF1C22002107F13C0004F000F897F8E5
:1093F4003C30B5B143F0080387F83C3097F83C3073
:1094040094B143F0020387F83C30B9F1000F25D042
:109414000322002107F10C0003F0E9FF11233B7341
:109424000FE065F3C303E7E764F3410387F83C30D7
:10943400B9F1000F12D00322214607F10C0003F00A
:10944400D6FF0DB111237B73BB7B012262F3420370
:10945400BB7304B915B107F10C033B6597F83C30B5
:10946400B8F1000F38D043F0100307F110080322BD
:109474000021404687F83C3003F0B9FFBB7C012251
:1094840062F34203BB740CB111233B740DB111237D
:109494007B741422002107F1280003F0A8FF07F1D0
:1094A4001403C7E90A3897F8A8303B867B68BB6386
:1094B40007F128025B4607F13C01BAF80200BE86B8
:1094C400FFF754FF08B1FCF713FF00205C37BD46DB
:1094D400BDE8F04F02B0704768F30413C5E700001D
:1094E400F0B5144B87B002AA044603F110071646E0
:1094F40018685968154603C50833BB422A46F7D194
:109504004FF20D030DF106013046ADF80430FFF7BC
:1095140033FF08B1FCF7ECFE22464FF6FF7322F846
:10952400023B01A90120FFF71FFF08B1FCF7E0FE91
:1095340007B0F0BDA6DE020030B502884FF6FF7317
:109544009A4287B004460D4619D0142300211022F4
:1095540002A8ADF8063003F04AFFB4F84C30ADF879
:10956400083001238DF80A300023ADF80C3002A92D
:109574000DF106032088CDE90435FFF7FBFE07B0A3
:1095840030BD000030B50388112B85B005460C466C
:1095940000F0F180502B04D0102B26D18388238037
:1095A40023E0042302938988C38899420FD102AA35
:1095B4002088FFF7DDFE688A40BA80B200F01AFA0C
:1095C40000F012FA01466D4800F0FEFB0DE0A1899F
:1095D40099420CD102AA2088FFF7CAFE684800F01D
:1095E400F3FB05F1120000F095FA05B030BDA18A35
:1095F40099420DD102AA2088FFF7BAFE688A40BAC0
:1096040080B200F003FA00F0FBF901465D48DBE7A5
:10961400A18B99420DD102AA2088FFF7A9FE688A7E
:1096240040BA80B200F0FEF900F0F6F9014656485F
:10963400CAE7A18C99420BD102AA2088FFF798FEB1
:10964400A87C00F0FBF900F0F3F901464F48BBE7B2
:10965400A18D99420DD102AA2088FFF789FE688A5C
:1096640040BA80B200F0F6F900F0EEF9014648483D
:10967400AAE7A18E99420BD102AA2088FFF778FEAF
:10968400A87C00F0F3F900F0EBF9014641489BE7B0
:10969400A28F9A4214D102AA19462088FFF768FEC5
:1096A40008B1FCF725FE2B463B4813F8122F114650
:1096B40000F08AFBA97C05F1130000F0DDF994E7C2
:1096C400B4F844209A4211D102AA19462088FFF71F
:1096D4004FFE2B46314813F8122F114600F074FB4D
:1096E400A97C05F1130000F0DDF97EE7B4F84C2005
:1096F4009A423CD102AA19462088FFF739FE05F1A7
:109704001201274800F060FB0DF1030101A800F0ED
:10971400DFF99DF90320019805F1130103F0EAFD37
:1097240038B920492046FFF707FF012000F056F919
:109734005BE71D481D4D00F047FB20461C49FFF721
:10974400FBFE40F6B83445F001054FF47A40A847D3
:10975400013CFAD1BFF34F8F1649174BCA6802F484
:10976400E0621343CB60BFF34F8F00BFFDE71348A4
:1097740000F02AFB39E74FF6FF7310E7B6DE02006C
:10978400E1DE0200F4DE020012DF020030DF02003C
:109794005ADF02007BDF0200ABDF0200CEDF0200F3
:1097A400F0DF02007422002010E0020040E002001A
:1097B4006828002000ED00E00400FA0521E0020022
:1097C4007047000008B50348FDF79EFDBDE808405A
:1097D400FDF7B0BDC597020008B541F21110FDF7C1
:1097E4006DFF08B1FCF784FDFDF78EFF18B1BDE8ED
:1097F4000840FCF77DBD08BD70B503338AB09B08F3
:109804000192069301AA00230592CDE90733099337
:10981400CDE9023307AA02ABADF81210ADF810007F
:10982400FDF796FF04A9A8B907A8FDF73FFF0C4E62
:1098340005464FF4FA7446F001064FF47A40B047F7
:10984400013CFAD155B12946064800F0BDFA20463C
:109854000AB070BD07A8FDF71FFFE8E70120F7E78E
:1098640050E0020067E0020030B589B01D460023D5
:109874001446CDE905330793CDE90133CDE903332C
:1098840005AA01ABFDF764FF58B903A905A8FDF7C4
:1098940067FE2A460499204603F080FD05A8FDF7DB
:1098A40099FE012009B030BDF0B51C46083389B0DB
:1098B40003F4FC7300AFADEB030D054668460E469A
:1098C40000F8014B1146224603F068FD04340023DE
:1098D400C7E90533FB61C7E900333146A4083B46B9
:1098E40007F1140228463D817E81C7F80CD03C6103
:1098F400FDF72EFF07F10801B8B907F11400FDF7D1
:10990400D5FE0D4E05464FF4FA7446F001064FF4A9
:109914007A40B047013CFAD165B12946074800F0C6
:1099240053FA20462437BD46F0BD07F11400FDF775
:10993400B3FEE6E70120F5E750E0020067E002002D
:1099440010B588B000231446CDE905330793CDE95B
:109954000133CDE9033305AA01ABFDF7F9FE78B96C
:1099640003A905A8FDF7FCFD0499204611F8012B75
:1099740003F014FD05A8FDF72DFE012008B010BD6D
:10998400014800F021FAF8E756E0020010B588B06B
:10999400002401AB05AACDE905440794CDE90144AF
:1099A400CDE90344FDF7D4FE58B903A905A8FDF792
:1099B400D7FD049B05A81C78FDF70CFE204608B0D3
:1099C40010BD024800F000FAF8E700BF56E00200BC
:1099D400014B1878704700BF7C280020014B187099
:1099E400704700BF7C280020014B1888704700BFD7
:1099F40090220020014B1880704700BF9022002065
:109A0400014B1888704700BF9A220020014B188030
:109A1400704700BF9A220020014B1888704700BF8E
:109A24009E220020014B1880704700BF9E22002018
:109A3400014B1878704700BF9C220020014B18701E
:109A4400704700BF9C220020014B1888704700BF5C
:109A54008E220020014B1880704700BF8E22002008
:109A6400014B93F90000704785280020014B1870C2
:109A7400704700BF8528002070B5084D0C46064687
:109A8400286803F0D3FB204603F086FB22463146C8
:109A9400286003F083FC024B1C7070BD94220020EC
:109AA4009822002070B5084D0C460646286803F03D
:109AB400BDFB204603F070FB22463146286003F0CC
:109AC4006DFC024B1C7070BD882200208C2200208B
:109AD400034B1B780B70034B1B680360704700BF7C
:109AE400842800208028002070B5084D0C460646C6
:109AF400286803F09BFB204603F04EFB22463146C8
:109B0400286003F04BFC024B1C7070BD80280020C1
:109B14008428002001461022014803F03FBC00BF06
:109B2400A0220020304A08B51288022342F22121E3
:109B340041F21110FFF760FE2C4A0223128842F210
:109B4400232141F21110FFF757FE294A02231288FC
:109B540042F2242141F21110FFF74EFE254A01235F
:109B6400127842F2252141F21110FFF745FE224AF4
:109B74000223128842F2272141F21110FFF73CFE22
:109B84001E4A012392F9002042F2282141F21110C9
:109B9400FFF732FE1A4B1B4A1B78126842F2262149
:109BA40041F21110FFF780FE1023174A42F22221DE
:109BB40041F21110FFF778FE144B154A1B78126816
:109BC40042F2292141F21110FFF76EFEBFF34F8FCD
:109BD4001049114BCA6802F4E0621343CB60BFF32F
:109BE4004F8F00BFFDE700BF902200209A22002083
:109BF4009E2200209C2200208E2200208528002006
:109C04009822002094220020A02200208C220020F0
:109C14008822002000ED00E00400FA050369C16811
:109C24008B429DBF8268D21802F1FF3203F1FF33E9
:109C340094BF501A581A70472DE9F041D0E90267D1
:109C44000446F61B4068964288461546384405D9B2
:109C540003F0A4FB3D44E560BDE8F0813246AD1B52
:109C640003F09CFB2A4608EB0601606803F096FBB0
:109C7400F1E72DE9F843C5680646894617464FF0D3
:109C840000083469B3687068A54228BFE418013C31
:109C9400621B5C1BBC4228BF3C46944228BF14464E
:109CA40049462844224603F079FBB3682544AB4275
:109CB40008BF00253F1BA044A144F560E1D1404604
:109CC400BDE8F88310B5114C114AA2610223C4E91E
:109CD4000433104BE361A2644FF400730E4A236211
:109CE400E264002310220D49A362E01D6362E36273
:109CF400A3656365E365226503F0ACFB0849204670
:109D040003F0A8FB2023A37110BD00BF8828002006
:109D140080E00200102900200029002089E00200D0
:109D24008DE00200F8B5184C182300FB033503FB43
:109D340000402544C46A012C0F46164611D003D3B3
:109D4400022C1BD000240AE02846FFF767FF864256
:109D540005D8324639462846FFF76EFF344620467A
:109D6400F8BD2846FFF75AFF8642344628BF04460A
:109D7400224639462846FFF75FFFF0E72846BDE84C
:109D8400F840FFF776BF00BF8828002073B50D4B5D
:109D94001B7804460D4616460BB9FFF793FF02A83D
:109DA400002300F8013DFCF76DFD324629462046AC
:109DB400FFF7B8FF04469DF80700FCF787FD20462F
:109DC40002B070BD882800200FB410B5A2B024AB37
:109DD400802153F8042B019302A803F0D1FA8028C0
:109DE40004460ADD802202A90020FFF7CFFF2046A7
:109DF40022B0BDE8104004B070470028F7DD0246E9
:109E0400F1E76DDF704779DF70477DDF704764DF0E
:109E140070472DE9F74F0C9CBDF834B02788002516
:109E240080468A4691462E46B8F80020B2420BDCA2
:109E340035B12288013AD21B92B2FF2A39D8DA55B9
:109E4400002003B0BDE8F08FD8F8042052F82600B3
:109E5400019000220DF1030101A8FFF7D8FF0028AB
:109E6400EFD19DF803204A4521D12288002D14BF4B
:109E74000020022002EB09010144594519DC3DB9D7
:109E8400013292B2228003F802A022880132228099
:109E940022880DF103011A4401A8FFF7B8FF002836
:109EA400CFD121889DF803200A4422800125013660
:109EB400BAE70C20C5E72DE9F341089CBDF824500E
:109EC4001746CDE9004502220646FFF7A2FF48B92E
:109ED400102239463046CDE9084502B0BDE8F041CC
:109EE400FFF797BF02B0BDE8F0812DE9F04F0023E2
:109EF4001688138090F82D3085B007460D46144619
:109F040053B3082E01D80C2004E102A8FFF779FF0F
:109F1400002840F0FF8013880822CA5423880133A4
:109F24009BB21B222380CA542088013080B2208037
:109F340006220DF10901284403F030FA23889DF824
:109F4400082006339BB212F0FE0218BF01222380C0
:109F5400EA54238801332380BB78FBB1238804337C
:109F6400B342D0D802A8FFF74EFF002840F0D280B9
:109F740023880322EA54238801339BB219222380C5
:109F8400EA542388BDF8082001339BB2E9182380E2
:109F9400EA54120A4A70238802332380FA789AB169
:109FA4002388D91CB142AED80221E9542388013355
:109FB4009BB201212380E95423880B449BB2238064
:109FC400EA5423880B4423807A68AAB12388D91CD5
:109FD400B14298D8022192F90020E9542388013330
:109FE4009BB20A212380E954238801339BB2238046
:109FF400EA542388013323803B89002B7ED13B8A9A
:10A0040053B1CDE900462B460722032107F1100086
:10A01400FFF751FF00287DD13B8B53B1CDE90046BA
:10A024002B461522142107F11800FFF744FF0028DE
:10A0340070D13A6A002A70D1D7F82480B8F1000FA1
:10A0440030D0B8F804302188981C8A1C0244B242EB
:10A054003FF659AFFE283FF656AF03336B542388BF
:10A0640001339BB2FF222380EA54238801339BB23D
:10A074002380B8F80020EA54E918120A4A702088AC
:10A08400023080B22080B8F804205AB1D8F8081001
:10A0940000294CD0284403F081F92388B8F804201F
:10A0A4001344238097F82C30002B7BD1387888B365
:10A0B4003B88012B3BD021888A1CB2423FF623AF58
:10A0C400012805D17B7802330B449E42FFF41BAF79
:10A0D400023E761A04A9B6B221F8086DA818FFF753
:10A0E40094FEB8B93B78022B40F09F80BDF808304D
:10A0F400B34240F2B680ADF808609FE0CDE9004677
:10A104002B460622022107F10800FFF7D4FE00289F
:10A114003FF475AF05B0BDE8F08FB4F800C00CF1A2
:10A124000603B3423FF6EFAE1188052901D8072094
:10A13400F0E76FF4486E01EB0E039BB24FF27D3EE5
:10A144007345F4D95388052BF1D96FF44860181876
:10A1540080B27045EBD94FF6FF70814203D0834241
:10A1640001D09942E3D8052305F80C302388013344
:10A174009BB212212380E954238801339BB22380AC
:10A184001188E954E818090A4170238802339BB204
:10A1940023805288EA54E918120A4A702388023349
:10A1A400238049E7BB6A002BC1D04FF000094FF070
:10A1B4000C0A4FF0160B97F82C305FFA89F2934291
:10A1C4007FF674AFB96A0AFB02F201EB0208B8F831
:10A1D4000430981CFE283FF696AE208803332B5497
:10A1E400238801339BB2238005F803B0238801330D
:10A1F4009BB223808A5AEA54E918120A4A702088CA
:10A20400023080B22080B8F804205AB1D8F808107F
:10A2140000298CD0284403F0C1F82388B8F804201E
:10A224001344238009F10109C5E7012B7FF463AFCF
:10A234007B789E42FFF45FAFADF808300821BDF88B
:10A244000830FE2B3FF65FAE22880133AB542288E0
:10A25400013292B22280A954228813442380002020
:10A2640058E70921EBE770B5C0B14AB1168800245C
:10A27400B44203D305196D789D4208D0A14201D898
:10A2840000200BE0055D01352C44A4B2F0E7A142A7
:10A29400F6D9A31C1380005D013880B270BD37B5B8
:10A2A40002AC002324F8023D134622460546FFF77C
:10A2B400DAFF10B1BDF80600284403B030BD72DFE8
:10A2C400704773DF704738B5012204460D46B0F875
:10A2D4009810D0F89400FFF7E2FF00B1057004F184
:10A2E4003C0204F1940104F15400BDE83840FFF746
:10A2F400E6BFF8B5077804460D46002F00F00E813E
:10A30400A1700020FDF7BAFB014618B10123637068
:10A314000020F8BD04F1AA060722304603F067F8CE
:10A32400E38813B1A378012B04D0E3794BB1A3786C
:10A33400022B06D1636BA3B1012284F8B12008205B
:10A344009847334604F1B00113F8012F12B999422A
:10A35400FAD117466B1E032B53D8DFE803F0050B25
:10A364000F1284F8B130ECE7A3791BB194F82430D0
:10A3740003B95FB9E3790BB1002F44D1237A002BE1
:10A3840043D1637A002B0CBF00250425636BA570B1
:10A39400002B3CD0033D012D39D86279002A36D0F8
:10A3A40094F8B220002A32D184F8B420012284F82F
:10A3B400B3200720984704F13C05182200212846C1
:10A3C40003F015F8E36A94F824200121581E88420A
:10A3D40088BF0B4684F83C1084F8513032B188426F
:10A3E40096BFA36A84F8521084F85230A1780023EF
:10A3F40084F8503004291BD8DFE801F07A0D2538A1
:10A404005C000025C2E70225C0E70325BEE7002360
:10A4140084F8B330CFE7C4F8A430C4E9106302234E
:10A42400012284F83C30802384F83120A4F8483099
:10A43400A378002B5FD1636B002B3FF469AF94F8D2
:10A444003100984764E7022384F8313062B107236E
:10A4540084F83C302369A4F848300023C4F8A430BD
:10A46400E36826646364E3E70323F1E763696364F1
:10A47400A369A4F8483012B1062384F83C30637908
:10A48400B3B194F8B2309BB994F8B43083B10223D9
:10A4940084F8503004212046FFF715FF0028C7D167
:10A4A400052384F8313004F19403C4F8A430BFE7E1
:10A4B4000323F6E7E3696364236AA4F8483012B11E
:10A4C400062384F83C30637983B194F8B2306BB9D5
:10A4D40094F8B43053B1022384F850300421204658
:10A4E400FFF7F1FE0028A3D10623DAE70423D8E717
:10A4F40084F831309CE72A46D4F8A41004F15400BF
:10A50400FFF7DDFE00287FF404AF94F8301094F8D0
:10A514005400FFF7D6FE00288DD0FAE60820F8E6AE
:10A524000388112B10B50C460AD0262B1FD0102BF4
:10A5340005D1C37B012B02D18388A1F8A83010BDBB
:10A544000022838881F8B220B1F8A8209A42F6D17B
:10A554000B79002BF3D101212046FFF7CAFE002816
:10A56400EDD0A36B002BEAD0BDE810401847037A66
:10A57400013B012BE3D889780523013191FBF3F3E7
:10A5840003EB8303C91AC9B2E6E70238012810B500
:10A594000C460DD84B785BB100234B70204689786C
:10A5A400FFF7A7FE20B1A36B13B1BDE81040184715
:10A5B40010BD75DF704776DF70477ADF70477BDF49
:10A5C40070470000034B1A8882420CBF18460020D3
:10A5D400704700BF2C2B0020024B9B6903B1184726
:10A5E400704700BF102B002037B585B22846FFF70F
:10A5F400E9FF034670B1164C017A227B91420BD2DB
:10A6040000F10A012846FFF7D4FFE8B1112801D070
:10A61400FFF7E2FF03B030BD237C0022027243B196
:10A624003B212846FFF7C7FF30F0080301D0FFF7AE
:10A63400D3FF6369002BEDD000228DF80420ADF820
:10A64400065001A89847E5E71A7A01321A72E1E741
:10A65400102B002013B50B46497A0F4C024669B9FA
:10A66400D4E901101C7A002C18BF01465868FCF785
:10A67400B5F808B1FFF7B0FF02B010BD00211972A0
:10A684006369002BF8D00121ADF806008DF80410A1
:10A6940001A89847F0E700BF102B00208388B3F58A
:10A6A400FA7F28BF6FF4F97230B528BF9C1805886B
:10A6B4004A8838BF002495420CD84088904209D378
:10A6C4008A88A24206D303F2F310904234BF0020DA
:10A6D400012030BD0020FCE70388112B70B5014632
:10A6E40048D002D8102B1ED070BD122B52D0502B44
:10A6F400FAD12F4BC288DB899A42F5D1038A022B07
:10A70400F2D186883046FFF75DFF05460028EBD07E
:10A7140001F1120000F09EF930BB6868FCF7A2F862
:10A724000028E1D009E0C37B012BDDD14FF6FF7097
:10A73400FFF748FF054620B90420BDE87040FFF745
:10A744004BBF1C4A8E880680002303721368C5F829
:10A754000A300A30536843601031FFF79FFF144BEF
:10A764006872DB89002BBFD129463046BDE87040B2
:10A77400FFF770BF8088FFF725FF04460028B3D099
:10A784004068FCF76FF808B1FFF726FF4FF6FF7338
:10A794002380A9E786883046FFF714FF0546002882
:10A7A400A2D008310A30FFF779FF6872DCE700BFF6
:10A7B400102B0020402B0020F8B5064650B3054668
:10A7C4000FCD154F3C460FC495E8070084E80700F9
:10A7D4003068124B3B60B8B1FFF7EFFEC8B931687F
:10A7E4000A681A604A685A600D480E4A4FF6FF73A9
:10A7F40003800D4B40F8043F0021FBF7DDFF0028E8
:10A8040014BF0320002004E01846FFF7D8FE0028F8
:10A81400EAD0F8BD0E20FCE7102B0020402B0020CE
:10A824002C2B0020EDA50200482B0020F7B517467D
:10A8340001900E4691B1019C6CB100252C4629462D
:10A8440001A8FDF770F818B13946A8B2B047013431
:10A854000135142DF3D1204603B0F0BD0C46FAE7C0
:10A8640073B50191019C06466CB100252C4629461E
:10A8740001A8FDF758F818B106EB440301349D8094
:10A884000135142DF3D13046346002B070BD0000A0
:10A894002DE9F04303888488112B8DB0064640D0FF
:10A8A4001A2B43D0102B16D1294DAB680CA8DB43CF
:10A8B40040F8303D55F8041FFDF754F8009901A8FD
:10A8C400FFF7CEFF0027019B9F4207D3132C18D913
:10A8D4000420FBF70DFD0DB0BDE8F08301AB03EBE5
:10A8E40047034FF00008B3F8049005EB080049460D
:10A8F40008F10408FDF70DF8B8F1740FF5D101372C
:10A90400E1E721461348FCF7FBFF21461248FCF718
:10A91400F7FFF37B012BDED010482146FCF7F0FF54
:10A92400D9E70C482146FCF7F4FFD4E7057A0C4834
:10A934002D09012D214606D9FCF7E2FF022D2146FF
:10A944000848F0D0EAE7FCF7E4FF21460548EAE7C7
:10A95400682B0020702B00206C2B0020742B00200F
:10A96400782B00207C2B00201328014602D80248B3
:10A97400FCF7D9BF002070476C2B002010B50446AB
:10A98400FFF7F2FF38B121460348FCF7CCFF00285B
:10A9940014BF0220012010BD742B002010B5044602
:10A9A400FFF7E2FF28B121460248BDE81040FCF75A
:10A9B400BABF10BD782B002070B50A4D0646284654
:10A9C4000C46FCF7B0FF58B13046FFF7CDFF38B165
:10A9D400A01D314605EB8000BDE87040FCF7A3BF25
:10A9E400002070BD682B0020F8B50D4C05462046AC
:10A9F4000E461746FCF797FF80B12846FFF7B4FFD1
:10AA040060B1B01D04EB800029461FB1BDE8F840D9
:10AA1400FCF776BFBDE8F840FCF77BBFF8BD00BF8C
:10AA2400682B0020F8B50A4C05460E460146204620
:10AA34001746FCF778FF48B1043504EB85043A4621
:10AA4400A0683146BDE8F840FFF7F0BEF8BD00BF8E
:10AA5400682B0020007800F00100704710B5044610
:10AA6400408800F067FBA0802046BDE8104001F05C
:10AA74005DBA30B587B005460C461422002101A802
:10AA840002F0B5FC072301A88DF80430ADF8065098
:10AA94000394FFF7E3FF07B030BD000030B587B083
:10AAA40005461422002101A802F0A1FC4FF6FF7311
:10AAB4009D42ADF806501AD0284600F0F2F90B2852
:10AAC40004461DD005D8A0B121462846FFF7D1FF82
:10AAD40005E0112805D043F202039842F4D1002284
:10AAE40000E00122074B28461978FFF77DFF07B0E5
:10AAF40030BD0E2301A88DF80430FFF7AFFFEEE759
:10AB04000F23F7E7E12B0020FFF7C8BF024B0349EF
:10AB140018780022FFF786BFE32B002039AB020030
:10AB2400024B034918780022FFF77CBFE22B002078
:10AB3400D1AB020070B5234E86B031780446FFF7DE
:10AB44003BFF0546C0BB204600F0FAF90828014641
:10AB540022D006D888B106281ED02046FFF789FFE8
:10AB640009E043F20203984205D043F201439842BC
:10AB740024D01128F1D1012214E02946142201A87D
:10AB840002F035FC102301A88DF80430ADF806401E
:10AB94000125FFF763FFEEE7204600F0CBFA00F053
:10ABA400E9F90022084B20461978FFF71DFF2A46D1
:10ABB40031782046FFF718FF06B070BD2046FFF736
:10ABC4006DFFD8E7E42B0020E32B002070B50021B3
:10ABD40086B006461C4801F05BFB054608B33046C8
:10ABE40000F01AF9112801461DD004D860B130468E
:10ABF400FFF73FFF05E0862817D043F2020398428F
:10AC0400F5D10024254601E02C4605460F4B2A4683
:10AC140019783046FFF7E8FE1CB921460A4801F0CE
:10AC24005CFB06B070BD0024F0E71422002101A8EB
:10AC340002F0DDFB062301A88DF80430ADF80660B0
:10AC4400FFF70CFFDDE700BFE02B0020E22B002024
:10AC5400037810B5044673B94088FFF71FFF608876
:10AC640000F05CF938B1044B608819780122BDE822
:10AC74001040FFF7B9BE10BDE32B00200378082B6A
:10AC840037B504462CD1417A51BB057A072D1BD028
:10AC9400082D29D0012D23D16A462946808800F049
:10ACA40089FFE8B9019B1B78D3B1A08800F06AFA48
:10ACB4004FF6FF73984213D00D4B2A461978FFF7CD
:10ACC40093FEFFF723FF0BE0808800F05BFA4FF65A
:10ACD400FF73984204D0074B01221978FFF784FED2
:10ACE400FFF71EFF03B030BD034801F0F6FAF7E7A3
:10ACF400E32B0020E22B0020E02B002010B503887A
:10AD04008488522B86B016D0542B21D0502B15D1C9
:10AD1400037B012B12D1827A012A0FD1018942F6D9
:10AD2400021399420AD11B4B20461978FFF75CFEA7
:10AD3400FFF7F6FE02E02046FFF7B0FE164B174978
:10AD440018780022FFF76EFEFFF7E0FE06B010BD94
:10AD54001422002101A802F04AFB112320468DF899
:10AD64000430ADF8064000F0E5F9ADF8080000F055
:10AD740001F90B4B204619780022FFF735FE094BE9
:10AD8400204600221978FFF72FFE01A8FFF766FE80
:10AD9400D4E700BFE22B0020E12B00200DAB020022
:10ADA400E42B0020E32B0020AFDF7047B1DF7047B6
:10ADB400B2DF7047B3DF704773B50F4B0F4C93E8A6
:10ADC40003006D4685E8030000222946208800F030
:10ADD400EAFF4FF6FF762388B34201D0112801D150
:10ADE40002B070BD184600F0D0FF00222946208032
:10ADF40000F0D9FFEFE700BF94E00200E62B00204B
:10AE0400044B1A884FF6FF739A4201D0FFF7D4BF60
:10AE1400704700BFE62B00202DE9F743804600F081
:10AE240089F94FF6FF739842064637D001224FF056
:10AE340003096B4608213046571C00F0BFFEBFB221
:10AE4400054630BB01990A46032342F8049B0631A8
:10AE54004046FFF7ADFF044648B932460821304664
:10AE640000F080FF0446204603B0BDE8F0830C28C0
:10AE74000DD0052800D12C460821304600F00AFFE9
:10AE8400002818BF03243A46002DD2D1EBE7012550
:10AE9400F2E7072814BF04460C24E4E743F2020453
:10AEA400E1E72DE9F341804600F044F94FF6FF73E2
:10AEB400984217D100240325264601272B46224613
:10AEC40031464046FFF772FF042820D0082823D0DB
:10AED4000B281DD115F002030FD18EB9A4B902B00D
:10AEE400BDE8F0816A46082100F064FE0028E1D143
:10AEF400019B9E1D9C881D68DFE701250027DDE777
:10AF040003251C461E46F9E703253446F6E71120BF
:10AF1400002F08BF0B20E2E70020F9E71FB50DF171
:10AF24000703039300F006F902AA012100F042FE90
:10AF340020B9039B187805B05DF804FB0020FAE7FC
:10AF440038B504460A48FFF735FF70B9084B43F299
:10AF540003054FF6FF7219882046FFF725FFA84224
:10AF640004D11A8801321A80F3E7032038BD00BFE8
:10AF7400E82B002013B5074A044692E803006B4609
:10AF840083E8030000221946204600F00CFF02B0BB
:10AF940010BD00BF9CE0020046DF7047F8B5094DC4
:10AFA400094E00240C2707FB046329785888FFF70F
:10AFB40003FD08B9E0B2F8BD0134142CF3D1FF202D
:10AFC400F9E700BFEA2B0020EC2B00200A4B10B558
:10AFD40019780446FFF7F0FC60B1084B00200C22FE
:10AFE40002FB00314988A14201D1C0B210BD013039
:10AFF4001428F5D1FF20F9E7EA2B0020EC2B0020E0
:10B0040038B505460C4609B9FF2038BD4FF6FF7325
:10B014009842F9D00E4B01221978FFF7E5FC284637
:10B02400FFF7D4FFFF2803D1FFF7B8FFFF28EBD0C9
:10B0340008490C234343CA1855804FF6FF75CD5277
:10B0440021685160131DA2889A80A2799A71DCE765
:10B05400EA2B0020EC2B0020421E00F10F0312F813
:10B06400010F10B99A42FAD170470120704708B510
:10B0740070B171B103780A78534013F0FE0F08D110
:10B0840006220131013002F035F9B0FA80F04009AE
:10B0940008BD0020FCE72DE9F04700F101084F1C32
:10B0A40006460D4600F1110901F1110A1022394634
:10B0B400404602F01FF90446E0B94046FFF7CCFFD2
:10B0C40018B13846FFF7C8FF044651464846FFF713
:10B0D400CEFF737C03F0FC03042B04D06B7C03F0E1
:10B0E400FC03042B02D1201C18BF012000F0010036
:10B0F400BDE8F0870024E8E730B585B004460D4686
:10B1040000F060FB02AA0DF10601072000F062FBCB
:10B1140010B94FF6FF700BE0BDF80630AB42F1D02A
:10B1240003992046FFF7B7FF0028EBD0BDF80600CF
:10B1340005B030BD08B5FFF749FFFF281DBF0C233C
:10B144005843034B4FF6FF7018BF185A08BD00BF91
:10B15400EC2B002010B50C46FFF738FFFF280CD06D
:10B16400074B0C2202FB003050F8043F2360838815
:10B17400A3808379A371002010BD0520FCE700BFE4
:10B18400EC2B0020084A30B500230C2404FB03F107
:10B194008D5A854202D10A44508830BD0133142BA4
:10B1A400F4D14FF6FF70F8E7EC2B0020038843B985
:10B1B400821C00F10A0312F8010B10B99A42FAD169
:10B1C40070470120704710B50446FFF7EFFF58B1F0
:10B1D40022880B889A4208D108220231A01C02F06E
:10B1E40089F8B0FA80F0400910BD0020FCE71FB5D3
:10B1F400044600F0E7FA02AA0DF10601072000F068
:10B20400E9FA10B94FF6FF7007E00399204646317A
:10B21400FFF7D9FF18B1BDF8060004B010BD0399BB
:10B2240020462A31FFF7CFFF0028E4D0F3E70000DF
:10B2340010B50C46FFF7CAFEFF281FBF0C23584366
:10B24400014B1C5210BD00BFEC2B002070B504460E
:10B25400FFF798FF0646204600F030FD4FF6FF75D5
:10B26400AE42044609D040B93046FFF7AFFEFF288E
:10B274001FBF0C235843024B1D52204670BD00BF14
:10B28400EC2B002030B58DB014460D4600F11003B0
:10B294000DF1FF3213F8011D02F8011F9842F9D194
:10B2A4000D22002104A802F0A2F82B788DF81F309B
:10B2B4006B788DF81E306846AB788DF81D30FFF73B
:10B2C4006BFE9DF82F3023709DF82E3063709DF82F
:10B2D4002D30A3700DB030BD30B5037803F0FE03FC
:10B2E400042B85B004460D4618D1411C032201A845
:10B2F40002F054F80322211D03A802F04FF802AA19
:10B3040003A92846FFF7BEFF032202A901A801F002
:10B31400F1FFB0FA80F0400905B030BD0020FBE732
:10B3240030B50388102B93B055D1041D0FCC07AD55
:10B334000FC50FCC0FC594E8070085E8070012ADD0
:10B3440015F8283D03F0FE03062B4ED000F03AFA20
:10B354009DF820305B08012B3FD9022B45D102AA6E
:10B364000DF10601072000F035FA00283DD00399BD
:10B3740028460131FFF7B0FF0028F0D005E003991B
:10B3840028461131FFF773FE38B3BDF80640BDF807
:10B394001C002946FFF734FE4FF6FF739C421AD077
:10B3A400BDF81C00FFF712FEFF281EBF0C235843F4
:10B3B4000F4BADF80C4018BF1C52BDF81C30ADF853
:10B3C4000A3012AC002304F8403D204600F0B0FDE2
:10B3D4002046FFF73DFC13B030BD02AA0DF1060173
:10B3E400072000F0F7F90028C9D14FF6FF74CEE723
:10B3F400EC2B002090DF7047A5DF7047B5DF704766
:10B404001FB50023ADF80810ADF80A106A4602A96A
:10B4140003930093ADF80430FFF7ECFF05B05DF83B
:10B4240004FB80B14FF0171303601B230371172330
:10B43400C380038141F61B32002301618372C3720E
:10B444008281184670470E20704713B503468088E2
:10B454000C4690B91A88232A00F08E800FD8102A3F
:10B4640023D0112A44D0A37A3BB1E1880020FFF70E
:10B47400C3FF10B90123A072E37202B010BD3A2ACF
:10B484003FD0552A59D0242AEDD11A7A0B694A7330
:10B49400002BE8D04DF67A21ADF80400ADF8001089
:10B4A400ADF802008DF8042062E0DB7B0A790A73B0
:10B4B400012B13D0022B14D0E18823898B4205D2AF
:10B4C4000020FFF799FF70B90123E372217B637BAE
:10B4D4008B42C8D20020FFF793FFC4E70B88E380B8
:10B4E400EAE74B88FBE7112804BF0123A372EDE7C9
:10B4F4001723CB800B8141F61B338872C8728B8172
:10B50400B1E75B89CA88934228BF1346172B0A699F
:10B5140038BF17230B8162B1C97A51B140F6772144
:10B52400ADF80010ADF80200ADF8043069462046CD
:10B5340090470023E372A37295E7DB88C988A07261
:10B54400172B38BF17238B4228BF0B462381FFF7E5
:10B5540055FFE27A002A86D12369002B83D040F676
:10B564007721ADF802202289ADF80010ADF804204F
:10B5740069462046984776E7197A237B994228BF83
:10B584001946A8E7B0DF704766DF7047034610B579
:10B5940000214088FFF7F8FF024608B91A7210BD6F
:10B5A400112801D10122F9E75B68BDE81040184772
:10B5B40060B159B10378DE2B0AD00B684360DE23F7
:10B5C40003704FF6FF734380002070470E207047CE
:10B5D4000820704728B10378DE2B04D14180002075
:10B5E40070470E20704708207047F0B5054685B0B7
:10B5F4000C46F1B1E8B10B78DE2B1AD182884B8866
:10B604009A4204D10B7A13B10846FFF7BFFF2B8887
:10B61400112B32D0512B0ED0012B0AD12B7A012BB6
:10B6240007D1A9886288914203D123722046FFF78B
:10B63400ADFF05B0F0BDAE886388B342F9D1AF79F0
:10B64400022FF6D1AD7B2B1F022BF2D80021102242
:10B65400684601F0CCFE052D14BF4FF4C0730023DF
:10B66400694630468DF80070ADF80430FFF78AFF64
:10B674000028DED063689847DBE76388AA889A428B
:10B6840004BF4FF6FF736380D3E7012804D0043866
:10B6940004288CBF0020012070474FF6FF734380BD
:10B6A40000F00EBAF0B51F4D8BB000210822684699
:10B6B400297001F09CFE4FF6FF7000F007FC4FF676
:10B6C400FF770446BC4211D0A4F58046B6B26A4660
:10B6D40002A93046FCF756F80A2809D03046FBF791
:10B6E400EDFF082806460BD101232B700BB0F0BDEB
:10B6F400204600F08FFB204600F0E8FB0446E1E71B
:10B70400002EF3D0142200210DEB020001F06FFE95
:10B71400072305A88DF81430ADF818400796FFF7F5
:10B72400BCFFE3E7E42C002073B504460D4616463F
:10B7340000210822684601F05AFEA5F58041A4F5CF
:10B7440080406B46324689B280B2FCF701F800288B
:10B7540014BF0520002002B070BDF0B5FF2887B0EB
:10B7640004460E4615461F4627D80846FFF78DFFA8
:10B7740018B303AA2046FFF7D7FF18B105242046C3
:10B7840007B0F0BD01A903A8FBF7EAFE04460028B0
:10B79400F4D1019BAE705A882A802FB9029B6B604A
:10B7A40003A8FBF717FFEAE73B689200934206D32E
:10B7B4000299686801F0F2FDF2E70724DFE7042448
:10B7C400DDE7000008220021014801F010BE00BF9F
:10B7D400DC2C0020F0B587B007460E461546FFF76F
:10B7E40054FF0446F8B1A7F58040104A03A980B27B
:10B7F400FBF7BCFF18B10024204607B0F0BD01A937
:10B8040003A8FBF7ADFE0028F5D1019BAF705A8861
:10B814009B882A8003F58043029A6A6003A83380D8
:10B82400FBF7D8FEE8E70124E6E700BFDC2C0020A4
:10B8340008B5034680780A46FFF727FF68B11988E0
:10B844001046FBF7E9FE072805D0092802D0002896
:10B8540018BF032008BD8620FCE70720FAE707B5D8
:10B8640002AB43F8040D1846FBF7F0FE002814BFA2
:10B874000320002003B05DF804FB30B589B0FF2835
:10B88400044601921D4645D88B781846FFF7FDFE05
:10B8940000283FD0A4F58042ADF80820A3F58042EB
:10B8A400ADF80A204A6803920A880492194605AA48
:10B8B4002046FFF739FF0528019B11D153B902A98E
:10B8C40005A8FBF7E9FE0728044618D011D8D0B123
:10B8D400032415E001AA02A905A8FBF7E1FEF2E79B
:10B8E40013B101A8FBF7B2FE02A905A8FBF7DEFE1F
:10B8F400E9E7082801D00E28EAD1112400E08624C3
:10B90400204609B030BD002DFAD0294605A8FBF722
:10B9140045FFF5E70724F3E74FF6FF7000F062BA3E
:10B92400FF2808B505D800F063FAFFF7BBFE002036
:10B9340008BD0720FCE700F081BA00F0ADBA00F0C2
:10B94400C5BA000030B50A68064B012A01D90020A7
:10B9540005E01401E55A854202D10A60181930BD88
:10B964000132F2E7F82C002073B502AC002344F84E
:10B97400043D0E4605462146FFF7E4FF38B18378BF
:10B98400B34206D1837B9B0703D183680BB902B012
:10B9940070BD019B0133019321462846ECE710B5A5
:10B9A400044600F07FFB204601F068F92046FFF7CB
:10B9B40027FA2046BDE81040FFF760B98378013BC1
:10B9C400072B07D8DFE803F0070606060607040975
:10B9D4001423038070470123FBE743689B880933E2
:10B9E4009B08F6E770B50F4E04460025237BAB4257
:10B9F40010D84FF6FF732380A370FF236373A37BD8
:10BA040003F0FD036FF30003A37300232373C4E95E
:10BA1400013370BD617B2944C9B2304600F0F3FBA9
:10BA24000135E3E7E82C002037B58378417B0446F1
:10BA340000252148CDE900558DF8023000F0CCFBFB
:10BA4400B8B1237BA278019003EB83039B00684683
:10BA54008DF80220ADF80030FFF7B0FF04F10803C1
:10BA6400626820886946FFF708FF072817D002D8C4
:10BA740078B1032013E0112813D08628F9D1A37BD1
:10BA840003F0FD0343F00103A3730C4B01221A706E
:10BA940005E0A37B60F3410360F30003A37303B0E9
:10BAA40030BDA37B43F0020365F30003A373034B90
:10BAB40001221A702846F2E7E82C0020E52C002029
:10BAC400F0B5384DC368AA68934287B006460FD0D4
